{
  "_format": "hh-sol-artifact-1",
  "contractName": "EulerGeneralView",
  "sourceName": "contracts/views/EulerGeneralView.sol",
  "abi": [
    {
      "inputs": [
        {
          "internalType": "bytes32",
          "name": "moduleGitCommit_",
          "type": "bytes32"
        }
      ],
      "stateMutability": "nonpayable",
      "type": "constructor"
    },
    {
      "inputs": [
        {
          "internalType": "uint256",
          "name": "borrowSPY",
          "type": "uint256"
        },
        {
          "internalType": "uint256",
          "name": "totalBorrows",
          "type": "uint256"
        },
        {
          "internalType": "uint256",
          "name": "totalBalancesUnderlying",
          "type": "uint256"
        },
        {
          "internalType": "uint32",
          "name": "reserveFee",
          "type": "uint32"
        }
      ],
      "name": "computeAPYs",
      "outputs": [
        {
          "internalType": "uint256",
          "name": "borrowAPY",
          "type": "uint256"
        },
        {
          "internalType": "uint256",
          "name": "supplyAPY",
          "type": "uint256"
        }
      ],
      "stateMutability": "pure",
      "type": "function"
    },
    {
      "inputs": [
        {
          "components": [
            {
              "internalType": "address",
              "name": "eulerContract",
              "type": "address"
            },
            {
              "internalType": "address",
              "name": "account",
              "type": "address"
            },
            {
              "internalType": "address[]",
              "name": "markets",
              "type": "address[]"
            }
          ],
          "internalType": "struct EulerGeneralView.Query",
          "name": "q",
          "type": "tuple"
        }
      ],
      "name": "doQuery",
      "outputs": [
        {
          "components": [
            {
              "internalType": "uint256",
              "name": "timestamp",
              "type": "uint256"
            },
            {
              "internalType": "uint256",
              "name": "blockNumber",
              "type": "uint256"
            },
            {
              "components": [
                {
                  "internalType": "address",
                  "name": "underlying",
                  "type": "address"
                },
                {
                  "internalType": "string",
                  "name": "name",
                  "type": "string"
                },
                {
                  "internalType": "string",
                  "name": "symbol",
                  "type": "string"
                },
                {
                  "internalType": "uint8",
                  "name": "decimals",
                  "type": "uint8"
                },
                {
                  "internalType": "address",
                  "name": "eTokenAddr",
                  "type": "address"
                },
                {
                  "internalType": "address",
                  "name": "dTokenAddr",
                  "type": "address"
                },
                {
                  "internalType": "address",
                  "name": "pTokenAddr",
                  "type": "address"
                },
                {
                  "components": [
                    {
                      "internalType": "address",
                      "name": "eTokenAddress",
                      "type": "address"
                    },
                    {
                      "internalType": "bool",
                      "name": "borrowIsolated",
                      "type": "bool"
                    },
                    {
                      "internalType": "uint32",
                      "name": "collateralFactor",
                      "type": "uint32"
                    },
                    {
                      "internalType": "uint32",
                      "name": "borrowFactor",
                      "type": "uint32"
                    },
                    {
                      "internalType": "uint24",
                      "name": "twapWindow",
                      "type": "uint24"
                    }
                  ],
                  "internalType": "struct Storage.AssetConfig",
                  "name": "config",
                  "type": "tuple"
                },
                {
                  "internalType": "uint256",
                  "name": "poolSize",
                  "type": "uint256"
                },
                {
                  "internalType": "uint256",
                  "name": "totalBalances",
                  "type": "uint256"
                },
                {
                  "internalType": "uint256",
                  "name": "totalBorrows",
                  "type": "uint256"
                },
                {
                  "internalType": "uint256",
                  "name": "reserveBalance",
                  "type": "uint256"
                },
                {
                  "internalType": "uint32",
                  "name": "reserveFee",
                  "type": "uint32"
                },
                {
                  "internalType": "uint256",
                  "name": "borrowAPY",
                  "type": "uint256"
                },
                {
                  "internalType": "uint256",
                  "name": "supplyAPY",
                  "type": "uint256"
                },
                {
                  "internalType": "uint256",
                  "name": "twap",
                  "type": "uint256"
                },
                {
                  "internalType": "uint256",
                  "name": "twapPeriod",
                  "type": "uint256"
                },
                {
                  "internalType": "uint256",
                  "name": "currPrice",
                  "type": "uint256"
                },
                {
                  "internalType": "uint16",
                  "name": "pricingType",
                  "type": "uint16"
                },
                {
                  "internalType": "uint32",
                  "name": "pricingParameters",
                  "type": "uint32"
                },
                {
                  "internalType": "address",
                  "name": "pricingForwarded",
                  "type": "address"
                },
                {
                  "internalType": "uint256",
                  "name": "underlyingBalance",
                  "type": "uint256"
                },
                {
                  "internalType": "uint256",
                  "name": "eulerAllowance",
                  "type": "uint256"
                },
                {
                  "internalType": "uint256",
                  "name": "eTokenBalance",
                  "type": "uint256"
                },
                {
                  "internalType": "uint256",
                  "name": "eTokenBalanceUnderlying",
                  "type": "uint256"
                },
                {
                  "internalType": "uint256",
                  "name": "dTokenBalance",
                  "type": "uint256"
                },
                {
                  "components": [
                    {
                      "internalType": "uint256",
                      "name": "collateralValue",
                      "type": "uint256"
                    },
                    {
                      "internalType": "uint256",
                      "name": "liabilityValue",
                      "type": "uint256"
                    },
                    {
                      "internalType": "uint256",
                      "name": "numBorrows",
                      "type": "uint256"
                    },
                    {
                      "internalType": "bool",
                      "name": "borrowIsolated",
                      "type": "bool"
                    }
                  ],
                  "internalType": "struct IRiskManager.LiquidityStatus",
                  "name": "liquidityStatus",
                  "type": "tuple"
                }
              ],
              "internalType": "struct EulerGeneralView.ResponseMarket[]",
              "name": "markets",
              "type": "tuple[]"
            },
            {
              "internalType": "address[]",
              "name": "enteredMarkets",
              "type": "address[]"
            }
          ],
          "internalType": "struct EulerGeneralView.Response",
          "name": "r",
          "type": "tuple"
        }
      ],
      "stateMutability": "view",
      "type": "function"
    },
    {
      "inputs": [
        {
          "internalType": "address",
          "name": "eulerContract",
          "type": "address"
        },
        {
          "internalType": "address[]",
          "name": "addrs",
          "type": "address[]"
        }
      ],
      "name": "doQueryAccountLiquidity",
      "outputs": [
        {
          "components": [
            {
              "components": [
                {
                  "internalType": "address",
                  "name": "underlying",
                  "type": "address"
                },
                {
                  "components": [
                    {
                      "internalType": "uint256",
                      "name": "collateralValue",
                      "type": "uint256"
                    },
                    {
                      "internalType": "uint256",
                      "name": "liabilityValue",
                      "type": "uint256"
                    },
                    {
                      "internalType": "uint256",
                      "name": "numBorrows",
                      "type": "uint256"
                    },
                    {
                      "internalType": "bool",
                      "name": "borrowIsolated",
                      "type": "bool"
                    }
                  ],
                  "internalType": "struct IRiskManager.LiquidityStatus",
                  "name": "status",
                  "type": "tuple"
                }
              ],
              "internalType": "struct IRiskManager.AssetLiquidity[]",
              "name": "markets",
              "type": "tuple[]"
            }
          ],
          "internalType": "struct EulerGeneralView.ResponseAccountLiquidity[]",
          "name": "r",
          "type": "tuple[]"
        }
      ],
      "stateMutability": "view",
      "type": "function"
    },
    {
      "inputs": [
        {
          "components": [
            {
              "internalType": "address",
              "name": "eulerContract",
              "type": "address"
            },
            {
              "internalType": "address",
              "name": "account",
              "type": "address"
            },
            {
              "internalType": "address[]",
              "name": "markets",
              "type": "address[]"
            }
          ],
          "internalType": "struct EulerGeneralView.Query[]",
          "name": "qs",
          "type": "tuple[]"
        }
      ],
      "name": "doQueryBatch",
      "outputs": [
        {
          "components": [
            {
              "internalType": "uint256",
              "name": "timestamp",
              "type": "uint256"
            },
            {
              "internalType": "uint256",
              "name": "blockNumber",
              "type": "uint256"
            },
            {
              "components": [
                {
                  "internalType": "address",
                  "name": "underlying",
                  "type": "address"
                },
                {
                  "internalType": "string",
                  "name": "name",
                  "type": "string"
                },
                {
                  "internalType": "string",
                  "name": "symbol",
                  "type": "string"
                },
                {
                  "internalType": "uint8",
                  "name": "decimals",
                  "type": "uint8"
                },
                {
                  "internalType": "address",
                  "name": "eTokenAddr",
                  "type": "address"
                },
                {
                  "internalType": "address",
                  "name": "dTokenAddr",
                  "type": "address"
                },
                {
                  "internalType": "address",
                  "name": "pTokenAddr",
                  "type": "address"
                },
                {
                  "components": [
                    {
                      "internalType": "address",
                      "name": "eTokenAddress",
                      "type": "address"
                    },
                    {
                      "internalType": "bool",
                      "name": "borrowIsolated",
                      "type": "bool"
                    },
                    {
                      "internalType": "uint32",
                      "name": "collateralFactor",
                      "type": "uint32"
                    },
                    {
                      "internalType": "uint32",
                      "name": "borrowFactor",
                      "type": "uint32"
                    },
                    {
                      "internalType": "uint24",
                      "name": "twapWindow",
                      "type": "uint24"
                    }
                  ],
                  "internalType": "struct Storage.AssetConfig",
                  "name": "config",
                  "type": "tuple"
                },
                {
                  "internalType": "uint256",
                  "name": "poolSize",
                  "type": "uint256"
                },
                {
                  "internalType": "uint256",
                  "name": "totalBalances",
                  "type": "uint256"
                },
                {
                  "internalType": "uint256",
                  "name": "totalBorrows",
                  "type": "uint256"
                },
                {
                  "internalType": "uint256",
                  "name": "reserveBalance",
                  "type": "uint256"
                },
                {
                  "internalType": "uint32",
                  "name": "reserveFee",
                  "type": "uint32"
                },
                {
                  "internalType": "uint256",
                  "name": "borrowAPY",
                  "type": "uint256"
                },
                {
                  "internalType": "uint256",
                  "name": "supplyAPY",
                  "type": "uint256"
                },
                {
                  "internalType": "uint256",
                  "name": "twap",
                  "type": "uint256"
                },
                {
                  "internalType": "uint256",
                  "name": "twapPeriod",
                  "type": "uint256"
                },
                {
                  "internalType": "uint256",
                  "name": "currPrice",
                  "type": "uint256"
                },
                {
                  "internalType": "uint16",
                  "name": "pricingType",
                  "type": "uint16"
                },
                {
                  "internalType": "uint32",
                  "name": "pricingParameters",
                  "type": "uint32"
                },
                {
                  "internalType": "address",
                  "name": "pricingForwarded",
                  "type": "address"
                },
                {
                  "internalType": "uint256",
                  "name": "underlyingBalance",
                  "type": "uint256"
                },
                {
                  "internalType": "uint256",
                  "name": "eulerAllowance",
                  "type": "uint256"
                },
                {
                  "internalType": "uint256",
                  "name": "eTokenBalance",
                  "type": "uint256"
                },
                {
                  "internalType": "uint256",
                  "name": "eTokenBalanceUnderlying",
                  "type": "uint256"
                },
                {
                  "internalType": "uint256",
                  "name": "dTokenBalance",
                  "type": "uint256"
                },
                {
                  "components": [
                    {
                      "internalType": "uint256",
                      "name": "collateralValue",
                      "type": "uint256"
                    },
                    {
                      "internalType": "uint256",
                      "name": "liabilityValue",
                      "type": "uint256"
                    },
                    {
                      "internalType": "uint256",
                      "name": "numBorrows",
                      "type": "uint256"
                    },
                    {
                      "internalType": "bool",
                      "name": "borrowIsolated",
                      "type": "bool"
                    }
                  ],
                  "internalType": "struct IRiskManager.LiquidityStatus",
                  "name": "liquidityStatus",
                  "type": "tuple"
                }
              ],
              "internalType": "struct EulerGeneralView.ResponseMarket[]",
              "name": "markets",
              "type": "tuple[]"
            },
            {
              "internalType": "address[]",
              "name": "enteredMarkets",
              "type": "address[]"
            }
          ],
          "internalType": "struct EulerGeneralView.Response[]",
          "name": "r",
          "type": "tuple[]"
        }
      ],
      "stateMutability": "view",
      "type": "function"
    },
    {
      "inputs": [
        {
          "components": [
            {
              "internalType": "address",
              "name": "eulerContract",
              "type": "address"
            },
            {
              "internalType": "address",
              "name": "underlying",
              "type": "address"
            }
          ],
          "internalType": "struct EulerGeneralView.QueryIRM",
          "name": "q",
          "type": "tuple"
        }
      ],
      "name": "doQueryIRM",
      "outputs": [
        {
          "components": [
            {
              "internalType": "uint256",
              "name": "kink",
              "type": "uint256"
            },
            {
              "internalType": "uint256",
              "name": "baseAPY",
              "type": "uint256"
            },
            {
              "internalType": "uint256",
              "name": "kinkAPY",
              "type": "uint256"
            },
            {
              "internalType": "uint256",
              "name": "maxAPY",
              "type": "uint256"
            },
            {
              "internalType": "uint256",
              "name": "baseSupplyAPY",
              "type": "uint256"
            },
            {
              "internalType": "uint256",
              "name": "kinkSupplyAPY",
              "type": "uint256"
            },
            {
              "internalType": "uint256",
              "name": "maxSupplyAPY",
              "type": "uint256"
            }
          ],
          "internalType": "struct EulerGeneralView.ResponseIRM",
          "name": "r",
          "type": "tuple"
        }
      ],
      "stateMutability": "view",
      "type": "function"
    },
    {
      "inputs": [],
      "name": "moduleGitCommit",
      "outputs": [
        {
          "internalType": "bytes32",
          "name": "",
          "type": "bytes32"
        }
      ],
      "stateMutability": "view",
      "type": "function"
    }
  ],
  "bytecode": "0x60a06040523480156200001157600080fd5b5060405162002dda38038062002dda83398101604081905262000034916200003d565b60805262000057565b6000602082840312156200005057600080fd5b5051919050565b608051612d6762000073600039600061012e0152612d676000f3fe608060405234801561001057600080fd5b50600436106100725760003560e01c806369a92ea31161005057806369a92ea314610129578063854c87271461015e5780638f863b2e1461017e57600080fd5b8063340d059a146100775780633d77bf7f146100a05780634c0cf6f714610109575b600080fd5b61008a61008536600461200d565b6101a6565b60405161009791906124bf565b60405180910390f35b6100b36100ae36600461253f565b610283565b6040516100979190600060e082019050825182526020830151602083015260408301516040830152606083015160608301526080830151608083015260a083015160a083015260c083015160c083015292915050565b61011c61011736600461259e565b61078f565b60405161009791906125ee565b6101507f000000000000000000000000000000000000000000000000000000000000000081565b604051908152602001610097565b61017161016c3660046126ef565b610999565b604051610097919061272c565b61019161018c366004612758565b610e7a565b60408051928352602083019190915201610097565b6060815167ffffffffffffffff8111156101c2576101c2611df6565b60405190808252806020026020018201604052801561021e57816020015b61020b6040518060800160405280600081526020016000815260200160608152602001606081525090565b8152602001906001900390816101e05790505b50905060005b825181101561027d5761024f83828151811061024257610242612799565b6020026020010151610999565b82828151811061026157610261612799565b602002602001018190525080610276906127f7565b9050610224565b50919050565b6102c36040518060e00160405280600081526020016000815260200160008152602001600081526020016000815260200160008152602001600081525090565b81516040517f734c938f0000000000000000000000000000000000000000000000000000000081526002600482015260009073ffffffffffffffffffffffffffffffffffffffff83169063734c938f90602401602060405180830381865afa158015610333573d6000803e3d6000fd5b505050506040513d601f19601f820116820180604052508101906103579190612830565b60208501516040517fb409dd9b00000000000000000000000000000000000000000000000000000000815273ffffffffffffffffffffffffffffffffffffffff91821660048201529192506000919083169063b409dd9b90602401602060405180830381865afa1580156103cf573d6000803e3d6000fd5b505050506040513d601f19601f820116820180604052508101906103f3919061284d565b6040517fcab65f010000000000000000000000000000000000000000000000000000000081526004810182905290915060009073ffffffffffffffffffffffffffffffffffffffff85169063cab65f0190602401602060405180830381865afa158015610464573d6000803e3d6000fd5b505050506040513d601f19601f820116820180604052508101906104889190612830565b9050600081905060008173ffffffffffffffffffffffffffffffffffffffff1663fd2da3396040518163ffffffff1660e01b8152600401602060405180830381865afa1580156104dc573d6000803e3d6000fd5b505050506040513d601f19601f82011682018060405250810190610500919061284d565b80885260208901516040517fb74b1ed500000000000000000000000000000000000000000000000000000000815273ffffffffffffffffffffffffffffffffffffffff91821660048201529192506000919087169063b74b1ed590602401602060405180830381865afa15801561057b573d6000803e3d6000fd5b505050506040513d601f19601f8201168201806040525081019061059f9190612866565b905060008373ffffffffffffffffffffffffffffffffffffffff16631f68f20a6040518163ffffffff1660e01b8152600401602060405180830381865afa1580156105ee573d6000803e3d6000fd5b505050506040513d601f19601f82011682018060405250810190610612919061284d565b905060008473ffffffffffffffffffffffffffffffffffffffff1663a62b75a86040518163ffffffff1660e01b8152600401602060405180830381865afa158015610661573d6000803e3d6000fd5b505050506040513d601f19601f82011682018060405250810190610685919061284d565b61068f9085612883565b61069990836128c0565b905060008573ffffffffffffffffffffffffffffffffffffffff1663d0134cb76040518163ffffffff1660e01b8152600401602060405180830381865afa1580156106e8573d6000803e3d6000fd5b505050506040513d601f19601f8201168201806040525081019061070c919061284d565b61071a8663ffffffff6128d8565b6107249190612883565b61072e90836128c0565b905061074183600063ffffffff87610e7a565b60808d015260208c015261075b828663ffffffff87610e7a565b60a08d015260408c01526107758163ffffffff8087610e7a565b60c08d015260608c015250989a9950505050505050505050565b6040517f734c938f00000000000000000000000000000000000000000000000000000000815260056004820152606090839060009073ffffffffffffffffffffffffffffffffffffffff83169063734c938f90602401602060405180830381865afa158015610802573d6000803e3d6000fd5b505050506040513d601f19601f820116820180604052508101906108269190612830565b9050835167ffffffffffffffff81111561084257610842611df6565b60405190808252806020026020018201604052801561088257816020015b6040805160208101909152606081528152602001906001900390816108605790505b50925060005b8451811015610990578173ffffffffffffffffffffffffffffffffffffffff1663dec82caf8683815181106108bf576108bf612799565b60200260200101516040518263ffffffff1660e01b81526004016108ff919073ffffffffffffffffffffffffffffffffffffffff91909116815260200190565b600060405180830381865afa15801561091c573d6000803e3d6000fd5b505050506040513d6000823e601f3d9081017fffffffffffffffffffffffffffffffffffffffffffffffffffffffffffffffe01682016040526109629190810190612904565b84828151811061097457610974612799565b602090810291909101015152610989816127f7565b9050610888565b50505092915050565b6109c46040518060800160405280600081526020016000815260200160608152602001606081525090565b42815243602082015281516040517f734c938f0000000000000000000000000000000000000000000000000000000081526002600482015260009073ffffffffffffffffffffffffffffffffffffffff83169063734c938f90602401602060405180830381865afa158015610a3d573d6000803e3d6000fd5b505050506040513d601f19601f82011682018060405250810190610a619190612830565b6040517f734c938f0000000000000000000000000000000000000000000000000000000081526005600482015290915060009073ffffffffffffffffffffffffffffffffffffffff84169063734c938f90602401602060405180830381865afa158015610ad2573d6000803e3d6000fd5b505050506040513d601f19601f82011682018060405250810190610af69190612830565b602086015190915060609073ffffffffffffffffffffffffffffffffffffffff1615610bd75760208601516040517fdec82caf00000000000000000000000000000000000000000000000000000000815273ffffffffffffffffffffffffffffffffffffffff91821660048201529083169063dec82caf90602401600060405180830381865afa158015610b8e573d6000803e3d6000fd5b505050506040513d6000823e601f3d9081017fffffffffffffffffffffffffffffffffffffffffffffffffffffffffffffffe0168201604052610bd49190810190612904565b90505b8560400151518151610be991906128c0565b67ffffffffffffffff811115610c0157610c01611df6565b604051908082528060200260200182016040528015610c3a57816020015b610c27611cb8565b815260200190600190039081610c1f5790505b50604086015260005b8151811015610cea57600086604001518281518110610c6457610c64612799565b60200260200101519050828281518110610c8057610c80612799565b60209081029190910101515173ffffffffffffffffffffffffffffffffffffffff1681528251839083908110610cb857610cb8612799565b602002602001015160200151816103400181905250610cd988828787610f3c565b50610ce3816127f7565b9050610c43565b5080515b8660400151518251610d0091906128c0565b811015610d92576000825182610d1691906128d8565b9050600087604001518381518110610d3057610d30612799565b6020026020010151905088604001518281518110610d5057610d50612799565b602090810291909101015173ffffffffffffffffffffffffffffffffffffffff168152610d7f89828888610f3c565b505080610d8b906127f7565b9050610cee565b50602086015173ffffffffffffffffffffffffffffffffffffffff1615610e715760208601516040517f8ccb720b00000000000000000000000000000000000000000000000000000000815273ffffffffffffffffffffffffffffffffffffffff918216600482015290841690638ccb720b90602401600060405180830381865afa158015610e25573d6000803e3d6000fd5b505050506040513d6000823e601f3d9081017fffffffffffffffffffffffffffffffffffffffffffffffffffffffffffffffe0168201604052610e6b9190810190612a28565b60608601525b50505050919050565b6000806b033b2e3c9fd0803ce8000000610eae610e9788836128c0565b6301e185586b033b2e3c9fd0803ce8000000611ac5565b610eb891906128d8565b915060008415610edc5784610ecd8789612883565b610ed79190612ac2565b610edf565b60005b905063ee6b2800610ef663ffffffff8616826128d8565b610f009083612883565b610f0a9190612ac2565b90506b033b2e3c9fd0803ce8000000610f26610e9783836128c0565b610f3091906128d8565b91505094509492505050565b8251610f68907f06fdde0300000000000000000000000000000000000000000000000000000000611b83565b60208401528251610f99907f95d89b4100000000000000000000000000000000000000000000000000000000611b83565b8360400181905250826000015173ffffffffffffffffffffffffffffffffffffffff1663313ce5676040518163ffffffff1660e01b8152600401602060405180830381865afa158015610ff0573d6000803e3d6000fd5b505050506040513d601f19601f820116820180604052508101906110149190612afd565b60ff16606084015282516040517f8948874900000000000000000000000000000000000000000000000000000000815273ffffffffffffffffffffffffffffffffffffffff918216600482015290831690638948874990602401602060405180830381865afa15801561108b573d6000803e3d6000fd5b505050506040513d601f19601f820116820180604052508101906110af9190612830565b73ffffffffffffffffffffffffffffffffffffffff16608084018190526110d557611abf565b60808301516040517f6b5e360600000000000000000000000000000000000000000000000000000000815273ffffffffffffffffffffffffffffffffffffffff918216600482015290831690636b5e360690602401602060405180830381865afa158015611147573d6000803e3d6000fd5b505050506040513d601f19601f8201168201806040525081019061116b9190612830565b73ffffffffffffffffffffffffffffffffffffffff90811660a085015283516040517ffd7948d400000000000000000000000000000000000000000000000000000000815290821660048201529083169063fd7948d490602401602060405180830381865afa1580156111e2573d6000803e3d6000fd5b505050506040513d601f19601f820116820180604052508101906112069190612830565b73ffffffffffffffffffffffffffffffffffffffff90811660c085015283516040517f4e9cfac20000000000000000000000000000000000000000000000000000000081529082166004820152600091841690634e9cfac29060240160a060405180830381865afa15801561127f573d6000803e3d6000fd5b505050506040513d601f19601f820116820180604052508101906112a39190612b20565b60e085015250825184516040517f70a0823100000000000000000000000000000000000000000000000000000000815273ffffffffffffffffffffffffffffffffffffffff91821660048201529116906370a0823190602401602060405180830381865afa158015611319573d6000803e3d6000fd5b505050506040513d601f19601f8201168201806040525081019061133d919061284d565b83610100018181525050826080015173ffffffffffffffffffffffffffffffffffffffff1663fea61faa6040518163ffffffff1660e01b8152600401602060405180830381865afa158015611396573d6000803e3d6000fd5b505050506040513d601f19601f820116820180604052508101906113ba919061284d565b836101200181815250508260a0015173ffffffffffffffffffffffffffffffffffffffff166318160ddd6040518163ffffffff1660e01b8152600401602060405180830381865afa158015611413573d6000803e3d6000fd5b505050506040513d601f19601f82011682018060405250810190611437919061284d565b83610140018181525050826080015173ffffffffffffffffffffffffffffffffffffffff1663e73277d06040518163ffffffff1660e01b8152600401602060405180830381865afa158015611490573d6000803e3d6000fd5b505050506040513d601f19601f820116820180604052508101906114b4919061284d565b61016084015282516040517fb74b1ed500000000000000000000000000000000000000000000000000000000815273ffffffffffffffffffffffffffffffffffffffff91821660048201529083169063b74b1ed590602401602060405180830381865afa158015611529573d6000803e3d6000fd5b505050506040513d601f19601f8201168201806040525081019061154d9190612866565b63ffffffff1661018084015282516040517f7c2c69c000000000000000000000000000000000000000000000000000000000815273ffffffffffffffffffffffffffffffffffffffff9182166004820152600091841690637c2c69c090602401602060405180830381865afa1580156115ca573d6000803e3d6000fd5b505050506040513d601f19601f820116820180604052508101906115ee9190612bbe565b600b0b905061160e81856101400151866101200151876101800151610e7a565b6101c08601526101a08501525082516040517f9693fa6b00000000000000000000000000000000000000000000000000000000815273ffffffffffffffffffffffffffffffffffffffff918216600482015290821690639693fa6b90602401606060405180830381865afa15801561168a573d6000803e3d6000fd5b505050506040513d601f19601f820116820180604052508101906116ae9190612be1565b6102208601526102008501526101e084015282516040517f546422d600000000000000000000000000000000000000000000000000000000815273ffffffffffffffffffffffffffffffffffffffff91821660048201529083169063546422d690602401606060405180830381865afa15801561172f573d6000803e3d6000fd5b505050506040513d601f19601f820116820180604052508101906117539190612c0f565b73ffffffffffffffffffffffffffffffffffffffff90811661028087015263ffffffff90911661026086015261ffff90911661024085015260208501511661179a57611abf565b825160208501516040517f70a0823100000000000000000000000000000000000000000000000000000000815273ffffffffffffffffffffffffffffffffffffffff91821660048201529116906370a0823190602401602060405180830381865afa15801561180d573d6000803e3d6000fd5b505050506040513d601f19601f82011682018060405250810190611831919061284d565b6102a0840152608083015160208501516040517f70a0823100000000000000000000000000000000000000000000000000000000815273ffffffffffffffffffffffffffffffffffffffff91821660048201529116906370a0823190602401602060405180830381865afa1580156118ad573d6000803e3d6000fd5b505050506040513d601f19601f820116820180604052508101906118d1919061284d565b6102e0840152608083015160208501516040517f3af9e66900000000000000000000000000000000000000000000000000000000815273ffffffffffffffffffffffffffffffffffffffff9182166004820152911690633af9e66990602401602060405180830381865afa15801561194d573d6000803e3d6000fd5b505050506040513d601f19601f82011682018060405250810190611971919061284d565b61030084015260a083015160208501516040517f70a0823100000000000000000000000000000000000000000000000000000000815273ffffffffffffffffffffffffffffffffffffffff91821660048201529116906370a0823190602401602060405180830381865afa1580156119ed573d6000803e3d6000fd5b505050506040513d601f19601f82011682018060405250810190611a11919061284d565b6103208401528251602085015185516040517fdd62ed3e00000000000000000000000000000000000000000000000000000000815273ffffffffffffffffffffffffffffffffffffffff9283166004820152908216602482015291169063dd62ed3e90604401602060405180830381865afa158015611a94573d6000803e3d6000fd5b505050506040513d601f19601f82011682018060405250810190611ab8919061284d565b6102c08401525b50505050565b6000838015611b6557600184168015611ae057859250611ae4565b8392505b50600283046002850494505b8415611b5f578586028687820414611b0757600080fd5b81810181811015611b1757600080fd5b8590049650506001851615611b54578583028387820414158715151615611b3d57600080fd5b81810181811015611b4d57600080fd5b8590049350505b600285049450611af0565b50611b7b565b838015611b755760009250611b79565b8392505b505b509392505050565b60408051600481526024810182526020810180517bffffffffffffffffffffffffffffffffffffffffffffffffffffffff167fffffffff0000000000000000000000000000000000000000000000000000000085161790529051606091600091829173ffffffffffffffffffffffffffffffffffffffff871691611c079190612c63565b600060405180830381855afa9150503d8060008114611c42576040519150601f19603f3d011682016040523d82523d6000602084013e611c47565b606091505b509150915081611c6a576040518060200160405280600081525092505050611cb2565b8051602014611c8c5780806020019051810190611c879190612c7f565b611cad565b80604051602001611c9d9190612c63565b6040516020818303038152906040525b925050505b92915050565b6040805161036081018252600080825260606020808401829052838501829052818401839052608080850184905260a080860185905260c0860185905286519081018752848152918201849052948101839052908101829052928301529060e0820190815260200160008152602001600081526020016000815260200160008152602001600063ffffffff1681526020016000815260200160008152602001600081526020016000815260200160008152602001600061ffff168152602001600063ffffffff168152602001600073ffffffffffffffffffffffffffffffffffffffff1681526020016000815260200160008152602001600081526020016000815260200160008152602001611df160405180608001604052806000815260200160008152602001600081526020016000151581525090565b905290565b7f4e487b7100000000000000000000000000000000000000000000000000000000600052604160045260246000fd5b6040805190810167ffffffffffffffff81118282101715611e4857611e48611df6565b60405290565b6040516080810167ffffffffffffffff81118282101715611e4857611e48611df6565b604051601f82017fffffffffffffffffffffffffffffffffffffffffffffffffffffffffffffffe016810167ffffffffffffffff81118282101715611eb857611eb8611df6565b604052919050565b600067ffffffffffffffff821115611eda57611eda611df6565b5060051b60200190565b73ffffffffffffffffffffffffffffffffffffffff81168114611f0657600080fd5b50565b600082601f830112611f1a57600080fd5b81356020611f2f611f2a83611ec0565b611e71565b82815260059290921b84018101918181019086841115611f4e57600080fd5b8286015b84811015611f72578035611f6581611ee4565b8352918301918301611f52565b509695505050505050565b600060608284031215611f8f57600080fd5b6040516060810167ffffffffffffffff8282108183111715611fb357611fb3611df6565b8160405282935084359150611fc782611ee4565b908252602084013590611fd982611ee4565b8160208401526040850135915080821115611ff357600080fd5b5061200085828601611f09565b6040830152505092915050565b6000602080838503121561202057600080fd5b823567ffffffffffffffff8082111561203857600080fd5b818501915085601f83011261204c57600080fd5b813561205a611f2a82611ec0565b81815260059190911b8301840190848101908883111561207957600080fd5b8585015b838110156120b1578035858111156120955760008081fd5b6120a38b89838a0101611f7d565b84525091860191860161207d565b5098975050505050505050565b60005b838110156120d95781810151838201526020016120c1565b83811115611abf5750506000910152565b600081518084526121028160208601602086016120be565b601f017fffffffffffffffffffffffffffffffffffffffffffffffffffffffffffffffe0169290920160200192915050565b600081518084526020808501945080840160005b8381101561217a57815173ffffffffffffffffffffffffffffffffffffffff1687529582019590820190600101612148565b509495945050505050565b600060808084018351855260208085015181870152604080860151848289015283815180865260a09550858a019150858160051b8b0101858401935060005b82811015612496578b82037fffffffffffffffffffffffffffffffffffffffffffffffffffffffffffffff600184528451805173ffffffffffffffffffffffffffffffffffffffff16835261044088820151818a860152612227828601826120ea565b915050878201518482038986015261223f82826120ea565b9150506060808301516122568287018260ff169052565b5050818b015173ffffffffffffffffffffffffffffffffffffffff8116858d015250818a015173ffffffffffffffffffffffffffffffffffffffff8116858c01525060c08281015173ffffffffffffffffffffffffffffffffffffffff811686830152505060e082810151805173ffffffffffffffffffffffffffffffffffffffff168683015260208101511515610100870152604081015163ffffffff908116610120880152606082015116610140870152608081015162ffffff166101608701525050610100820151610180818187015261012084015191506101a0828188015261014085015192506101c0838189015261016086015193506101e084818a01528387015194506102009350612375848a018663ffffffff169052565b918601516102208981019190915290860151610240808a019190915291860151610260808a019190915292860151610280808a0191909152908601516102a0808a0191909152918601519350916102c0906123d5828a018661ffff169052565b86015193506102e06123ee8982018663ffffffff169052565b928601519350610300926124198985018673ffffffffffffffffffffffffffffffffffffffff169052565b918601516103208981019190915290860151610340808a01919091529186015161036089015291850151610380880152908401516103a08701529092015180516103c086015260208101516103e08601526040810151610400860152606001511515610420909401939093525093860193928601926001016121c4565b5060608a015197508a810360608c01526124b08189612134565b9b9a5050505050505050505050565b6000602080830181845280855180835260408601915060408160051b870101925083870160005b82811015612532577fffffffffffffffffffffffffffffffffffffffffffffffffffffffffffffffc0888603018452612520858351612185565b945092850192908501906001016124e6565b5092979650505050505050565b60006040828403121561255157600080fd5b6040516040810181811067ffffffffffffffff8211171561257457612574611df6565b604052823561258281611ee4565b8152602083013561259281611ee4565b60208201529392505050565b600080604083850312156125b157600080fd5b82356125bc81611ee4565b9150602083013567ffffffffffffffff8111156125d857600080fd5b6125e485828601611f09565b9150509250929050565b60006020808301818452808551808352604092508286019150828160051b8701018488016000805b848110156126e0578984037fffffffffffffffffffffffffffffffffffffffffffffffffffffffffffffffc00186528251518885528051898601819052908901908390898701905b808310156126cb578351805173ffffffffffffffffffffffffffffffffffffffff1683528c01516126b48d8401828051825260208101516020830152604081015160408301526060810151151560608301525050565b5060a0820191508b8401935060018301925061265e565b50978a01979550505091870191600101612616565b50919998505050505050505050565b60006020828403121561270157600080fd5b813567ffffffffffffffff81111561271857600080fd5b61272484828501611f7d565b949350505050565b60208152600061273f6020830184612185565b9392505050565b63ffffffff81168114611f0657600080fd5b6000806000806080858703121561276e57600080fd5b843593506020850135925060408501359150606085013561278e81612746565b939692955090935050565b7f4e487b7100000000000000000000000000000000000000000000000000000000600052603260045260246000fd5b7f4e487b7100000000000000000000000000000000000000000000000000000000600052601160045260246000fd5b60007fffffffffffffffffffffffffffffffffffffffffffffffffffffffffffffffff821415612829576128296127c8565b5060010190565b60006020828403121561284257600080fd5b815161273f81611ee4565b60006020828403121561285f57600080fd5b5051919050565b60006020828403121561287857600080fd5b815161273f81612746565b6000817fffffffffffffffffffffffffffffffffffffffffffffffffffffffffffffffff04831182151516156128bb576128bb6127c8565b500290565b600082198211156128d3576128d36127c8565b500190565b6000828210156128ea576128ea6127c8565b500390565b805180151581146128ff57600080fd5b919050565b6000602080838503121561291757600080fd5b825167ffffffffffffffff81111561292e57600080fd5b8301601f8101851361293f57600080fd5b805161294d611f2a82611ec0565b81815260a0918202830184019184820191908884111561296c57600080fd5b938501935b83851015612a1c578489038181121561298a5760008081fd5b612992611e25565b865161299d81611ee4565b815260807fffffffffffffffffffffffffffffffffffffffffffffffffffffffffffffffe083018113156129d15760008081fd5b6129d9611e4e565b92508888015183526040808901518a8501526060808a015182860152612a00838b016128ef565b9085015250508088019190915283529384019391850191612971565b50979650505050505050565b60006020808385031215612a3b57600080fd5b825167ffffffffffffffff811115612a5257600080fd5b8301601f81018513612a6357600080fd5b8051612a71611f2a82611ec0565b81815260059190911b82018301908381019087831115612a9057600080fd5b928401925b82841015612ab7578351612aa881611ee4565b82529284019290840190612a95565b979650505050505050565b600082612af8577f4e487b7100000000000000000000000000000000000000000000000000000000600052601260045260246000fd5b500490565b600060208284031215612b0f57600080fd5b815160ff8116811461273f57600080fd5b600060a08284031215612b3257600080fd5b60405160a0810181811067ffffffffffffffff82111715612b5557612b55611df6565b6040528251612b6381611ee4565b8152612b71602084016128ef565b60208201526040830151612b8481612746565b60408201526060830151612b9781612746565b6060820152608083015162ffffff81168114612bb257600080fd5b60808201529392505050565b600060208284031215612bd057600080fd5b815180600b0b811461273f57600080fd5b600080600060608486031215612bf657600080fd5b8351925060208401519150604084015190509250925092565b600080600060608486031215612c2457600080fd5b835161ffff81168114612c3657600080fd5b6020850151909350612c4781612746565b6040850151909250612c5881611ee4565b809150509250925092565b60008251612c758184602087016120be565b9190910192915050565b600060208284031215612c9157600080fd5b815167ffffffffffffffff80821115612ca957600080fd5b818401915084601f830112612cbd57600080fd5b815181811115612ccf57612ccf611df6565b612d0060207fffffffffffffffffffffffffffffffffffffffffffffffffffffffffffffffe0601f84011601611e71565b9150808252856020828501011115612d1757600080fd5b612d288160208401602086016120be565b5094935050505056fea26469706673582212202fbe509bbe23cb50f8b0201ea4832c9cd306d218c238ca549698473ca2986eae64736f6c634300080a0033",
  "linkReferences": {},
  "deployedLinkReferences": {}
}