{
  "_format": "hh-sol-artifact-1",
  "contractName": "MockStETH",
  "sourceName": "contracts/test/MockStETH.sol",
  "abi": [
    {
      "inputs": [
        {
          "internalType": "uint256",
          "name": "_sharesAmount",
          "type": "uint256"
        }
      ],
      "name": "getPooledEthByShares",
      "outputs": [
        {
          "internalType": "uint256",
          "name": "",
          "type": "uint256"
        }
      ],
      "stateMutability": "view",
      "type": "function"
    },
    {
      "inputs": [
        {
          "internalType": "uint256",
          "name": "_pooledEthAmount",
          "type": "uint256"
        }
      ],
      "name": "getSharesByPooledEth",
      "outputs": [
        {
          "internalType": "uint256",
          "name": "",
          "type": "uint256"
        }
      ],
      "stateMutability": "view",
      "type": "function"
    },
    {
      "inputs": [
        {
          "internalType": "uint256",
          "name": "_pooledEthByShares",
          "type": "uint256"
        },
        {
          "internalType": "uint256",
          "name": "_sharesByPooledEth",
          "type": "uint256"
        }
      ],
      "name": "mockSetData",
      "outputs": [],
      "stateMutability": "nonpayable",
      "type": "function"
    },
    {
      "inputs": [
        {
          "internalType": "bool",
          "name": "_shouldRevert",
          "type": "bool"
        }
      ],
      "name": "mockSetRevert",
      "outputs": [],
      "stateMutability": "nonpayable",
      "type": "function"
    }
  ],
  "bytecode": "0x60806040526000805460ff1916905534801561001a57600080fd5b506102218061002a6000396000f3fe608060405234801561001057600080fd5b506004361061004b5760003560e01c8062b84fed1461005057806319208451146100915780633c703ca1146100b65780637a28fb88146100cf575b600080fd5b61008f61005e366004610187565b600080547fffffffffffffffffffffffffffffffffffffffffffffffffffffffffffffff0016911515919091179055565b005b6100a461009f3660046101b0565b6100e2565b60405190815260200160405180910390f35b61008f6100c43660046101c9565b600191909155600255565b6100a46100dd3660046101b0565b610137565b6000805460ff161561012f576040517f08c379a000000000000000000000000000000000000000000000000000000000815260206004820152600060248201526044015b60405180910390fd5b505060025490565b6000805460ff161561017f576040517f08c379a00000000000000000000000000000000000000000000000000000000081526020600482015260006024820152604401610126565b505060015490565b60006020828403121561019957600080fd5b813580151581146101a957600080fd5b9392505050565b6000602082840312156101c257600080fd5b5035919050565b600080604083850312156101dc57600080fd5b5050803592602090910135915056fea2646970667358221220445129ae6434db04f4f7b5d3c409b3c3fe64307f9c80c4a6f514226c3d1e77b064736f6c634300080a0033",
  "linkReferences": {},
  "deployedLinkReferences": {}
}