{
  "contracts/test/MockStETH.sol": {
    "MockStETH": {
      "abi": [
        {
          "inputs": [
            {
              "internalType": "uint256",
              "name": "_sharesAmount",
              "type": "uint256"
            }
          ],
          "name": "getPooledEthByShares",
          "outputs": [
            {
              "internalType": "uint256",
              "name": "",
              "type": "uint256"
            }
          ],
          "stateMutability": "view",
          "type": "function"
        },
        {
          "inputs": [
            {
              "internalType": "uint256",
              "name": "_pooledEthAmount",
              "type": "uint256"
            }
          ],
          "name": "getSharesByPooledEth",
          "outputs": [
            {
              "internalType": "uint256",
              "name": "",
              "type": "uint256"
            }
          ],
          "stateMutability": "view",
          "type": "function"
        },
        {
          "inputs": [
            {
              "internalType": "uint256",
              "name": "_pooledEthByShares",
              "type": "uint256"
            },
            {
              "internalType": "uint256",
              "name": "_sharesByPooledEth",
              "type": "uint256"
            }
          ],
          "name": "mockSetData",
          "outputs": [],
          "stateMutability": "nonpayable",
          "type": "function"
        },
        {
          "inputs": [
            {
              "internalType": "bool",
              "name": "_shouldRevert",
              "type": "bool"
            }
          ],
          "name": "mockSetRevert",
          "outputs": [],
          "stateMutability": "nonpayable",
          "type": "function"
        }
      ],
      "evm": {
        "bytecode": {
          "linkReferences": {},
          "object": "60806040526000805460ff1916905534801561001a57600080fd5b506102218061002a6000396000f3fe608060405234801561001057600080fd5b506004361061004b5760003560e01c8062b84fed1461005057806319208451146100915780633c703ca1146100b65780637a28fb88146100cf575b600080fd5b61008f61005e366004610187565b600080547fffffffffffffffffffffffffffffffffffffffffffffffffffffffffffffff0016911515919091179055565b005b6100a461009f3660046101b0565b6100e2565b60405190815260200160405180910390f35b61008f6100c43660046101c9565b600191909155600255565b6100a46100dd3660046101b0565b610137565b6000805460ff161561012f576040517f08c379a000000000000000000000000000000000000000000000000000000000815260206004820152600060248201526044015b60405180910390fd5b505060025490565b6000805460ff161561017f576040517f08c379a00000000000000000000000000000000000000000000000000000000081526020600482015260006024820152604401610126565b505060015490565b60006020828403121561019957600080fd5b813580151581146101a957600080fd5b9392505050565b6000602082840312156101c257600080fd5b5035919050565b600080604083850312156101dc57600080fd5b5050803592602090910135915056fea2646970667358221220445129ae6434db04f4f7b5d3c409b3c3fe64307f9c80c4a6f514226c3d1e77b064736f6c634300080a0033",
          "opcodes": "PUSH1 0x80 PUSH1 0x40 MSTORE PUSH1 0x0 DUP1 SLOAD PUSH1 0xFF NOT AND SWAP1 SSTORE CALLVALUE DUP1 ISZERO PUSH2 0x1A JUMPI PUSH1 0x0 DUP1 REVERT JUMPDEST POP PUSH2 0x221 DUP1 PUSH2 0x2A PUSH1 0x0 CODECOPY PUSH1 0x0 RETURN INVALID PUSH1 0x80 PUSH1 0x40 MSTORE CALLVALUE DUP1 ISZERO PUSH2 0x10 JUMPI PUSH1 0x0 DUP1 REVERT JUMPDEST POP PUSH1 0x4 CALLDATASIZE LT PUSH2 0x4B JUMPI PUSH1 0x0 CALLDATALOAD PUSH1 0xE0 SHR DUP1 PUSH3 0xB84FED EQ PUSH2 0x50 JUMPI DUP1 PUSH4 0x19208451 EQ PUSH2 0x91 JUMPI DUP1 PUSH4 0x3C703CA1 EQ PUSH2 0xB6 JUMPI DUP1 PUSH4 0x7A28FB88 EQ PUSH2 0xCF JUMPI JUMPDEST PUSH1 0x0 DUP1 REVERT JUMPDEST PUSH2 0x8F PUSH2 0x5E CALLDATASIZE PUSH1 0x4 PUSH2 0x187 JUMP JUMPDEST PUSH1 0x0 DUP1 SLOAD PUSH32 0xFFFFFFFFFFFFFFFFFFFFFFFFFFFFFFFFFFFFFFFFFFFFFFFFFFFFFFFFFFFFFF00 AND SWAP2 ISZERO ISZERO SWAP2 SWAP1 SWAP2 OR SWAP1 SSTORE JUMP JUMPDEST STOP JUMPDEST PUSH2 0xA4 PUSH2 0x9F CALLDATASIZE PUSH1 0x4 PUSH2 0x1B0 JUMP JUMPDEST PUSH2 0xE2 JUMP JUMPDEST PUSH1 0x40 MLOAD SWAP1 DUP2 MSTORE PUSH1 0x20 ADD PUSH1 0x40 MLOAD DUP1 SWAP2 SUB SWAP1 RETURN JUMPDEST PUSH2 0x8F PUSH2 0xC4 CALLDATASIZE PUSH1 0x4 PUSH2 0x1C9 JUMP JUMPDEST PUSH1 0x1 SWAP2 SWAP1 SWAP2 SSTORE PUSH1 0x2 SSTORE JUMP JUMPDEST PUSH2 0xA4 PUSH2 0xDD CALLDATASIZE PUSH1 0x4 PUSH2 0x1B0 JUMP JUMPDEST PUSH2 0x137 JUMP JUMPDEST PUSH1 0x0 DUP1 SLOAD PUSH1 0xFF AND ISZERO PUSH2 0x12F JUMPI PUSH1 0x40 MLOAD PUSH32 0x8C379A000000000000000000000000000000000000000000000000000000000 DUP2 MSTORE PUSH1 0x20 PUSH1 0x4 DUP3 ADD MSTORE PUSH1 0x0 PUSH1 0x24 DUP3 ADD MSTORE PUSH1 0x44 ADD JUMPDEST PUSH1 0x40 MLOAD DUP1 SWAP2 SUB SWAP1 REVERT JUMPDEST POP POP PUSH1 0x2 SLOAD SWAP1 JUMP JUMPDEST PUSH1 0x0 DUP1 SLOAD PUSH1 0xFF AND ISZERO PUSH2 0x17F JUMPI PUSH1 0x40 MLOAD PUSH32 0x8C379A000000000000000000000000000000000000000000000000000000000 DUP2 MSTORE PUSH1 0x20 PUSH1 0x4 DUP3 ADD MSTORE PUSH1 0x0 PUSH1 0x24 DUP3 ADD MSTORE PUSH1 0x44 ADD PUSH2 0x126 JUMP JUMPDEST POP POP PUSH1 0x1 SLOAD SWAP1 JUMP JUMPDEST PUSH1 0x0 PUSH1 0x20 DUP3 DUP5 SUB SLT ISZERO PUSH2 0x199 JUMPI PUSH1 0x0 DUP1 REVERT JUMPDEST DUP2 CALLDATALOAD DUP1 ISZERO ISZERO DUP2 EQ PUSH2 0x1A9 JUMPI PUSH1 0x0 DUP1 REVERT JUMPDEST SWAP4 SWAP3 POP POP POP JUMP JUMPDEST PUSH1 0x0 PUSH1 0x20 DUP3 DUP5 SUB SLT ISZERO PUSH2 0x1C2 JUMPI PUSH1 0x0 DUP1 REVERT JUMPDEST POP CALLDATALOAD SWAP2 SWAP1 POP JUMP JUMPDEST PUSH1 0x0 DUP1 PUSH1 0x40 DUP4 DUP6 SUB SLT ISZERO PUSH2 0x1DC JUMPI PUSH1 0x0 DUP1 REVERT JUMPDEST POP POP DUP1 CALLDATALOAD SWAP3 PUSH1 0x20 SWAP1 SWAP2 ADD CALLDATALOAD SWAP2 POP JUMP INVALID LOG2 PUSH5 0x6970667358 0x22 SLT KECCAK256 DIFFICULTY MLOAD 0x29 0xAE PUSH5 0x34DB04F4F7 0xB5 0xD3 0xC4 MULMOD 0xB3 0xC3 INVALID PUSH5 0x307F9C80C4 0xA6 CREATE2 EQ 0x22 PUSH13 0x3D1E77B064736F6C634300080A STOP CALLER "
        },
        "methodIdentifiers": {
          "getPooledEthByShares(uint256)": "7a28fb88",
          "getSharesByPooledEth(uint256)": "19208451",
          "mockSetData(uint256,uint256)": "3c703ca1",
          "mockSetRevert(bool)": "00b84fed"
        }
      }
    }
  }
}