{
  "_format": "hh-sol-artifact-1",
  "contractName": "MockUniswapV3Factory",
  "sourceName": "contracts/test/MockUniswapV3Factory.sol",
  "abi": [
    {
      "inputs": [
        {
          "internalType": "address",
          "name": "tokenA",
          "type": "address"
        },
        {
          "internalType": "address",
          "name": "tokenB",
          "type": "address"
        },
        {
          "internalType": "uint24",
          "name": "fee",
          "type": "uint24"
        }
      ],
      "name": "createPool",
      "outputs": [
        {
          "internalType": "address",
          "name": "pool",
          "type": "address"
        }
      ],
      "stateMutability": "nonpayable",
      "type": "function"
    },
    {
      "inputs": [
        {
          "internalType": "address",
          "name": "",
          "type": "address"
        },
        {
          "internalType": "address",
          "name": "",
          "type": "address"
        },
        {
          "internalType": "uint24",
          "name": "",
          "type": "uint24"
        }
      ],
      "name": "getPool",
      "outputs": [
        {
          "internalType": "address",
          "name": "",
          "type": "address"
        }
      ],
      "stateMutability": "view",
      "type": "function"
    },
    {
      "inputs": [],
      "name": "parameters",
      "outputs": [
        {
          "internalType": "address",
          "name": "factory",
          "type": "address"
        },
        {
          "internalType": "address",
          "name": "token0",
          "type": "address"
        },
        {
          "internalType": "address",
          "name": "token1",
          "type": "address"
        },
        {
          "internalType": "uint24",
          "name": "fee",
          "type": "uint24"
        },
        {
          "internalType": "int24",
          "name": "tickSpacing",
          "type": "int24"
        }
      ],
      "stateMutability": "view",
      "type": "function"
    },
    {
      "inputs": [
        {
          "internalType": "address",
          "name": "tokenA",
          "type": "address"
        },
        {
          "internalType": "address",
          "name": "tokenB",
          "type": "address"
        },
        {
          "internalType": "uint24",
          "name": "fee",
          "type": "uint24"
        },
        {
          "internalType": "address",
          "name": "newAddress",
          "type": "address"
        }
      ],
      "name": "setPoolAddress",
      "outputs": [],
      "stateMutability": "nonpayable",
      "type": "function"
    }
  ],
  "bytecode": "0x608060405234801561001057600080fd5b50611f2b806100206000396000f3fe608060405234801561001057600080fd5b506004361061004c5760003560e01c80631079a008146100515780631698ee821461006657806389035730146100d6578063a167129514610192575b600080fd5b61006461005f366004610637565b6101a5565b005b6100ac61007436600461068b565b6000602081815293815260408082208552928152828120909352825290205473ffffffffffffffffffffffffffffffffffffffff1681565b60405173ffffffffffffffffffffffffffffffffffffffff90911681526020015b60405180910390f35b600154600280546003546101449373ffffffffffffffffffffffffffffffffffffffff90811693928116929082169162ffffff740100000000000000000000000000000000000000008204169177010000000000000000000000000000000000000000000000909104900b85565b6040805173ffffffffffffffffffffffffffffffffffffffff96871681529486166020860152929094169183019190915262ffffff16606082015260029190910b608082015260a0016100cd565b6100ac6101a036600461068b565b610283565b6000808473ffffffffffffffffffffffffffffffffffffffff168673ffffffffffffffffffffffffffffffffffffffff16106101e25784866101e5565b85855b73ffffffffffffffffffffffffffffffffffffffff91821660008181526020818152604080832094861680845294825280832062ffffff909a168084529982528083208054969099167fffffffffffffffffffffffff00000000000000000000000000000000000000009687168117909955938252818152838220928252918252828120978152969052909420805490941690921790925550505050565b60008273ffffffffffffffffffffffffffffffffffffffff168473ffffffffffffffffffffffffffffffffffffffff1614156102be57600080fd5b6000808473ffffffffffffffffffffffffffffffffffffffff168673ffffffffffffffffffffffffffffffffffffffff16106102fb5784866102fe565b85855b909250905073ffffffffffffffffffffffffffffffffffffffff821661032357600080fd5b73ffffffffffffffffffffffffffffffffffffffff8281166000908152602081815260408083208585168452825280832062ffffff89168452909152902054161561036d57600080fd5b61037b308383876000610417565b73ffffffffffffffffffffffffffffffffffffffff92831660008181526020818152604080832095871680845295825280832062ffffff90991680845298825280832080549786167fffffffffffffffffffffffff000000000000000000000000000000000000000098891681179091559583528282528083209383529281528282209782529690965290942080549092161790555092915050565b6040805160a08101825273ffffffffffffffffffffffffffffffffffffffff878116808352878216602080850182905292881684860181905262ffffff888116606080880182905260028a810b6080998a0152600180547fffffffffffffffffffffffff0000000000000000000000000000000000000000908116909817905580549096168517909555600380547fffffffffffffffffff0000000000000000000000000000000000000000000000168417740100000000000000000000000000000000000000008302177fffffffffffff000000ffffffffffffffffffffffffffffffffffffffffffffff1677010000000000000000000000000000000000000000000000938b169390930292909217909155865194850192909252948301949094528101929092526000910160405160208183030381529060405280519060200120604051610567906105ee565b8190604051809103906000f5905080158015610587573d6000803e3d6000fd5b50600180547fffffffffffffffffffffffff0000000000000000000000000000000000000000908116909155600280549091169055600380547fffffffffffff00000000000000000000000000000000000000000000000000001690559695505050505050565b611827806106cf83390190565b803573ffffffffffffffffffffffffffffffffffffffff8116811461061f57600080fd5b919050565b803562ffffff8116811461061f57600080fd5b6000806000806080858703121561064d57600080fd5b610656856105fb565b9350610664602086016105fb565b925061067260408601610624565b9150610680606086016105fb565b905092959194509250565b6000806000606084860312156106a057600080fd5b6106a9846105fb565b92506106b7602085016105fb565b91506106c560408501610624565b9050925092509256fe610100604052600180546001600160801b03191660641790553480156200002557600080fd5b50336001600160a01b031663890357306040518163ffffffff1660e01b815260040160a060405180830381865afa15801562000065573d6000803e3d6000fd5b505050506040513d601f19601f820116820180604052508101906200008b9190620000cf565b5062ffffff1660e0526001600160a01b0390811660c05290811660a0521660805262000153565b80516001600160a01b0381168114620000ca57600080fd5b919050565b600080600080600060a08688031215620000e857600080fd5b620000f386620000b2565b94506200010360208701620000b2565b93506200011360408701620000b2565b9250606086015162ffffff811681146200012c57600080fd5b8092505060808601518060020b81146200014557600080fd5b809150509295509295909350565b60805160a05160c05160e05161169a6200018d600039600061043a015260006104130152600061010a01526000610390015261169a6000f3fe608060405234801561001057600080fd5b50600436106101005760003560e01c8063883bdbfd11610097578063ddca3f4311610066578063ddca3f4314610435578063eaffb07814610470578063f38e183814610483578063f637731d146104de57600080fd5b8063883bdbfd1461036a578063c45a01551461038b578063cd44c831146103b2578063d21220a71461040e57600080fd5b80633850c7bd116100d35780633850c7bd1461020a5780634c59639e1461025e57806362cc7790146102af5780637c5ce3c61461030c57600080fd5b80630dfe1681146101055780631a68650214610156578063252c09d71461019357806332148f67146101f5575b600080fd5b61012c7f000000000000000000000000000000000000000000000000000000000000000081565b60405173ffffffffffffffffffffffffffffffffffffffff90911681526020015b60405180910390f35b600154610172906fffffffffffffffffffffffffffffffff1681565b6040516fffffffffffffffffffffffffffffffff909116815260200161014d565b6101ae6101a136600461132d565b6000808060019193509193565b6040805163ffffffff909516855260069390930b602085015273ffffffffffffffffffffffffffffffffffffffff909116918301919091521515606082015260800161014d565b610208610203366004611346565b6104f1565b005b600080546040805173ffffffffffffffffffffffffffffffffffffffff909216825260208201839052600190820181905260608201819052608082015260a0810182905260c081019190915260e00161014d565b61020861026c366004611371565b600180547fffffffffffffffffffffffffffffffff00000000000000000000000000000000166fffffffffffffffffffffffffffffffff92909216919091179055565b6102086102bd3660046113a3565b60008054911515790100000000000000000000000000000000000000000000000000027fffffffffffff00ffffffffffffffffffffffffffffffffffffffffffffffffff909216919091179055565b61020861031a3660046113a3565b600080549115157a010000000000000000000000000000000000000000000000000000027fffffffffff00ffffffffffffffffffffffffffffffffffffffffffffffffffff909216919091179055565b61037d6103783660046113c5565b61068a565b60405161014d92919061143a565b61012c7f000000000000000000000000000000000000000000000000000000000000000081565b6102086103c03660046113a3565b600080549115157801000000000000000000000000000000000000000000000000027fffffffffffffff00ffffffffffffffffffffffffffffffffffffffffffffffff909216919091179055565b61012c7f000000000000000000000000000000000000000000000000000000000000000081565b61045c7f000000000000000000000000000000000000000000000000000000000000000081565b60405162ffffff909116815260200161014d565b61020861047e3660046114ce565b610b2e565b6102086104913660046113a3565b6000805491151577010000000000000000000000000000000000000000000000027fffffffffffffffff00ffffffffffffffffffffffffffffffffffffffffffffff909216919091179055565b6102086104ec3660046114ce565b610bc7565b6000547801000000000000000000000000000000000000000000000000900460ff161561057f576040517f08c379a000000000000000000000000000000000000000000000000000000000815260206004820152600360248201527f4c4f4b000000000000000000000000000000000000000000000000000000000060448201526064015b60405180910390fd5b600054790100000000000000000000000000000000000000000000000000900460ff1615610609576040517f08c379a000000000000000000000000000000000000000000000000000000000815260206004820152600560248201527f4f544845520000000000000000000000000000000000000000000000000000006044820152606401610576565b6000547a010000000000000000000000000000000000000000000000000000900460ff161561063757600080fd5b50600080547fffffffffffffff00ffffffffffffffffffffffffffffffffffffffffffffffff811678010000000000000000000000000000000000000000000000009182900460ff161515909102179055565b600054606090819077010000000000000000000000000000000000000000000000900460ff1615610717576040517f08c379a000000000000000000000000000000000000000000000000000000000815260206004820152600360248201527f4f4c4400000000000000000000000000000000000000000000000000000000006044820152606401610576565b600054790100000000000000000000000000000000000000000000000000900460ff16156107a1576040517f08c379a000000000000000000000000000000000000000000000000000000000815260206004820152600560248201527f4f544845520000000000000000000000000000000000000000000000000000006044820152606401610576565b60028314610830576040517f08c379a0000000000000000000000000000000000000000000000000000000008152602060048201526024808201527f756e69737761702d706f6f6c2d6d6f636b2f756e737570706f727465642d617260448201527f67732d31000000000000000000000000000000000000000000000000000000006064820152608401610576565b8383600181811061084357610843611504565b90506020020160208101906108589190611533565b63ffffffff16156108ea576040517f08c379a0000000000000000000000000000000000000000000000000000000008152602060048201526024808201527f756e69737761702d706f6f6c2d6d6f636b2f756e737570706f727465642d617260448201527f67732d32000000000000000000000000000000000000000000000000000000006064820152608401610576565b6000848460008181106108ff576108ff611504565b90506020020160208101906109149190611533565b63ffffffff16116109a6576040517f08c379a0000000000000000000000000000000000000000000000000000000008152602060048201526024808201527f756e69737761702d706f6f6c2d6d6f636b2f756e737570706f727465642d617260448201527f67732d33000000000000000000000000000000000000000000000000000000006064820152608401610576565b604080516002808252606082018352909160208301908036833750506040805160028082526060820183529395509291506020830190803683370190505090506000826000815181106109fb576109fb611504565b602002602001019060060b908160060b8152505083836000818110610a2257610a22611504565b9050602002016020810190610a379190611533565b600054610a659163ffffffff169074010000000000000000000000000000000000000000900460020b611588565b82600181518110610a7857610a78611504565b602002602001019060060b908160060b81525050600081600181518110610aa157610aa1611504565b602002602001019073ffffffffffffffffffffffffffffffffffffffff16908173ffffffffffffffffffffffffffffffffffffffff1681525081600081518110610aed57610aed611504565b602002602001019073ffffffffffffffffffffffffffffffffffffffff16908173ffffffffffffffffffffffffffffffffffffffff16815250509250929050565b600080547fffffffffffffffffffffffff00000000000000000000000000000000000000001673ffffffffffffffffffffffffffffffffffffffff8316179055610b7781610bd3565b6000805462ffffff9290921674010000000000000000000000000000000000000000027fffffffffffffffffff000000ffffffffffffffffffffffffffffffffffffffff90921691909117905550565b610bd081610b2e565b50565b60006401000276a373ffffffffffffffffffffffffffffffffffffffff831610801590610c29575073fffd8963efd1fc6a506488495d951d5263988d2673ffffffffffffffffffffffffffffffffffffffff8316105b610c8f576040517f08c379a000000000000000000000000000000000000000000000000000000000815260206004820152600160248201527f52000000000000000000000000000000000000000000000000000000000000006044820152606401610576565b77ffffffffffffffffffffffffffffffffffffffff00000000602083901b166fffffffffffffffffffffffffffffffff811160071b81811c67ffffffffffffffff811160061b90811c63ffffffff811160051b90811c61ffff811160041b90811c60ff8111600390811b91821c600f811160021b90811c918211600190811b92831c97908811961790941790921717909117171760808110610d3957607f810383901c9150610d43565b80607f0383901b91505b908002607f81811c60ff83811c9190911c800280831c81831c1c800280841c81841c1c800280851c81851c1c800280861c81861c1c800280871c81871c1c800280881c81881c1c800280891c81891c1c8002808a1c818a1c1c8002808b1c818b1c1c8002808c1c818c1c1c8002808d1c818d1c1c8002808e1c9c81901c9c909c1c80029c8d901c9e9d7fffffffffffffffffffffffffffffffffffffffffffffffffffffffffffffff808f0160401b60c09190911c678000000000000000161760c19b909b1c674000000000000000169a909a1760c29990991c672000000000000000169890981760c39790971c671000000000000000169690961760c49590951c670800000000000000169490941760c59390931c670400000000000000169290921760c69190911c670200000000000000161760c79190911c670100000000000000161760c89190911c6680000000000000161760c99190911c6640000000000000161760ca9190911c6620000000000000161760cb9190911c6610000000000000161760cc9190911c6608000000000000161760cd9190911c66040000000000001617693627a301d71055774c8581027ffffffffffffffffffffffffffffffffffd709b7e5480fba5a50fed5e62ffc5568101608090811d906fdb2df09e81959a81455e260799a0632f8301901d600281810b9083900b14610f8a578873ffffffffffffffffffffffffffffffffffffffff16610f6282610f99565b73ffffffffffffffffffffffffffffffffffffffff161115610f845781610f8c565b80610f8c565b815b9998505050505050505050565b60008060008360020b12610fb0578260020b610fb8565b8260020b6000035b9050620d89e8811115611027576040517f08c379a000000000000000000000000000000000000000000000000000000000815260206004820152600160248201527f54000000000000000000000000000000000000000000000000000000000000006044820152606401610576565b6000600182166110485770010000000000000000000000000000000061105a565b6ffffcb933bd6fad37aa2d162d1a5940015b70ffffffffffffffffffffffffffffffffff169050600282161561108e576ffff97272373d413259a46990580e213a0260801c5b60048216156110ad576ffff2e50f5f656932ef12357cf3c7fdcc0260801c5b60088216156110cc576fffe5caca7e10e4e61c3624eaa0941cd00260801c5b60108216156110eb576fffcb9843d60f6159c9db58835c9266440260801c5b602082161561110a576fff973b41fa98c081472e6896dfb254c00260801c5b6040821615611129576fff2ea16466c96a3843ec78b326b528610260801c5b6080821615611148576ffe5dee046a99a2a811c461f1969c30530260801c5b610100821615611168576ffcbe86c7900a88aedcffc83b479aa3a40260801c5b610200821615611188576ff987a7253ac413176f2b074cf7815e540260801c5b6104008216156111a8576ff3392b0822b70005940c7a398e4b70f30260801c5b6108008216156111c8576fe7159475a2c29b7443b29c7fa6e889d90260801c5b6110008216156111e8576fd097f3bdfd2022b8845ad8f792aa58250260801c5b612000821615611208576fa9f746462d870fdf8a65dc1f90e061e50260801c5b614000821615611228576f70d869a156d2a1b890bb3df62baf32f70260801c5b618000821615611248576f31be135f97d08fd981231505542fcfa60260801c5b62010000821615611269576f09aa508b5b7a84e1c677de54f3e99bc90260801c5b62020000821615611289576e5d6af8dedb81196699c329225ee6040260801c5b620400008216156112a8576d2216e584f5fa1ea926041bedfe980260801c5b620800008216156112c5576b048a170391f7dc42444e8fa20260801c5b60008460020b131561130457807fffffffffffffffffffffffffffffffffffffffffffffffffffffffffffffffff8161130057611300611635565b0490505b64010000000081061561131857600161131b565b60005b60ff16602082901c0192505050919050565b60006020828403121561133f57600080fd5b5035919050565b60006020828403121561135857600080fd5b813561ffff8116811461136a57600080fd5b9392505050565b60006020828403121561138357600080fd5b81356fffffffffffffffffffffffffffffffff8116811461136a57600080fd5b6000602082840312156113b557600080fd5b8135801515811461136a57600080fd5b600080602083850312156113d857600080fd5b823567ffffffffffffffff808211156113f057600080fd5b818501915085601f83011261140457600080fd5b81358181111561141357600080fd5b8660208260051b850101111561142857600080fd5b60209290920196919550909350505050565b604080825283519082018190526000906020906060840190828701845b8281101561147657815160060b84529284019290840190600101611457565b5050508381038285015284518082528583019183019060005b818110156114c157835173ffffffffffffffffffffffffffffffffffffffff168352928401929184019160010161148f565b5090979650505050505050565b6000602082840312156114e057600080fd5b813573ffffffffffffffffffffffffffffffffffffffff8116811461136a57600080fd5b7f4e487b7100000000000000000000000000000000000000000000000000000000600052603260045260246000fd5b60006020828403121561154557600080fd5b813563ffffffff8116811461136a57600080fd5b7f4e487b7100000000000000000000000000000000000000000000000000000000600052601160045260246000fd5b60008160060b8360060b667fffffffffffff6000821360008413838304851182821616156115b8576115b8611559565b7fffffffffffffffffffffffffffffffffffffffffffffffffff8000000000000060008512868205861281841616156115f3576115f3611559565b6000871292508582058712848416161561160f5761160f611559565b8585058712818416161561162557611625611559565b5050509290910295945050505050565b7f4e487b7100000000000000000000000000000000000000000000000000000000600052601260045260246000fdfea264697066735822122041ffc75c324549984f77521562e019653a3d6055fd00ed279e6496f5530f536764736f6c634300080a0033a264697066735822122045dd8aa6766539596286b3ea96f7d6d640ee571fd828af073d3ff3887198635d64736f6c634300080a0033",
  "linkReferences": {},
  "deployedLinkReferences": {}
}