{
  "_format": "hh-sol-artifact-1",
  "contractName": "FlashLoanNativeTest",
  "sourceName": "contracts/test/FlashLoanNativeTest.sol",
  "abi": [
    {
      "inputs": [
        {
          "internalType": "bytes",
          "name": "encodedData",
          "type": "bytes"
        }
      ],
      "name": "onDeferredLiquidityCheck",
      "outputs": [],
      "stateMutability": "nonpayable",
      "type": "function"
    },
    {
      "inputs": [
        {
          "internalType": "bytes",
          "name": "data",
          "type": "bytes"
        }
      ],
      "name": "onFlashLoan",
      "outputs": [],
      "stateMutability": "nonpayable",
      "type": "function"
    },
    {
      "inputs": [
        {
          "components": [
            {
              "internalType": "address",
              "name": "eulerAddr",
              "type": "address"
            },
            {
              "internalType": "address",
              "name": "marketsAddr",
              "type": "address"
            },
            {
              "internalType": "address",
              "name": "execAddr",
              "type": "address"
            },
            {
              "internalType": "address",
              "name": "underlying",
              "type": "address"
            },
            {
              "internalType": "uint256",
              "name": "amount",
              "type": "uint256"
            },
            {
              "internalType": "bool",
              "name": "payItBack",
              "type": "bool"
            }
          ],
          "internalType": "struct FlashLoanNativeTest.CallbackData",
          "name": "data",
          "type": "tuple"
        }
      ],
      "name": "testFlashLoan",
      "outputs": [],
      "stateMutability": "nonpayable",
      "type": "function"
    },
    {
      "inputs": [
        {
          "internalType": "address",
          "name": "underlying",
          "type": "address"
        },
        {
          "internalType": "address",
          "name": "dTokenAddr",
          "type": "address"
        },
        {
          "internalType": "address",
          "name": "eulerAddr",
          "type": "address"
        },
        {
          "internalType": "uint256",
          "name": "amount",
          "type": "uint256"
        },
        {
          "internalType": "uint256",
          "name": "repayAmount",
          "type": "uint256"
        }
      ],
      "name": "testFlashLoan2",
      "outputs": [],
      "stateMutability": "nonpayable",
      "type": "function"
    }
  ],
  "bytecode": "0x608060405234801561001057600080fd5b50610e35806100206000396000f3fe608060405234801561001057600080fd5b506004361061004c5760003560e01c80633ce13e7514610051578063a15db5c514610066578063c4850ea814610079578063fee5215f1461008c575b600080fd5b61006461005f366004610966565b61009f565b005b6100646100743660046109f0565b610155565b610064610087366004610abf565b6107e9565b61006461009a366004610b31565b6108a3565b6040805173ffffffffffffffffffffffffffffffffffffffff87811660208301528581168284015260608083018590528351808403909101815260808301938490527f5296a43100000000000000000000000000000000000000000000000000000000909352861691635296a4319161011c918691608401610bb4565b600060405180830381600087803b15801561013657600080fd5b505af115801561014a573d6000803e3d6000fd5b505050505050505050565b60008180602001905181019061016b9190610be3565b602081015160608201516040517f1b30058200000000000000000000000000000000000000000000000000000000815273ffffffffffffffffffffffffffffffffffffffff9182166004820152929350600092911690631b30058290602401602060405180830381865afa1580156101e7573d6000803e3d6000fd5b505050506040513d601f19601f8201168201806040525081019061020b9190610c85565b60808301516040517f0ecbcdab000000000000000000000000000000000000000000000000000000008152600060048201526024810191909152909150819073ffffffffffffffffffffffffffffffffffffffff821690630ecbcdab90604401600060405180830381600087803b15801561028557600080fd5b505af1158015610299573d6000803e3d6000fd5b505050608084015160608501516040517f70a0823100000000000000000000000000000000000000000000000000000000815230600482015291925073ffffffffffffffffffffffffffffffffffffffff16906370a0823190602401602060405180830381865afa158015610312573d6000803e3d6000fd5b505050506040513d601f19601f820116820180604052508101906103369190610ca9565b146103a2576040517f08c379a000000000000000000000000000000000000000000000000000000000815260206004820152601960248201527f6469646e2774207265636569766520756e6465726c79696e670000000000000060448201526064015b60405180910390fd5b60808301516040517f70a0823100000000000000000000000000000000000000000000000000000000815230600482015273ffffffffffffffffffffffffffffffffffffffff8316906370a0823190602401602060405180830381865afa158015610411573d6000803e3d6000fd5b505050506040513d601f19601f820116820180604052508101906104359190610ca9565b1461049c576040517f08c379a000000000000000000000000000000000000000000000000000000000815260206004820152601660248201527f6469646e277420726563656976652064546f6b656e73000000000000000000006044820152606401610399565b8260a00151156107e357606083015183516040517f095ea7b300000000000000000000000000000000000000000000000000000000815273ffffffffffffffffffffffffffffffffffffffff91821660048201527fffffffffffffffffffffffffffffffffffffffffffffffffffffffffffffffff602482015291169063095ea7b3906044016020604051808303816000875af1158015610541573d6000803e3d6000fd5b505050506040513d601f19601f820116820180604052508101906105659190610cc2565b5060808301516040517fd8aed14500000000000000000000000000000000000000000000000000000000815260006004820152602481019190915273ffffffffffffffffffffffffffffffffffffffff82169063d8aed14590604401600060405180830381600087803b1580156105db57600080fd5b505af11580156105ef573d6000803e3d6000fd5b50505060608401516040517f70a0823100000000000000000000000000000000000000000000000000000000815230600482015273ffffffffffffffffffffffffffffffffffffffff90911691506370a0823190602401602060405180830381865afa158015610663573d6000803e3d6000fd5b505050506040513d601f19601f820116820180604052508101906106879190610ca9565b156106ee576040517f08c379a000000000000000000000000000000000000000000000000000000000815260206004820152601760248201527f6469646e277420726570617920756e6465726c79696e670000000000000000006044820152606401610399565b6040517f70a0823100000000000000000000000000000000000000000000000000000000815230600482015273ffffffffffffffffffffffffffffffffffffffff8216906370a0823190602401602060405180830381865afa158015610758573d6000803e3d6000fd5b505050506040513d601f19601f8201168201806040525081019061077c9190610ca9565b156107e3576040517f08c379a000000000000000000000000000000000000000000000000000000000815260206004820152601360248201527f6469646e2774206275726e2064546f6b656e73000000000000000000000000006044820152606401610399565b50505050565b600080806107f984860186610cdf565b6040517fa9059cbb00000000000000000000000000000000000000000000000000000000815273ffffffffffffffffffffffffffffffffffffffff80841660048301526024820183905293965091945092509084169063a9059cbb906044016020604051808303816000875af1158015610877573d6000803e3d6000fd5b505050506040513d601f19601f8201168201806040525081019061089b9190610cc2565b505050505050565b6108b36060820160408301610d20565b73ffffffffffffffffffffffffffffffffffffffff166389b7b7a630836040516020016108e09190610d3d565b6040516020818303038152906040526040518363ffffffff1660e01b815260040161090c929190610dd0565b600060405180830381600087803b15801561092657600080fd5b505af115801561093a573d6000803e3d6000fd5b5050505050565b73ffffffffffffffffffffffffffffffffffffffff8116811461096357600080fd5b50565b600080600080600060a0868803121561097e57600080fd5b853561098981610941565b9450602086013561099981610941565b935060408601356109a981610941565b94979396509394606081013594506080013592915050565b7f4e487b7100000000000000000000000000000000000000000000000000000000600052604160045260246000fd5b600060208284031215610a0257600080fd5b813567ffffffffffffffff80821115610a1a57600080fd5b818401915084601f830112610a2e57600080fd5b813581811115610a4057610a406109c1565b604051601f82017fffffffffffffffffffffffffffffffffffffffffffffffffffffffffffffffe0908116603f01168101908382118183101715610a8657610a866109c1565b81604052828152876020848701011115610a9f57600080fd5b826020860160208301376000928101602001929092525095945050505050565b60008060208385031215610ad257600080fd5b823567ffffffffffffffff80821115610aea57600080fd5b818501915085601f830112610afe57600080fd5b813581811115610b0d57600080fd5b866020828501011115610b1f57600080fd5b60209290920196919550909350505050565b600060c08284031215610b4357600080fd5b50919050565b6000815180845260005b81811015610b6f57602081850181015186830182015201610b53565b81811115610b81576000602083870101525b50601f017fffffffffffffffffffffffffffffffffffffffffffffffffffffffffffffffe0169290920160200192915050565b828152604060208201526000610bcd6040830184610b49565b949350505050565b801515811461096357600080fd5b600060c08284031215610bf557600080fd5b60405160c0810181811067ffffffffffffffff82111715610c1857610c186109c1565b6040528251610c2681610941565b81526020830151610c3681610941565b60208201526040830151610c4981610941565b60408201526060830151610c5c81610941565b60608201526080838101519082015260a0830151610c7981610bd5565b60a08201529392505050565b600060208284031215610c9757600080fd5b8151610ca281610941565b9392505050565b600060208284031215610cbb57600080fd5b5051919050565b600060208284031215610cd457600080fd5b8151610ca281610bd5565b600080600060608486031215610cf457600080fd5b8335610cff81610941565b92506020840135610d0f81610941565b929592945050506040919091013590565b600060208284031215610d3257600080fd5b8135610ca281610941565b60c081018235610d4c81610941565b73ffffffffffffffffffffffffffffffffffffffff9081168352602084013590610d7582610941565b9081166020840152604084013590610d8c82610941565b9081166040840152606084013590610da382610941565b1660608301526080838101359083015260a0830135610dc181610bd5565b80151560a08401525092915050565b73ffffffffffffffffffffffffffffffffffffffff83168152604060208201526000610bcd6040830184610b4956fea264697066735822122001d1db243b4a0de7fb349aaf15c464dca322797f2cabf8d429684dcf2a4769fe64736f6c634300080a0033",
  "linkReferences": {},
  "deployedLinkReferences": {}
}