{
  "_format": "hh-sol-artifact-1",
  "contractName": "WSTETHOracle",
  "sourceName": "contracts/oracles/WSTETHOracle.sol",
  "abi": [
    {
      "inputs": [
        {
          "internalType": "address",
          "name": "_stETH",
          "type": "address"
        },
        {
          "internalType": "address",
          "name": "_chainlinkAggregator",
          "type": "address"
        }
      ],
      "stateMutability": "nonpayable",
      "type": "constructor"
    },
    {
      "inputs": [],
      "name": "chainlinkAggregator",
      "outputs": [
        {
          "internalType": "address",
          "name": "",
          "type": "address"
        }
      ],
      "stateMutability": "view",
      "type": "function"
    },
    {
      "inputs": [],
      "name": "decimals",
      "outputs": [
        {
          "internalType": "uint8",
          "name": "",
          "type": "uint8"
        }
      ],
      "stateMutability": "pure",
      "type": "function"
    },
    {
      "inputs": [],
      "name": "description",
      "outputs": [
        {
          "internalType": "string",
          "name": "",
          "type": "string"
        }
      ],
      "stateMutability": "pure",
      "type": "function"
    },
    {
      "inputs": [],
      "name": "latestAnswer",
      "outputs": [
        {
          "internalType": "int256",
          "name": "answer",
          "type": "int256"
        }
      ],
      "stateMutability": "view",
      "type": "function"
    },
    {
      "inputs": [],
      "name": "latestTimestamp",
      "outputs": [
        {
          "internalType": "uint256",
          "name": "",
          "type": "uint256"
        }
      ],
      "stateMutability": "view",
      "type": "function"
    },
    {
      "inputs": [],
      "name": "stETH",
      "outputs": [
        {
          "internalType": "address",
          "name": "",
          "type": "address"
        }
      ],
      "stateMutability": "view",
      "type": "function"
    }
  ],
  "bytecode": "0x60c060405234801561001057600080fd5b5060405161067e38038061067e83398101604081905261002f91610062565b6001600160a01b039182166080521660a052610095565b80516001600160a01b038116811461005d57600080fd5b919050565b6000806040838503121561007557600080fd5b61007e83610046565b915061008c60208401610046565b90509250929050565b60805160a0516105b06100ce6000396000818160900152818161016001526102e2015260008181610139015261023801526105b06000f3fe608060405234801561001057600080fd5b50600436106100725760003560e01c80637284e416116100505780637284e416146100ed5780638205bf6a1461012c578063c1fe3e481461013457600080fd5b8063313ce567146100775780635004d36c1461008b57806350d25bcd146100d7575b600080fd5b604051601281526020015b60405180910390f35b6100b27f000000000000000000000000000000000000000000000000000000000000000081565b60405173ffffffffffffffffffffffffffffffffffffffff9091168152602001610082565b6100df61015b565b604051908152602001610082565b604080518082018252600a81527f5753544554482f45544800000000000000000000000000000000000000000000602082015290516100829190610374565b6100df6102de565b6100b27f000000000000000000000000000000000000000000000000000000000000000081565b6000807f000000000000000000000000000000000000000000000000000000000000000073ffffffffffffffffffffffffffffffffffffffff166350d25bcd6040518163ffffffff1660e01b8152600401602060405180830381865afa1580156101c9573d6000803e3d6000fd5b505050506040513d601f19601f820116820180604052508101906101ed91906103e7565b9050600081136101ff57600091505090565b6040517f7a28fb88000000000000000000000000000000000000000000000000000000008152670de0b6b3a764000060048201526000907f000000000000000000000000000000000000000000000000000000000000000073ffffffffffffffffffffffffffffffffffffffff1690637a28fb8890602401602060405180830381865afa158015610294573d6000803e3d6000fd5b505050506040513d601f19601f820116820180604052508101906102b891906103e7565b9050670de0b6b3a76400006102cd838361042f565b6102d791906104eb565b9250505090565b60007f000000000000000000000000000000000000000000000000000000000000000073ffffffffffffffffffffffffffffffffffffffff16638205bf6a6040518163ffffffff1660e01b8152600401602060405180830381865afa15801561034b573d6000803e3d6000fd5b505050506040513d601f19601f8201168201806040525081019061036f91906103e7565b905090565b600060208083528351808285015260005b818110156103a157858101830151858201604001528201610385565b818111156103b3576000604083870101525b50601f017fffffffffffffffffffffffffffffffffffffffffffffffffffffffffffffffe016929092016040019392505050565b6000602082840312156103f957600080fd5b5051919050565b7f4e487b7100000000000000000000000000000000000000000000000000000000600052601160045260246000fd5b60007f7fffffffffffffffffffffffffffffffffffffffffffffffffffffffffffffff60008413600084138583048511828216161561047057610470610400565b7f800000000000000000000000000000000000000000000000000000000000000060008712868205881281841616156104ab576104ab610400565b600087129250878205871284841616156104c7576104c7610400565b878505871281841616156104dd576104dd610400565b505050929093029392505050565b600082610521577f4e487b7100000000000000000000000000000000000000000000000000000000600052601260045260246000fd5b7fffffffffffffffffffffffffffffffffffffffffffffffffffffffffffffffff83147f80000000000000000000000000000000000000000000000000000000000000008314161561057557610575610400565b50059056fea26469706673582212206dd788a718c38e17571278ef8fedfdd1878d6e5bbf5a685b9f944457d04fa9ba64736f6c634300080a0033",
  "linkReferences": {},
  "deployedLinkReferences": {}
}