{
  "_format": "hh-sol-artifact-1",
  "contractName": "TestERC20",
  "sourceName": "contracts/test/TestERC20.sol",
  "abi": [
    {
      "inputs": [
        {
          "internalType": "string",
          "name": "name_",
          "type": "string"
        },
        {
          "internalType": "string",
          "name": "symbol_",
          "type": "string"
        },
        {
          "internalType": "uint8",
          "name": "decimals_",
          "type": "uint8"
        },
        {
          "internalType": "bool",
          "name": "secureMode_",
          "type": "bool"
        }
      ],
      "stateMutability": "nonpayable",
      "type": "constructor"
    },
    {
      "anonymous": false,
      "inputs": [
        {
          "indexed": true,
          "internalType": "address",
          "name": "owner",
          "type": "address"
        },
        {
          "indexed": true,
          "internalType": "address",
          "name": "spender",
          "type": "address"
        },
        {
          "indexed": false,
          "internalType": "uint256",
          "name": "value",
          "type": "uint256"
        }
      ],
      "name": "Approval",
      "type": "event"
    },
    {
      "anonymous": false,
      "inputs": [
        {
          "indexed": true,
          "internalType": "address",
          "name": "from",
          "type": "address"
        },
        {
          "indexed": true,
          "internalType": "address",
          "name": "to",
          "type": "address"
        },
        {
          "indexed": false,
          "internalType": "uint256",
          "name": "value",
          "type": "uint256"
        }
      ],
      "name": "Transfer",
      "type": "event"
    },
    {
      "inputs": [],
      "name": "DOMAIN_SEPARATOR",
      "outputs": [
        {
          "internalType": "bytes32",
          "name": "",
          "type": "bytes32"
        }
      ],
      "stateMutability": "view",
      "type": "function"
    },
    {
      "inputs": [],
      "name": "DOMAIN_TYPEHASH",
      "outputs": [
        {
          "internalType": "bytes32",
          "name": "",
          "type": "bytes32"
        }
      ],
      "stateMutability": "view",
      "type": "function"
    },
    {
      "inputs": [],
      "name": "PERMIT_TYPEHASH",
      "outputs": [
        {
          "internalType": "bytes32",
          "name": "",
          "type": "bytes32"
        }
      ],
      "stateMutability": "view",
      "type": "function"
    },
    {
      "inputs": [
        {
          "internalType": "address",
          "name": "",
          "type": "address"
        },
        {
          "internalType": "address",
          "name": "",
          "type": "address"
        }
      ],
      "name": "allowance",
      "outputs": [
        {
          "internalType": "uint256",
          "name": "",
          "type": "uint256"
        }
      ],
      "stateMutability": "view",
      "type": "function"
    },
    {
      "inputs": [
        {
          "internalType": "address",
          "name": "spender",
          "type": "address"
        },
        {
          "internalType": "uint256",
          "name": "amount",
          "type": "uint256"
        }
      ],
      "name": "approve",
      "outputs": [],
      "stateMutability": "nonpayable",
      "type": "function"
    },
    {
      "inputs": [
        {
          "internalType": "address",
          "name": "account",
          "type": "address"
        }
      ],
      "name": "balanceOf",
      "outputs": [
        {
          "internalType": "uint256",
          "name": "",
          "type": "uint256"
        }
      ],
      "stateMutability": "view",
      "type": "function"
    },
    {
      "inputs": [
        {
          "internalType": "address",
          "name": "",
          "type": "address"
        }
      ],
      "name": "balances",
      "outputs": [
        {
          "internalType": "uint256",
          "name": "",
          "type": "uint256"
        }
      ],
      "stateMutability": "view",
      "type": "function"
    },
    {
      "inputs": [
        {
          "internalType": "string",
          "name": "name_",
          "type": "string"
        }
      ],
      "name": "behaviour",
      "outputs": [
        {
          "internalType": "bool",
          "name": "",
          "type": "bool"
        },
        {
          "internalType": "bytes",
          "name": "",
          "type": "bytes"
        }
      ],
      "stateMutability": "view",
      "type": "function"
    },
    {
      "inputs": [],
      "name": "callSelfDestruct",
      "outputs": [],
      "stateMutability": "nonpayable",
      "type": "function"
    },
    {
      "inputs": [
        {
          "internalType": "uint8",
          "name": "decimals_",
          "type": "uint8"
        }
      ],
      "name": "changeDecimals",
      "outputs": [],
      "stateMutability": "nonpayable",
      "type": "function"
    },
    {
      "inputs": [
        {
          "internalType": "address",
          "name": "newOwner",
          "type": "address"
        }
      ],
      "name": "changeOwner",
      "outputs": [],
      "stateMutability": "nonpayable",
      "type": "function"
    },
    {
      "inputs": [
        {
          "internalType": "string",
          "name": "name_",
          "type": "string"
        },
        {
          "internalType": "bytes",
          "name": "data_",
          "type": "bytes"
        }
      ],
      "name": "configure",
      "outputs": [],
      "stateMutability": "nonpayable",
      "type": "function"
    },
    {
      "inputs": [],
      "name": "decimals",
      "outputs": [
        {
          "internalType": "uint8",
          "name": "",
          "type": "uint8"
        }
      ],
      "stateMutability": "view",
      "type": "function"
    },
    {
      "inputs": [
        {
          "internalType": "address",
          "name": "who",
          "type": "address"
        },
        {
          "internalType": "uint256",
          "name": "amount",
          "type": "uint256"
        }
      ],
      "name": "mint",
      "outputs": [],
      "stateMutability": "nonpayable",
      "type": "function"
    },
    {
      "inputs": [],
      "name": "name",
      "outputs": [
        {
          "internalType": "string",
          "name": "n",
          "type": "string"
        }
      ],
      "stateMutability": "view",
      "type": "function"
    },
    {
      "inputs": [
        {
          "internalType": "address",
          "name": "",
          "type": "address"
        }
      ],
      "name": "nonces",
      "outputs": [
        {
          "internalType": "uint256",
          "name": "",
          "type": "uint256"
        }
      ],
      "stateMutability": "view",
      "type": "function"
    },
    {
      "inputs": [
        {
          "internalType": "address",
          "name": "holder",
          "type": "address"
        },
        {
          "internalType": "address",
          "name": "spender",
          "type": "address"
        },
        {
          "internalType": "uint256",
          "name": "nonce",
          "type": "uint256"
        },
        {
          "internalType": "uint256",
          "name": "expiry",
          "type": "uint256"
        },
        {
          "internalType": "bool",
          "name": "allowed",
          "type": "bool"
        },
        {
          "internalType": "uint8",
          "name": "v",
          "type": "uint8"
        },
        {
          "internalType": "bytes32",
          "name": "r",
          "type": "bytes32"
        },
        {
          "internalType": "bytes32",
          "name": "s",
          "type": "bytes32"
        }
      ],
      "name": "permit",
      "outputs": [],
      "stateMutability": "nonpayable",
      "type": "function"
    },
    {
      "inputs": [
        {
          "internalType": "address",
          "name": "holder",
          "type": "address"
        },
        {
          "internalType": "address",
          "name": "spender",
          "type": "address"
        },
        {
          "internalType": "uint256",
          "name": "value",
          "type": "uint256"
        },
        {
          "internalType": "uint256",
          "name": "deadline",
          "type": "uint256"
        },
        {
          "internalType": "bytes",
          "name": "signature",
          "type": "bytes"
        }
      ],
      "name": "permit",
      "outputs": [],
      "stateMutability": "nonpayable",
      "type": "function"
    },
    {
      "inputs": [
        {
          "internalType": "address",
          "name": "holder",
          "type": "address"
        },
        {
          "internalType": "address",
          "name": "spender",
          "type": "address"
        },
        {
          "internalType": "uint256",
          "name": "value",
          "type": "uint256"
        },
        {
          "internalType": "uint256",
          "name": "deadline",
          "type": "uint256"
        },
        {
          "internalType": "uint8",
          "name": "v",
          "type": "uint8"
        },
        {
          "internalType": "bytes32",
          "name": "r",
          "type": "bytes32"
        },
        {
          "internalType": "bytes32",
          "name": "s",
          "type": "bytes32"
        }
      ],
      "name": "permit",
      "outputs": [],
      "stateMutability": "nonpayable",
      "type": "function"
    },
    {
      "inputs": [
        {
          "internalType": "address",
          "name": "who",
          "type": "address"
        },
        {
          "internalType": "uint256",
          "name": "newBalance",
          "type": "uint256"
        }
      ],
      "name": "setBalance",
      "outputs": [],
      "stateMutability": "nonpayable",
      "type": "function"
    },
    {
      "inputs": [],
      "name": "symbol",
      "outputs": [
        {
          "internalType": "string",
          "name": "s",
          "type": "string"
        }
      ],
      "stateMutability": "view",
      "type": "function"
    },
    {
      "inputs": [],
      "name": "totalSupply",
      "outputs": [
        {
          "internalType": "uint256",
          "name": "",
          "type": "uint256"
        }
      ],
      "stateMutability": "view",
      "type": "function"
    },
    {
      "inputs": [
        {
          "internalType": "address",
          "name": "recipient",
          "type": "address"
        },
        {
          "internalType": "uint256",
          "name": "amount",
          "type": "uint256"
        }
      ],
      "name": "transfer",
      "outputs": [],
      "stateMutability": "nonpayable",
      "type": "function"
    },
    {
      "inputs": [
        {
          "internalType": "address",
          "name": "from",
          "type": "address"
        },
        {
          "internalType": "address",
          "name": "recipient",
          "type": "address"
        },
        {
          "internalType": "uint256",
          "name": "amount",
          "type": "uint256"
        }
      ],
      "name": "transferFrom",
      "outputs": [],
      "stateMutability": "nonpayable",
      "type": "function"
    }
  ],
  "bytecode": "0x60c060405260016080819052603160f81b60a0908152620000249160099190620000bc565b503480156200003257600080fd5b5060405162002b2138038062002b2183398101604081905262000055916200022f565b600080546001600160a01b0319163317905583516200007c906001906020870190620000bc565b50825162000092906002906020860190620000bc565b506003805460ff90931660ff19938416179055600580549115159190921617905550620003099050565b828054620000ca90620002cc565b90600052602060002090601f016020900481019282620000ee576000855562000139565b82601f106200010957805160ff191683800117855562000139565b8280016001018555821562000139579182015b82811115620001395782518255916020019190600101906200011c565b50620001479291506200014b565b5090565b5b808211156200014757600081556001016200014c565b634e487b7160e01b600052604160045260246000fd5b600082601f8301126200018a57600080fd5b81516001600160401b0380821115620001a757620001a762000162565b604051601f8301601f19908116603f01168101908282118183101715620001d257620001d262000162565b81604052838152602092508683858801011115620001ef57600080fd5b600091505b83821015620002135785820183015181830184015290820190620001f4565b83821115620002255760008385830101525b9695505050505050565b600080600080608085870312156200024657600080fd5b84516001600160401b03808211156200025e57600080fd5b6200026c8883890162000178565b955060208701519150808211156200028357600080fd5b50620002928782880162000178565b935050604085015160ff81168114620002aa57600080fd5b60608601519092508015158114620002c157600080fd5b939692955090935050565b600181811c90821680620002e157607f821691505b602082108114156200030357634e487b7160e01b600052602260045260246000fd5b50919050565b61280880620003196000396000f3fe608060405234801561001057600080fd5b50600436106101985760003560e01c806370a08231116100e3578063a6f9dae11161008c578063d505accf11610066578063d505accf14610359578063dd62ed3e1461036c578063e30443bc1461039757600080fd5b8063a6f9dae114610320578063a9059cbb14610333578063c112dfa31461034657600080fd5b80638fcbaf0c116100bd5780638fcbaf0c146102f257806395d89b41146103055780639fd5a6cf1461030d57600080fd5b806370a082311461029e57806373b14271146102b15780637ecebe00146102d257600080fd5b806327e235e311610145578063313ce5671161011f578063313ce567146102645780633644e5151461028357806340c10f191461028b57600080fd5b806327e235e314610229578063303a92dc1461024957806330adf81f1461025c57600080fd5b8063183555f011610176578063183555f0146101e757806320606b70146101ef57806323b872dd1461021657600080fd5b806306fdde031461019d578063095ea7b3146101bb57806318160ddd146101d0575b600080fd5b6101a56103aa565b6040516101b29190611eee565b60405180910390f35b6101ce6101c9366004611f2d565b6104bd565b005b6101d960045481565b6040519081526020016101b2565b6101ce610626565b6101d97f8b73c3c69bb8fe3d512ecc4cf759cc79239f7b179b0ffacaa9a75d522b39400f81565b6101ce610224366004611f59565b6106b9565b6101d9610237366004611f9a565b60066020526000908152604090205481565b6101ce610257366004612000565b610d22565b6101d9610e72565b6003546102719060ff1681565b60405160ff90911681526020016101b2565b6101d9610f09565b6101ce610299366004611f2d565b610fa1565b6101d96102ac366004611f9a565b6110bc565b6102c46102bf366004612130565b611307565b6040516101b29291906121b0565b6101d96102e0366004611f9a565b60086020526000908152604090205481565b6101ce6103003660046121e1565b611477565b6101a5611569565b6101ce61031b366004612267565b6115d7565b6101ce61032e366004611f9a565b6116dd565b6101ce610341366004611f2d565b6117b3565b6101ce6103543660046122e3565b6118a7565b6101ce6103673660046122fe565b61196a565b6101d961037a36600461236c565b600760209081526000928352604080842090915290825290205481565b6101ce6103a5366004611f2d565b611a26565b606060006103ec6040518060400160405280601381526020017f6e616d652f72657475726e2d6279746573333200000000000000000000000000815250611307565b509050806104855760018054610401906123a5565b80601f016020809104026020016040519081016040528092919081815260200182805461042d906123a5565b801561047a5780601f1061044f5761010080835404028352916020019161047a565b820191906000526020600020905b81548152906001019060200180831161045d57829003601f168201915b505050505091505090565b6104b96000600160405160200161049c9190612486565b6040516020818303038152906040526104b490612492565b611ade565b5090565b33600081815260076020908152604080832073ffffffffffffffffffffffffffffffffffffffff871680855290835292819020859055518481529192917f8c5be1e5ebec7d5bd14f71427d1e84f3dd0314c0f7b2291e5b200ac8c7c3b925910160405180910390a360006105656040518060400160405280600e81526020017f617070726f76652f726576657274000000000000000000000000000000000000815250611307565b50905080156105d5576040517f08c379a000000000000000000000000000000000000000000000000000000000815260206004820152601060248201527f726576657274206265686176696f75720000000000000000000000000000000060448201526064015b60405180910390fd5b6106136040518060400160405280601381526020017f617070726f76652f72657475726e2d766f696400000000000000000000000000815250611307565b509050610621816001611ade565b505050565b60055460ff16158061064f575060005473ffffffffffffffffffffffffffffffffffffffff1633145b6106b5576040517f08c379a000000000000000000000000000000000000000000000000000000000815260206004820152601e60248201527f5465737445524332303a20736563757265206d6f646520656e61626c6564000060448201526064016105cc565b6000ff5b73ffffffffffffffffffffffffffffffffffffffff831660009081526006602052604090205481111561076e576040517f08c379a000000000000000000000000000000000000000000000000000000000815260206004820152602660248201527f45524332303a207472616e7366657220616d6f756e742065786365656473206260448201527f616c616e6365000000000000000000000000000000000000000000000000000060648201526084016105cc565b73ffffffffffffffffffffffffffffffffffffffff831633148015906107e4575073ffffffffffffffffffffffffffffffffffffffff831660009081526007602090815260408083203384529091529020547fffffffffffffffffffffffffffffffffffffffffffffffffffffffffffffffff14155b156108ef5773ffffffffffffffffffffffffffffffffffffffff831660009081526007602090815260408083203384529091529020548111156108a9576040517f08c379a000000000000000000000000000000000000000000000000000000000815260206004820152602860248201527f45524332303a207472616e7366657220616d6f756e742065786365656473206160448201527f6c6c6f77616e636500000000000000000000000000000000000000000000000060648201526084016105cc565b73ffffffffffffffffffffffffffffffffffffffff83166000908152600760209081526040808320338452909152812080548392906108e9908490612503565b90915550505b6000806109306040518060400160405280601581526020017f7472616e736665722f6465666c6174696f6e6172790000000000000000000000815250611307565b91509150600082610942576000610956565b81806020019051810190610956919061251a565b90506109966040518060400160405280601581526020017f7472616e736665722f696e666c6174696f6e6172790000000000000000000000815250611307565b90935091506000836109a95760006109bd565b828060200190518101906109bd919061251a565b90506109fd6040518060400160405280601281526020017f7472616e736665722f756e646572666c6f770000000000000000000000000000815250611307565b5093508315610a4c57610a11856002612533565b73ffffffffffffffffffffffffffffffffffffffff881660009081526006602052604081208054909190610a46908490612570565b90915550505b73ffffffffffffffffffffffffffffffffffffffff80881660008181526006602052604080822080548a90039055928916808252908390208054868a03860101905591517fddf252ad1be2c89b69c2b068fc378daa952ba7f163c4a11628f55a4df523b3ef90610abf9089815260200190565b60405180910390a36000357fffffffff00000000000000000000000000000000000000000000000000000000167f23b872dd000000000000000000000000000000000000000000000000000000001415610d1957610b516040518060400160405280601281526020017f7472616e736665722d66726f6d2f63616c6c0000000000000000000000000000815250611307565b90945092508315610c245760008084806020019051810190610b739190612588565b915091506000808373ffffffffffffffffffffffffffffffffffffffff1683604051610b9f9190612615565b6000604051808303816000865af19150503d8060008114610bdc576040519150601f19603f3d011682016040523d82523d6000602084013e610be1565b606091505b509150915081610c1f57806040517f08c379a00000000000000000000000000000000000000000000000000000000081526004016105cc9190611eee565b505050505b610c626040518060400160405280601481526020017f7472616e736665722d66726f6d2f726576657274000000000000000000000000815250611307565b5093508315610ccd576040517f08c379a000000000000000000000000000000000000000000000000000000000815260206004820152601060248201527f726576657274206265686176696f75720000000000000000000000000000000060448201526064016105cc565b610d0b6040518060400160405280601981526020017f7472616e736665722d66726f6d2f72657475726e2d766f696400000000000000815250611307565b509350610d19846001611ade565b50505050505050565b60055460ff161580610d4b575060005473ffffffffffffffffffffffffffffffffffffffff1633145b610db1576040517f08c379a000000000000000000000000000000000000000000000000000000000815260206004820152601e60248201527f5465737445524332303a20736563757265206d6f646520656e61626c6564000060448201526064016105cc565b6040805160606020601f870181900402820181018352918101858152600a928291908890889081908501838280828437600092019190915250505090825250604080516020601f8701819004810282018101909252858152918101919086908690819084018382808284376000920182905250939094525050835460018101855593815260209081902083518051949560020290910193610e59935084929190910190611de4565b506020828101518051610d199260018501920190611de4565b600080610eb36040518060400160405280600e81526020017f7065726d69742f616c6c6f776564000000000000000000000000000000000000815250611307565b50905080610ee1577f6e71edae12b1b97f4d1f60370fef10105fa2faae0126114a169c64845d6126c9610f03565b7fea2aa0a1be11a07ed86d755c93467f4f82362b452371d1ba94d1715123511acb5b91505090565b60007f8b73c3c69bb8fe3d512ecc4cf759cc79239f7b179b0ffacaa9a75d522b39400f6001604051610f3b9190612486565b60405180910390206009604051610f529190612486565b6040518091039020610f614690565b604080516020810195909552840192909252606083015260808201523060a082015260c00160405160208183030381529060405280519060200120905090565b60055460ff161580610fca575060005473ffffffffffffffffffffffffffffffffffffffff1633145b611030576040517f08c379a000000000000000000000000000000000000000000000000000000000815260206004820152601e60248201527f5465737445524332303a20736563757265206d6f646520656e61626c6564000060448201526064016105cc565b73ffffffffffffffffffffffffffffffffffffffff821660009081526006602052604081208054839290611065908490612570565b909155505060405181815273ffffffffffffffffffffffffffffffffffffffff8316906000907fddf252ad1be2c89b69c2b068fc378daa952ba7f163c4a11628f55a4df523b3ef9060200160405180910390a35050565b60008060006110ff6040518060400160405280601581526020017f62616c616e63652d6f662f7365742d616d6f756e740000000000000000000000815250611307565b915091508115611125578080602001905181019061111d919061251a565b949350505050565b6111636040518060400160405280601a81526020017f62616c616e63652d6f662f636f6e73756d652d616c6c2d676173000000000000815250611307565b509150811561117457611174611af4565b6111b26040518060400160405280601181526020017f62616c616e63652d6f662f726576657274000000000000000000000000000000815250611307565b509150811561121d576040517f08c379a000000000000000000000000000000000000000000000000000000000815260206004820152601060248201527f726576657274206265686176696f75720000000000000000000000000000000060448201526064016105cc565b61125b6040518060400160405280601081526020017f62616c616e63652d6f662f70616e696300000000000000000000000000000000815250611307565b509150811561126c5761126c612631565b6112aa6040518060400160405280601481526020017f62616c616e63652d6f662f6d61782d76616c7565000000000000000000000000815250611307565b50915081156112dc57507fffffffffffffffffffffffffffffffffffffffffffffffffffffffffffffffff9392505050565b50505073ffffffffffffffffffffffffffffffffffffffff1660009081526006602052604090205490565b6000606060005b600a5481101561145b57836040516020016113299190611eee565b60405160208183030381529060405280519060200120600a828154811061135257611352612660565b9060005260206000209060020201600001604051602001611373919061268f565b60405160208183030381529060405280519060200120141561144b576001600a82815481106113a4576113a4612660565b90600052602060002090600202016001018080546113c1906123a5565b80601f01602080910402602001604051908101604052809291908181526020018280546113ed906123a5565b801561143a5780601f1061140f5761010080835404028352916020019161143a565b820191906000526020600020905b81548152906001019060200180831161141d57829003601f168201915b505050505090509250925050915091565b61145481612732565b905061130e565b5060006040518060200160405280600081525091509150915091565b6000611481610e72565b60408051602081019290925273ffffffffffffffffffffffffffffffffffffffff808c1691830191909152891660608201526080810188905260a0810187905285151560c082015260e0016040516020818303038152906040528051906020012090506000856114f2576000611514565b7fffffffffffffffffffffffffffffffffffffffffffffffffffffffffffffffff5b73ffffffffffffffffffffffffffffffffffffffff8b16600090815260086020526040812080549293509061154883612732565b919050555061155d828b8b848b8a8a8a611afa565b50505050505050505050565b606060006115ab6040518060400160405280601581526020017f73796d626f6c2f72657475726e2d627974657333320000000000000000000000815250611307565b509050806115c05760028054610401906123a5565b6104b96000600260405160200161049c9190612486565b60006115e6602082848661276b565b6115ef91612795565b9050600061160160406020858761276b565b61160a91612795565b9050600060f861161e60416040878961276b565b61162791612795565b901c90506000611635610e72565b73ffffffffffffffffffffffffffffffffffffffff8b16600090815260086020526040812080548d928d928d929161166c83612732565b9091555060408051602081019690965273ffffffffffffffffffffffffffffffffffffffff94851690860152929091166060840152608083015260a082015260c0810188905260e00160405160208183030381529060405280519060200120905061155d818b8b8b8b878a8a611afa565b60055460ff161580611706575060005473ffffffffffffffffffffffffffffffffffffffff1633145b61176c576040517f08c379a000000000000000000000000000000000000000000000000000000000815260206004820152601e60248201527f5465737445524332303a20736563757265206d6f646520656e61626c6564000060448201526064016105cc565b600080547fffffffffffffffffffffffff00000000000000000000000000000000000000001673ffffffffffffffffffffffffffffffffffffffff92909216919091179055565b6117be3383836106b9565b60006117fe6040518060400160405280600f81526020017f7472616e736665722f7265766572740000000000000000000000000000000000815250611307565b5090508015611869576040517f08c379a000000000000000000000000000000000000000000000000000000000815260206004820152601060248201527f726576657274206265686176696f75720000000000000000000000000000000060448201526064016105cc565b6106136040518060400160405280601481526020017f7472616e736665722f72657475726e2d766f6964000000000000000000000000815250611307565b60055460ff1615806118d0575060005473ffffffffffffffffffffffffffffffffffffffff1633145b611936576040517f08c379a000000000000000000000000000000000000000000000000000000000815260206004820152601e60248201527f5465737445524332303a20736563757265206d6f646520656e61626c6564000060448201526064016105cc565b600380547fffffffffffffffffffffffffffffffffffffffffffffffffffffffffffffff001660ff92909216919091179055565b6000611974610e72565b73ffffffffffffffffffffffffffffffffffffffff8916600090815260086020526040812080548b928b928b92916119ab83612732565b9091555060408051602081019690965273ffffffffffffffffffffffffffffffffffffffff94851690860152929091166060840152608083015260a082015260c0810186905260e001604051602081830303815290604052805190602001209050611a1c8189898989898989611afa565b5050505050505050565b60055460ff161580611a4f575060005473ffffffffffffffffffffffffffffffffffffffff1633145b611ab5576040517f08c379a000000000000000000000000000000000000000000000000000000000815260206004820152601e60248201527f5465737445524332303a20736563757265206d6f646520656e61626c6564000060448201526064016105cc565b73ffffffffffffffffffffffffffffffffffffffff909116600090815260066020526040902055565b8115611ae8575050565b80604051526020604051f35b5b611af5565b6000611b04610f09565b6040517f190100000000000000000000000000000000000000000000000000000000000060208201526022810191909152604281018a9052606201604080517fffffffffffffffffffffffffffffffffffffffffffffffffffffffffffffffe08184030181528282528051602091820120600080855291840180845281905260ff88169284019290925260608301869052608083018590529092509060019060a0016020604051602081039080840390855afa158015611bc8573d6000803e3d6000fd5b50506040517fffffffffffffffffffffffffffffffffffffffffffffffffffffffffffffffe0015191505073ffffffffffffffffffffffffffffffffffffffff8116611c70576040517f08c379a000000000000000000000000000000000000000000000000000000000815260206004820152601960248201527f7065726d69743a20696e76616c6964207369676e61747572650000000000000060448201526064016105cc565b8873ffffffffffffffffffffffffffffffffffffffff168173ffffffffffffffffffffffffffffffffffffffff1614611d05576040517f08c379a000000000000000000000000000000000000000000000000000000000815260206004820152601460248201527f7065726d69743a20756e617574686f72697a656400000000000000000000000060448201526064016105cc565b85421115611d6f576040517f08c379a000000000000000000000000000000000000000000000000000000000815260206004820152601960248201527f7065726d69743a207369676e617475726520657870697265640000000000000060448201526064016105cc565b73ffffffffffffffffffffffffffffffffffffffff8981166000818152600760209081526040808320948d16808452948252918290208b905590518a81527f8c5be1e5ebec7d5bd14f71427d1e84f3dd0314c0f7b2291e5b200ac8c7c3b925910160405180910390a350505050505050505050565b828054611df0906123a5565b90600052602060002090601f016020900481019282611e125760008555611e58565b82601f10611e2b57805160ff1916838001178555611e58565b82800160010185558215611e58579182015b82811115611e58578251825591602001919060010190611e3d565b506104b99291505b808211156104b95760008155600101611e60565b60005b83811015611e8f578181015183820152602001611e77565b83811115611e9e576000848401525b50505050565b60008151808452611ebc816020860160208601611e74565b601f017fffffffffffffffffffffffffffffffffffffffffffffffffffffffffffffffe0169290920160200192915050565b602081526000611f016020830184611ea4565b9392505050565b73ffffffffffffffffffffffffffffffffffffffff81168114611f2a57600080fd5b50565b60008060408385031215611f4057600080fd5b8235611f4b81611f08565b946020939093013593505050565b600080600060608486031215611f6e57600080fd5b8335611f7981611f08565b92506020840135611f8981611f08565b929592945050506040919091013590565b600060208284031215611fac57600080fd5b8135611f0181611f08565b60008083601f840112611fc957600080fd5b50813567ffffffffffffffff811115611fe157600080fd5b602083019150836020828501011115611ff957600080fd5b9250929050565b6000806000806040858703121561201657600080fd5b843567ffffffffffffffff8082111561202e57600080fd5b61203a88838901611fb7565b9096509450602087013591508082111561205357600080fd5b5061206087828801611fb7565b95989497509550505050565b7f4e487b7100000000000000000000000000000000000000000000000000000000600052604160045260246000fd5b604051601f82017fffffffffffffffffffffffffffffffffffffffffffffffffffffffffffffffe016810167ffffffffffffffff811182821017156120e2576120e261206c565b604052919050565b600067ffffffffffffffff8211156121045761210461206c565b50601f017fffffffffffffffffffffffffffffffffffffffffffffffffffffffffffffffe01660200190565b60006020828403121561214257600080fd5b813567ffffffffffffffff81111561215957600080fd5b8201601f8101841361216a57600080fd5b803561217d612178826120ea565b61209b565b81815285602083850101111561219257600080fd5b81602084016020830137600091810160200191909152949350505050565b821515815260406020820152600061111d6040830184611ea4565b803560ff811681146121dc57600080fd5b919050565b600080600080600080600080610100898b0312156121fe57600080fd5b883561220981611f08565b9750602089013561221981611f08565b965060408901359550606089013594506080890135801515811461223c57600080fd5b935061224a60a08a016121cb565b925060c0890135915060e089013590509295985092959890939650565b60008060008060008060a0878903121561228057600080fd5b863561228b81611f08565b9550602087013561229b81611f08565b94506040870135935060608701359250608087013567ffffffffffffffff8111156122c557600080fd5b6122d189828a01611fb7565b979a9699509497509295939492505050565b6000602082840312156122f557600080fd5b611f01826121cb565b600080600080600080600060e0888a03121561231957600080fd5b873561232481611f08565b9650602088013561233481611f08565b95506040880135945060608801359350612350608089016121cb565b925060a0880135915060c0880135905092959891949750929550565b6000806040838503121561237f57600080fd5b823561238a81611f08565b9150602083013561239a81611f08565b809150509250929050565b600181811c908216806123b957607f821691505b602082108114156123f3577f4e487b7100000000000000000000000000000000000000000000000000000000600052602260045260246000fd5b50919050565b60008154612406816123a5565b6001828116801561241e576001811461244d5761247c565b7fffffffffffffffffffffffffffffffffffffffffffffffffffffffffffffff0084168752828701945061247c565b8560005260208060002060005b858110156124735781548a82015290840190820161245a565b50505082870194505b5050505092915050565b6000611f0182846123f9565b805160208083015191908110156123f3577fffffffffffffffffffffffffffffffffffffffffffffffffffffffffffffffff60209190910360031b1b16919050565b7f4e487b7100000000000000000000000000000000000000000000000000000000600052601160045260246000fd5b600082821015612515576125156124d4565b500390565b60006020828403121561252c57600080fd5b5051919050565b6000817fffffffffffffffffffffffffffffffffffffffffffffffffffffffffffffffff048311821515161561256b5761256b6124d4565b500290565b60008219821115612583576125836124d4565b500190565b6000806040838503121561259b57600080fd5b82516125a681611f08565b602084015190925067ffffffffffffffff8111156125c357600080fd5b8301601f810185136125d457600080fd5b80516125e2612178826120ea565b8181528660208385010111156125f757600080fd5b612608826020830160208601611e74565b8093505050509250929050565b60008251612627818460208701611e74565b9190910192915050565b7f4e487b7100000000000000000000000000000000000000000000000000000000600052600160045260246000fd5b7f4e487b7100000000000000000000000000000000000000000000000000000000600052603260045260246000fd5b60006020808352600084546126a3816123a5565b808487015260406001808416600081146126c457600181146126f657612724565b7fffffffffffffffffffffffffffffffffffffffffffffffffffffffffffffff008516838a0152606089019550612724565b896000528660002060005b8581101561271c5781548b8201860152908301908801612701565b8a0184019650505b509398975050505050505050565b60007fffffffffffffffffffffffffffffffffffffffffffffffffffffffffffffffff821415612764576127646124d4565b5060010190565b6000808585111561277b57600080fd5b8386111561278857600080fd5b5050820193919092039150565b803560208310156127cc577fffffffffffffffffffffffffffffffffffffffffffffffffffffffffffffffff602084900360031b1b165b9291505056fea2646970667358221220e6dc742ea97209b1b6bd74905c0e0193335887a26f51bc7a595c31dc90547cfd64736f6c634300080a0033",
  "linkReferences": {},
  "deployedLinkReferences": {}
}