{
  "_format": "hh-sol-artifact-1",
  "contractName": "EulerSimpleLens",
  "sourceName": "contracts/views/EulerSimpleLens.sol",
  "abi": [
    {
      "inputs": [
        {
          "internalType": "bytes32",
          "name": "moduleGitCommit_",
          "type": "bytes32"
        },
        {
          "internalType": "address",
          "name": "euler_",
          "type": "address"
        }
      ],
      "stateMutability": "nonpayable",
      "type": "constructor"
    },
    {
      "inputs": [],
      "name": "euler",
      "outputs": [
        {
          "internalType": "contract Euler",
          "name": "",
          "type": "address"
        }
      ],
      "stateMutability": "view",
      "type": "function"
    },
    {
      "inputs": [],
      "name": "exec",
      "outputs": [
        {
          "internalType": "contract Exec",
          "name": "",
          "type": "address"
        }
      ],
      "stateMutability": "view",
      "type": "function"
    },
    {
      "inputs": [
        {
          "internalType": "address",
          "name": "account",
          "type": "address"
        }
      ],
      "name": "getAccountStatus",
      "outputs": [
        {
          "internalType": "uint256",
          "name": "collateralValue",
          "type": "uint256"
        },
        {
          "internalType": "uint256",
          "name": "liabilityValue",
          "type": "uint256"
        },
        {
          "internalType": "uint256",
          "name": "healthScore",
          "type": "uint256"
        }
      ],
      "stateMutability": "view",
      "type": "function"
    },
    {
      "inputs": [
        {
          "internalType": "address",
          "name": "underlying",
          "type": "address"
        },
        {
          "internalType": "address",
          "name": "account",
          "type": "address"
        }
      ],
      "name": "getDTokenBalance",
      "outputs": [
        {
          "internalType": "uint256",
          "name": "",
          "type": "uint256"
        }
      ],
      "stateMutability": "view",
      "type": "function"
    },
    {
      "inputs": [
        {
          "internalType": "address",
          "name": "underlying",
          "type": "address"
        },
        {
          "internalType": "address",
          "name": "account",
          "type": "address"
        }
      ],
      "name": "getETokenBalance",
      "outputs": [
        {
          "internalType": "uint256",
          "name": "",
          "type": "uint256"
        }
      ],
      "stateMutability": "view",
      "type": "function"
    },
    {
      "inputs": [
        {
          "internalType": "address",
          "name": "account",
          "type": "address"
        }
      ],
      "name": "getEnteredMarkets",
      "outputs": [
        {
          "internalType": "address[]",
          "name": "",
          "type": "address[]"
        }
      ],
      "stateMutability": "view",
      "type": "function"
    },
    {
      "inputs": [
        {
          "internalType": "address",
          "name": "underlying",
          "type": "address"
        },
        {
          "internalType": "address",
          "name": "account",
          "type": "address"
        }
      ],
      "name": "getEulerAccountAllowance",
      "outputs": [
        {
          "internalType": "uint256",
          "name": "",
          "type": "uint256"
        }
      ],
      "stateMutability": "view",
      "type": "function"
    },
    {
      "inputs": [
        {
          "internalType": "address",
          "name": "underlying",
          "type": "address"
        },
        {
          "internalType": "address",
          "name": "account",
          "type": "address"
        }
      ],
      "name": "getPTokenBalance",
      "outputs": [
        {
          "internalType": "uint256",
          "name": "",
          "type": "uint256"
        }
      ],
      "stateMutability": "view",
      "type": "function"
    },
    {
      "inputs": [
        {
          "internalType": "address",
          "name": "underlying",
          "type": "address"
        }
      ],
      "name": "getPriceFull",
      "outputs": [
        {
          "internalType": "uint256",
          "name": "twap",
          "type": "uint256"
        },
        {
          "internalType": "uint256",
          "name": "twapPeriod",
          "type": "uint256"
        },
        {
          "internalType": "uint256",
          "name": "currPrice",
          "type": "uint256"
        }
      ],
      "stateMutability": "view",
      "type": "function"
    },
    {
      "inputs": [
        {
          "internalType": "address",
          "name": "underlying",
          "type": "address"
        }
      ],
      "name": "getPricingConfig",
      "outputs": [
        {
          "internalType": "uint16",
          "name": "pricingType",
          "type": "uint16"
        },
        {
          "internalType": "uint32",
          "name": "pricingParameters",
          "type": "uint32"
        },
        {
          "internalType": "address",
          "name": "pricingForwarded",
          "type": "address"
        }
      ],
      "stateMutability": "view",
      "type": "function"
    },
    {
      "inputs": [
        {
          "internalType": "address",
          "name": "underlying",
          "type": "address"
        }
      ],
      "name": "getTokenInfo",
      "outputs": [
        {
          "internalType": "string",
          "name": "name",
          "type": "string"
        },
        {
          "internalType": "string",
          "name": "symbol",
          "type": "string"
        }
      ],
      "stateMutability": "view",
      "type": "function"
    },
    {
      "inputs": [
        {
          "internalType": "address",
          "name": "underlying",
          "type": "address"
        }
      ],
      "name": "getTotalSupplyAndDebts",
      "outputs": [
        {
          "internalType": "uint256",
          "name": "poolSize",
          "type": "uint256"
        },
        {
          "internalType": "uint256",
          "name": "totalBalances",
          "type": "uint256"
        },
        {
          "internalType": "uint256",
          "name": "totalBorrows",
          "type": "uint256"
        },
        {
          "internalType": "uint256",
          "name": "reserveBalance",
          "type": "uint256"
        }
      ],
      "stateMutability": "view",
      "type": "function"
    },
    {
      "inputs": [
        {
          "internalType": "address",
          "name": "underlying",
          "type": "address"
        }
      ],
      "name": "interestAccumulator",
      "outputs": [
        {
          "internalType": "uint256",
          "name": "",
          "type": "uint256"
        }
      ],
      "stateMutability": "view",
      "type": "function"
    },
    {
      "inputs": [
        {
          "internalType": "address",
          "name": "underlying",
          "type": "address"
        }
      ],
      "name": "interestRateModel",
      "outputs": [
        {
          "internalType": "uint256",
          "name": "",
          "type": "uint256"
        }
      ],
      "stateMutability": "view",
      "type": "function"
    },
    {
      "inputs": [
        {
          "internalType": "address",
          "name": "underlying",
          "type": "address"
        }
      ],
      "name": "interestRates",
      "outputs": [
        {
          "internalType": "uint256",
          "name": "borrowSPY",
          "type": "uint256"
        },
        {
          "internalType": "uint256",
          "name": "borrowAPY",
          "type": "uint256"
        },
        {
          "internalType": "uint256",
          "name": "supplyAPY",
          "type": "uint256"
        }
      ],
      "stateMutability": "view",
      "type": "function"
    },
    {
      "inputs": [
        {
          "internalType": "address",
          "name": "underlying",
          "type": "address"
        }
      ],
      "name": "irmSettings",
      "outputs": [
        {
          "components": [
            {
              "internalType": "uint256",
              "name": "kink",
              "type": "uint256"
            },
            {
              "internalType": "uint256",
              "name": "baseAPY",
              "type": "uint256"
            },
            {
              "internalType": "uint256",
              "name": "kinkAPY",
              "type": "uint256"
            },
            {
              "internalType": "uint256",
              "name": "maxAPY",
              "type": "uint256"
            },
            {
              "internalType": "uint256",
              "name": "baseSupplyAPY",
              "type": "uint256"
            },
            {
              "internalType": "uint256",
              "name": "kinkSupplyAPY",
              "type": "uint256"
            },
            {
              "internalType": "uint256",
              "name": "maxSupplyAPY",
              "type": "uint256"
            }
          ],
          "internalType": "struct EulerSimpleLens.ResponseIRM",
          "name": "r",
          "type": "tuple"
        }
      ],
      "stateMutability": "view",
      "type": "function"
    },
    {
      "inputs": [],
      "name": "markets",
      "outputs": [
        {
          "internalType": "contract Markets",
          "name": "",
          "type": "address"
        }
      ],
      "stateMutability": "view",
      "type": "function"
    },
    {
      "inputs": [],
      "name": "moduleGitCommit",
      "outputs": [
        {
          "internalType": "bytes32",
          "name": "",
          "type": "bytes32"
        }
      ],
      "stateMutability": "view",
      "type": "function"
    },
    {
      "inputs": [
        {
          "internalType": "address",
          "name": "underlying",
          "type": "address"
        }
      ],
      "name": "reserveFee",
      "outputs": [
        {
          "internalType": "uint32",
          "name": "",
          "type": "uint32"
        }
      ],
      "stateMutability": "view",
      "type": "function"
    },
    {
      "inputs": [
        {
          "internalType": "address",
          "name": "underlying",
          "type": "address"
        }
      ],
      "name": "underlyingToAssetConfig",
      "outputs": [
        {
          "components": [
            {
              "internalType": "address",
              "name": "eTokenAddress",
              "type": "address"
            },
            {
              "internalType": "bool",
              "name": "borrowIsolated",
              "type": "bool"
            },
            {
              "internalType": "uint32",
              "name": "collateralFactor",
              "type": "uint32"
            },
            {
              "internalType": "uint32",
              "name": "borrowFactor",
              "type": "uint32"
            },
            {
              "internalType": "uint24",
              "name": "twapWindow",
              "type": "uint24"
            }
          ],
          "internalType": "struct Storage.AssetConfig",
          "name": "config",
          "type": "tuple"
        }
      ],
      "stateMutability": "view",
      "type": "function"
    },
    {
      "inputs": [
        {
          "internalType": "address",
          "name": "underlying",
          "type": "address"
        }
      ],
      "name": "underlyingToDToken",
      "outputs": [
        {
          "internalType": "address",
          "name": "dToken",
          "type": "address"
        }
      ],
      "stateMutability": "view",
      "type": "function"
    },
    {
      "inputs": [
        {
          "internalType": "address",
          "name": "underlying",
          "type": "address"
        }
      ],
      "name": "underlyingToEToken",
      "outputs": [
        {
          "internalType": "address",
          "name": "eToken",
          "type": "address"
        }
      ],
      "stateMutability": "view",
      "type": "function"
    },
    {
      "inputs": [
        {
          "internalType": "address",
          "name": "underlying",
          "type": "address"
        }
      ],
      "name": "underlyingToInternalTokens",
      "outputs": [
        {
          "internalType": "address",
          "name": "eToken",
          "type": "address"
        },
        {
          "internalType": "address",
          "name": "dToken",
          "type": "address"
        },
        {
          "internalType": "address",
          "name": "pToken",
          "type": "address"
        }
      ],
      "stateMutability": "view",
      "type": "function"
    },
    {
      "inputs": [
        {
          "internalType": "address",
          "name": "underlying",
          "type": "address"
        }
      ],
      "name": "underlyingToPToken",
      "outputs": [
        {
          "internalType": "address",
          "name": "pToken",
          "type": "address"
        }
      ],
      "stateMutability": "view",
      "type": "function"
    }
  ],
  "bytecode": "0x6101006040523480156200001257600080fd5b50604051620022c3380380620022c3833981016040819052620000359162000151565b60808290526001600160a01b03811660a081905260405163734c938f60e01b81526002600482015263734c938f90602401602060405180830381865afa15801562000084573d6000803e3d6000fd5b505050506040513d601f19601f82011682018060405250810190620000aa919062000180565b6001600160a01b0390811660c05260a05160405163734c938f60e01b81526005600482015291169063734c938f90602401602060405180830381865afa158015620000f9573d6000803e3d6000fd5b505050506040513d601f19601f820116820180604052508101906200011f919062000180565b6001600160a01b031660e05250620001a59050565b80516001600160a01b03811681146200014c57600080fd5b919050565b600080604083850312156200016557600080fd5b82519150620001776020840162000134565b90509250929050565b6000602082840312156200019357600080fd5b6200019e8262000134565b9392505050565b60805160a05160c05160e0516120746200024f6000396000818161048d01528181610ab501526115cb01526000818161024a015281816105d30152818161073f015281816107f6015281816108b80152818161093101528181610c3b01528181610cfd01528181610fda015281816110930152818161147701526116e501526000818161051d01528181610b7501528181610da7015261114a0152600061033d01526120746000f3fe608060405234801561001057600080fd5b50600436106101985760003560e01c8063b409dd9b116100e3578063d6ba7c091161008c578063eea0bd4d11610066578063eea0bd4d14610552578063fd4fa05a14610565578063fd7948d41461057857600080fd5b8063d6ba7c09146104af578063db661b7114610518578063dccda03d1461053f57600080fd5b8063b97dfd40116100bd578063b97dfd4014610442578063bcc343ae14610475578063c1c0e9c41461048857600080fd5b8063b409dd9b146103f4578063b6e8f70514610407578063b74b1ed51461041a57600080fd5b806369a92ea31161014557806395d20fc51161011f57806395d20fc5146103a05780639693fa6b146103b3578063a4f16fbd146103e157600080fd5b806369a92ea314610338578063894887491461036d5780638ccb720b1461038057600080fd5b80633ac2a032116101765780633ac2a032146102455780634e9cfac21461026c578063546422d6146102ea57600080fd5b80631b3005821461019d5780631f69565f146101da578063342b9805146101fb575b600080fd5b6101b06101ab3660046119fc565b61058b565b60405173ffffffffffffffffffffffffffffffffffffffff90911681526020015b60405180910390f35b6101ed6101e83660046119fc565b610647565b6040516101d1929190611a93565b61020e6102093660046119fc565b6106a7565b6040805173ffffffffffffffffffffffffffffffffffffffff948516815292841660208401529216918101919091526060016101d1565b6101b07f000000000000000000000000000000000000000000000000000000000000000081565b61027f61027a3660046119fc565b6106d3565b6040516101d19190600060a08201905073ffffffffffffffffffffffffffffffffffffffff8351168252602083015115156020830152604083015163ffffffff8082166040850152806060860151166060850152505062ffffff608084015116608083015292915050565b6102fd6102f83660046119fc565b6107aa565b6040805161ffff909416845263ffffffff909216602084015273ffffffffffffffffffffffffffffffffffffffff16908201526060016101d1565b61035f7f000000000000000000000000000000000000000000000000000000000000000081565b6040519081526020016101d1565b6101b061037b3660046119fc565b610870565b61039361038e3660046119fc565b6108e9565b6040516101d19190611ab8565b61035f6103ae366004611b12565b6109c0565b6103c66103c13660046119fc565b610a69565b604080519384526020840192909252908201526060016101d1565b61035f6103ef366004611b12565b610b30565b61035f6104023660046119fc565b610bf3565b61035f610415366004611b12565b610ca9565b61042d6104283660046119fc565b610cb5565b60405163ffffffff90911681526020016101d1565b6104556104503660046119fc565b610d6a565b6040805194855260208501939093529183015260608201526080016101d1565b61035f6104833660046119fc565b610f92565b6101b07f000000000000000000000000000000000000000000000000000000000000000081565b6104c26104bd3660046119fc565b61100b565b6040516101d19190600060e082019050825182526020830151602083015260408301516040830152606083015160608301526080830151608083015260a083015160a083015260c083015160c083015292915050565b6101b07f000000000000000000000000000000000000000000000000000000000000000081565b6103c661054d3660046119fc565b61142b565b61035f610560366004611b12565b61151b565b6103c66105733660046119fc565b61157f565b6101b06105863660046119fc565b61169d565b6040517f1b30058200000000000000000000000000000000000000000000000000000000815273ffffffffffffffffffffffffffffffffffffffff82811660048301526000917f000000000000000000000000000000000000000000000000000000000000000090911690631b300582906024015b602060405180830381865afa15801561061d573d6000803e3d6000fd5b505050506040513d601f19601f820116820180604052508101906106419190611b4b565b92915050565b606080610674837f06fdde0300000000000000000000000000000000000000000000000000000000611716565b91506106a0837f95d89b4100000000000000000000000000000000000000000000000000000000611716565b9050915091565b60008060006106b584610870565b92506106c08461058b565b91506106cb8461169d565b929491935050565b6040805160a08101825260008082526020820181905281830181905260608201819052608082015290517f4e9cfac200000000000000000000000000000000000000000000000000000000815273ffffffffffffffffffffffffffffffffffffffff83811660048301527f00000000000000000000000000000000000000000000000000000000000000001690634e9cfac29060240160a060405180830381865afa158015610786573d6000803e3d6000fd5b505050506040513d601f19601f820116820180604052508101906106419190611c0f565b6040517f546422d600000000000000000000000000000000000000000000000000000000815273ffffffffffffffffffffffffffffffffffffffff8281166004830152600091829182917f00000000000000000000000000000000000000000000000000000000000000009091169063546422d690602401606060405180830381865afa15801561083f573d6000803e3d6000fd5b505050506040513d601f19601f820116820180604052508101906108639190611ca9565b9196909550909350915050565b6040517f8948874900000000000000000000000000000000000000000000000000000000815273ffffffffffffffffffffffffffffffffffffffff82811660048301526000917f000000000000000000000000000000000000000000000000000000000000000090911690638948874990602401610600565b6040517f8ccb720b00000000000000000000000000000000000000000000000000000000815273ffffffffffffffffffffffffffffffffffffffff82811660048301526060917f000000000000000000000000000000000000000000000000000000000000000090911690638ccb720b90602401600060405180830381865afa15801561097a573d6000803e3d6000fd5b505050506040513d6000823e601f3d9081017fffffffffffffffffffffffffffffffffffffffffffffffffffffffffffffffe01682016040526106419190810190611cf9565b6000806109cc8461058b565b6040517f70a0823100000000000000000000000000000000000000000000000000000000815273ffffffffffffffffffffffffffffffffffffffff8581166004830152919250908216906370a08231906024015b602060405180830381865afa158015610a3d573d6000803e3d6000fd5b505050506040513d601f19601f82011682018060405250810190610a619190611dab565b949350505050565b6040517f9693fa6b00000000000000000000000000000000000000000000000000000000815273ffffffffffffffffffffffffffffffffffffffff8281166004830152600091829182917f000000000000000000000000000000000000000000000000000000000000000091821690639693fa6b90602401606060405180830381865afa158015610afe573d6000803e3d6000fd5b505050506040513d601f19601f82011682018060405250810190610b229190611dc4565b919790965090945092505050565b6040517fdd62ed3e00000000000000000000000000000000000000000000000000000000815273ffffffffffffffffffffffffffffffffffffffff82811660048301527f0000000000000000000000000000000000000000000000000000000000000000811660248301526000919084169063dd62ed3e90604401602060405180830381865afa158015610bc8573d6000803e3d6000fd5b505050506040513d601f19601f82011682018060405250810190610bec9190611dab565b9392505050565b6040517fb409dd9b00000000000000000000000000000000000000000000000000000000815273ffffffffffffffffffffffffffffffffffffffff82811660048301526000917f00000000000000000000000000000000000000000000000000000000000000009091169063b409dd9b906024015b602060405180830381865afa158015610c85573d6000803e3d6000fd5b505050506040513d601f19601f820116820180604052508101906106419190611dab565b6000806109cc8461169d565b6040517fb74b1ed500000000000000000000000000000000000000000000000000000000815273ffffffffffffffffffffffffffffffffffffffff82811660048301526000917f00000000000000000000000000000000000000000000000000000000000000009091169063b74b1ed590602401602060405180830381865afa158015610d46573d6000803e3d6000fd5b505050506040513d601f19601f820116820180604052508101906106419190611df2565b6040517f70a0823100000000000000000000000000000000000000000000000000000000815273ffffffffffffffffffffffffffffffffffffffff7f0000000000000000000000000000000000000000000000000000000000000000811660048301526000918291829182918616906370a0823190602401602060405180830381865afa158015610dff573d6000803e3d6000fd5b505050506040513d601f19601f82011682018060405250810190610e239190611dab565b9350600080610e31876106a7565b50915091508173ffffffffffffffffffffffffffffffffffffffff1663fea61faa6040518163ffffffff1660e01b8152600401602060405180830381865afa158015610e81573d6000803e3d6000fd5b505050506040513d601f19601f82011682018060405250810190610ea59190611dab565b94508073ffffffffffffffffffffffffffffffffffffffff166318160ddd6040518163ffffffff1660e01b8152600401602060405180830381865afa158015610ef2573d6000803e3d6000fd5b505050506040513d601f19601f82011682018060405250810190610f169190611dab565b93508173ffffffffffffffffffffffffffffffffffffffff1663e73277d06040518163ffffffff1660e01b8152600401602060405180830381865afa158015610f63573d6000803e3d6000fd5b505050506040513d601f19601f82011682018060405250810190610f879190611dab565b925050509193509193565b6040517fbcc343ae00000000000000000000000000000000000000000000000000000000815273ffffffffffffffffffffffffffffffffffffffff82811660048301526000917f00000000000000000000000000000000000000000000000000000000000000009091169063bcc343ae90602401610c68565b61104b6040518060e00160405280600081526020016000815260200160008152602001600081526020016000815260200160008152602001600081525090565b6040517fb409dd9b00000000000000000000000000000000000000000000000000000000815273ffffffffffffffffffffffffffffffffffffffff83811660048301526000917f00000000000000000000000000000000000000000000000000000000000000009091169063b409dd9b90602401602060405180830381865afa1580156110dc573d6000803e3d6000fd5b505050506040513d601f19601f820116820180604052508101906111009190611dab565b6040517fcab65f010000000000000000000000000000000000000000000000000000000081526004810182905290915060009073ffffffffffffffffffffffffffffffffffffffff7f0000000000000000000000000000000000000000000000000000000000000000169063cab65f0190602401602060405180830381865afa158015611191573d6000803e3d6000fd5b505050506040513d601f19601f820116820180604052508101906111b59190611b4b565b9050600081905060008173ffffffffffffffffffffffffffffffffffffffff1663fd2da3396040518163ffffffff1660e01b8152600401602060405180830381865afa158015611209573d6000803e3d6000fd5b505050506040513d601f19601f8201168201806040525081019061122d9190611dab565b8086529050600061123d87610cb5565b905060008373ffffffffffffffffffffffffffffffffffffffff16631f68f20a6040518163ffffffff1660e01b8152600401602060405180830381865afa15801561128c573d6000803e3d6000fd5b505050506040513d601f19601f820116820180604052508101906112b09190611dab565b905060008473ffffffffffffffffffffffffffffffffffffffff1663a62b75a86040518163ffffffff1660e01b8152600401602060405180830381865afa1580156112ff573d6000803e3d6000fd5b505050506040513d601f19601f820116820180604052508101906113239190611dab565b61132d9085611e3c565b6113379083611e79565b905060008573ffffffffffffffffffffffffffffffffffffffff1663d0134cb76040518163ffffffff1660e01b8152600401602060405180830381865afa158015611386573d6000803e3d6000fd5b505050506040513d601f19601f820116820180604052508101906113aa9190611dab565b6113b88663ffffffff611e91565b6113c29190611e3c565b6113cc9083611e79565b90506113df83600063ffffffff87611857565b60808b015260208a01526113f9828663ffffffff87611857565b60a08b015260408a01526114138163ffffffff8087611857565b60c08b015260608a0152509698975050505050505050565b6040517f7c2c69c000000000000000000000000000000000000000000000000000000000815273ffffffffffffffffffffffffffffffffffffffff8281166004830152600091829182917f000000000000000000000000000000000000000000000000000000000000000090911690637c2c69c090602401602060405180830381865afa1580156114c0573d6000803e3d6000fd5b505050506040513d601f19601f820116820180604052508101906114e49190611ea8565b600b0b92506000806114f586610d6a565b50925092505061150f85828461150a8a610cb5565b611857565b95979096509350505050565b60008061152784610870565b6040517f3af9e66900000000000000000000000000000000000000000000000000000000815273ffffffffffffffffffffffffffffffffffffffff858116600483015291925090821690633af9e66990602401610a20565b6040517fb8c876b100000000000000000000000000000000000000000000000000000000815273ffffffffffffffffffffffffffffffffffffffff8281166004830152600091829182917f00000000000000000000000000000000000000000000000000000000000000009183919083169063b8c876b190602401608060405180830381865afa158015611617573d6000803e3d6000fd5b505050506040513d601f19601f8201168201806040525081019061163b9190611ecb565b80516020820151909650945090508315611671578361166286670de0b6b3a7640000611e3c565b61166c9190611f35565b611693565b7fffffffffffffffffffffffffffffffffffffffffffffffffffffffffffffffff5b9496939550505050565b6040517ffd7948d400000000000000000000000000000000000000000000000000000000815273ffffffffffffffffffffffffffffffffffffffff82811660048301526000917f00000000000000000000000000000000000000000000000000000000000000009091169063fd7948d490602401610600565b60408051600481526024810182526020810180517bffffffffffffffffffffffffffffffffffffffffffffffffffffffff167fffffffff0000000000000000000000000000000000000000000000000000000085161790529051606091600091829173ffffffffffffffffffffffffffffffffffffffff87169161179a9190611f70565b600060405180830381855afa9150503d80600081146117d5576040519150601f19603f3d011682016040523d82523d6000602084013e6117da565b606091505b50915091508115806117ed575060208151105b1561180b576040518060200160405280600081525092505050610641565b805160201461182d57808060200190518101906118289190611f8c565b61184e565b8060405160200161183e9190611f70565b6040516020818303038152906040525b95945050505050565b6000806b033b2e3c9fd0803ce800000061188b6118748883611e79565b6301e185586b033b2e3c9fd0803ce8000000611919565b6118959190611e91565b9150600084156118b957846118aa8789611e3c565b6118b49190611f35565b6118bc565b60005b905063ee6b28006118d363ffffffff861682611e91565b6118dd9083611e3c565b6118e79190611f35565b90506b033b2e3c9fd0803ce80000006119036118748383611e79565b61190d9190611e91565b91505094509492505050565b60008380156119b95760018416801561193457859250611938565b8392505b50600283046002850494505b84156119b357858602868782041461195b57600080fd5b8181018181101561196b57600080fd5b85900496505060018516156119a857858302838782041415871515161561199157600080fd5b818101818110156119a157600080fd5b8590049350505b600285049450611944565b506119cf565b8380156119c957600092506119cd565b8392505b505b509392505050565b73ffffffffffffffffffffffffffffffffffffffff811681146119f957600080fd5b50565b600060208284031215611a0e57600080fd5b8135610bec816119d7565b60005b83811015611a34578181015183820152602001611a1c565b83811115611a43576000848401525b50505050565b60008151808452611a61816020860160208601611a19565b601f017fffffffffffffffffffffffffffffffffffffffffffffffffffffffffffffffe0169290920160200192915050565b604081526000611aa66040830185611a49565b828103602084015261184e8185611a49565b6020808252825182820181905260009190848201906040850190845b81811015611b0657835173ffffffffffffffffffffffffffffffffffffffff1683529284019291840191600101611ad4565b50909695505050505050565b60008060408385031215611b2557600080fd5b8235611b30816119d7565b91506020830135611b40816119d7565b809150509250929050565b600060208284031215611b5d57600080fd5b8151610bec816119d7565b7f4e487b7100000000000000000000000000000000000000000000000000000000600052604160045260246000fd5b604051601f82017fffffffffffffffffffffffffffffffffffffffffffffffffffffffffffffffe016810167ffffffffffffffff81118282101715611bde57611bde611b68565b604052919050565b80518015158114611bf657600080fd5b919050565b805163ffffffff81168114611bf657600080fd5b600060a08284031215611c2157600080fd5b60405160a0810181811067ffffffffffffffff82111715611c4457611c44611b68565b6040528251611c52816119d7565b8152611c6060208401611be6565b6020820152611c7160408401611bfb565b6040820152611c8260608401611bfb565b6060820152608083015162ffffff81168114611c9d57600080fd5b60808201529392505050565b600080600060608486031215611cbe57600080fd5b835161ffff81168114611cd057600080fd5b9250611cde60208501611bfb565b91506040840151611cee816119d7565b809150509250925092565b60006020808385031215611d0c57600080fd5b825167ffffffffffffffff80821115611d2457600080fd5b818501915085601f830112611d3857600080fd5b815181811115611d4a57611d4a611b68565b8060051b9150611d5b848301611b97565b8181529183018401918481019088841115611d7557600080fd5b938501935b83851015611d9f5784519250611d8f836119d7565b8282529385019390850190611d7a565b98975050505050505050565b600060208284031215611dbd57600080fd5b5051919050565b600080600060608486031215611dd957600080fd5b8351925060208401519150604084015190509250925092565b600060208284031215611e0457600080fd5b610bec82611bfb565b7f4e487b7100000000000000000000000000000000000000000000000000000000600052601160045260246000fd5b6000817fffffffffffffffffffffffffffffffffffffffffffffffffffffffffffffffff0483118215151615611e7457611e74611e0d565b500290565b60008219821115611e8c57611e8c611e0d565b500190565b600082821015611ea357611ea3611e0d565b500390565b600060208284031215611eba57600080fd5b815180600b0b8114610bec57600080fd5b600060808284031215611edd57600080fd5b6040516080810181811067ffffffffffffffff82111715611f0057611f00611b68565b8060405250825181526020830151602082015260408301516040820152611f2960608401611be6565b60608201529392505050565b600082611f6b577f4e487b7100000000000000000000000000000000000000000000000000000000600052601260045260246000fd5b500490565b60008251611f82818460208701611a19565b9190910192915050565b600060208284031215611f9e57600080fd5b815167ffffffffffffffff80821115611fb657600080fd5b818401915084601f830112611fca57600080fd5b815181811115611fdc57611fdc611b68565b61200d60207fffffffffffffffffffffffffffffffffffffffffffffffffffffffffffffffe0601f84011601611b97565b915080825285602082850101111561202457600080fd5b612035816020840160208601611a19565b5094935050505056fea2646970667358221220916f8d06c6c1e8148a325c44bd0f6e18ad4788170d4e07197bd6a685590df9a364736f6c634300080a0033",
  "linkReferences": {},
  "deployedLinkReferences": {}
}