{
  "_format": "hh-sol-artifact-1",
  "contractName": "ChainlinkBasedOracle",
  "sourceName": "contracts/oracles/chainlinkBasedOracle.sol",
  "abi": [
    {
      "inputs": [
        {
          "internalType": "address",
          "name": "_underlyingUSDChainlinkAggregator",
          "type": "address"
        },
        {
          "internalType": "address",
          "name": "_ETHUSDChainlinkAggregator",
          "type": "address"
        },
        {
          "internalType": "string",
          "name": "_description",
          "type": "string"
        }
      ],
      "stateMutability": "nonpayable",
      "type": "constructor"
    },
    {
      "inputs": [],
      "name": "ETHUSDChainlinkAggregator",
      "outputs": [
        {
          "internalType": "address",
          "name": "",
          "type": "address"
        }
      ],
      "stateMutability": "view",
      "type": "function"
    },
    {
      "inputs": [],
      "name": "decimals",
      "outputs": [
        {
          "internalType": "uint8",
          "name": "",
          "type": "uint8"
        }
      ],
      "stateMutability": "pure",
      "type": "function"
    },
    {
      "inputs": [],
      "name": "description",
      "outputs": [
        {
          "internalType": "string",
          "name": "",
          "type": "string"
        }
      ],
      "stateMutability": "view",
      "type": "function"
    },
    {
      "inputs": [],
      "name": "latestAnswer",
      "outputs": [
        {
          "internalType": "int256",
          "name": "answer",
          "type": "int256"
        }
      ],
      "stateMutability": "view",
      "type": "function"
    },
    {
      "inputs": [],
      "name": "latestTimestamp",
      "outputs": [
        {
          "internalType": "uint256",
          "name": "timestamp",
          "type": "uint256"
        }
      ],
      "stateMutability": "view",
      "type": "function"
    },
    {
      "inputs": [],
      "name": "underlyingUSDChainlinkAggregator",
      "outputs": [
        {
          "internalType": "address",
          "name": "",
          "type": "address"
        }
      ],
      "stateMutability": "view",
      "type": "function"
    }
  ],
  "bytecode": "0x60c060405234801561001057600080fd5b506040516108e33803806108e383398101604081905261002f91610129565b6001600160a01b03808416608052821660a052805161005590600090602084019061005e565b50505050610257565b82805461006a9061021c565b90600052602060002090601f01602090048101928261008c57600085556100d2565b82601f106100a557805160ff19168380011785556100d2565b828001600101855582156100d2579182015b828111156100d25782518255916020019190600101906100b7565b506100de9291506100e2565b5090565b5b808211156100de57600081556001016100e3565b80516001600160a01b038116811461010e57600080fd5b919050565b634e487b7160e01b600052604160045260246000fd5b60008060006060848603121561013e57600080fd5b610147846100f7565b925060206101568186016100f7565b60408601519093506001600160401b038082111561017357600080fd5b818701915087601f83011261018757600080fd5b81518181111561019957610199610113565b604051601f8201601f19908116603f011681019083821181831017156101c1576101c1610113565b816040528281528a868487010111156101d957600080fd5b600093505b828410156101fb57848401860151818501870152928501926101de565b8284111561020c5760008684830101525b8096505050505050509250925092565b600181811c9082168061023057607f821691505b6020821081141561025157634e487b7160e01b600052602260045260246000fd5b50919050565b60805160a0516106536102906000396000818160c3015261013601526000818161010f015281816101c9015261033101526106536000f3fe608060405234801561001057600080fd5b50600436106100725760003560e01c80638205bf6a116100505780638205bf6a146100b6578063926b7cba146100be578063fb158ed41461010a57600080fd5b8063313ce5671461007757806350d25bcd1461008b5780637284e416146100a1575b600080fd5b604051601281526020015b60405180910390f35b610093610131565b604051908152602001610082565b6100a961029b565b60405161008291906103c3565b61009361032d565b6100e57f000000000000000000000000000000000000000000000000000000000000000081565b60405173ffffffffffffffffffffffffffffffffffffffff9091168152602001610082565b6100e57f000000000000000000000000000000000000000000000000000000000000000081565b6000807f000000000000000000000000000000000000000000000000000000000000000073ffffffffffffffffffffffffffffffffffffffff166350d25bcd6040518163ffffffff1660e01b8152600401602060405180830381865afa15801561019f573d6000803e3d6000fd5b505050506040513d601f19601f820116820180604052508101906101c39190610436565b905060007f000000000000000000000000000000000000000000000000000000000000000073ffffffffffffffffffffffffffffffffffffffff166350d25bcd6040518163ffffffff1660e01b8152600401602060405180830381865afa158015610232573d6000803e3d6000fd5b505050506040513d601f19601f820116820180604052508101906102569190610436565b9050600082131580610269575060008113155b156102775760009250505090565b8161028a82670de0b6b3a764000061047e565b610294919061053a565b9250505090565b6060600080546102aa906105c9565b80601f01602080910402602001604051908101604052809291908181526020018280546102d6906105c9565b80156103235780601f106102f857610100808354040283529160200191610323565b820191906000526020600020905b81548152906001019060200180831161030657829003601f168201915b5050505050905090565b60007f000000000000000000000000000000000000000000000000000000000000000073ffffffffffffffffffffffffffffffffffffffff16638205bf6a6040518163ffffffff1660e01b8152600401602060405180830381865afa15801561039a573d6000803e3d6000fd5b505050506040513d601f19601f820116820180604052508101906103be9190610436565b905090565b600060208083528351808285015260005b818110156103f0578581018301518582016040015282016103d4565b81811115610402576000604083870101525b50601f017fffffffffffffffffffffffffffffffffffffffffffffffffffffffffffffffe016929092016040019392505050565b60006020828403121561044857600080fd5b5051919050565b7f4e487b7100000000000000000000000000000000000000000000000000000000600052601160045260246000fd5b60007f7fffffffffffffffffffffffffffffffffffffffffffffffffffffffffffffff6000841360008413858304851182821616156104bf576104bf61044f565b7f800000000000000000000000000000000000000000000000000000000000000060008712868205881281841616156104fa576104fa61044f565b600087129250878205871284841616156105165761051661044f565b8785058712818416161561052c5761052c61044f565b505050929093029392505050565b600082610570577f4e487b7100000000000000000000000000000000000000000000000000000000600052601260045260246000fd5b7fffffffffffffffffffffffffffffffffffffffffffffffffffffffffffffffff83147f8000000000000000000000000000000000000000000000000000000000000000831416156105c4576105c461044f565b500590565b600181811c908216806105dd57607f821691505b60208210811415610617577f4e487b7100000000000000000000000000000000000000000000000000000000600052602260045260246000fd5b5091905056fea2646970667358221220d5430001e10b384c20da2cad2a91d62145850ec04c2d5f37d4b25db849b5a65164736f6c634300080a0033",
  "linkReferences": {},
  "deployedLinkReferences": {}
}