{
  "_format": "hh-sol-artifact-1",
  "contractName": "Swap",
  "sourceName": "contracts/modules/Swap.sol",
  "abi": [
    {
      "inputs": [
        {
          "internalType": "bytes32",
          "name": "moduleGitCommit_",
          "type": "bytes32"
        },
        {
          "internalType": "address",
          "name": "uniswapRouter_",
          "type": "address"
        },
        {
          "internalType": "address",
          "name": "oneInch_",
          "type": "address"
        }
      ],
      "stateMutability": "nonpayable",
      "type": "constructor"
    },
    {
      "anonymous": false,
      "inputs": [
        {
          "indexed": true,
          "internalType": "address",
          "name": "underlying",
          "type": "address"
        },
        {
          "indexed": false,
          "internalType": "uint256",
          "name": "totalBalances",
          "type": "uint256"
        },
        {
          "indexed": false,
          "internalType": "uint256",
          "name": "totalBorrows",
          "type": "uint256"
        },
        {
          "indexed": false,
          "internalType": "uint96",
          "name": "reserveBalance",
          "type": "uint96"
        },
        {
          "indexed": false,
          "internalType": "uint256",
          "name": "poolSize",
          "type": "uint256"
        },
        {
          "indexed": false,
          "internalType": "uint256",
          "name": "interestAccumulator",
          "type": "uint256"
        },
        {
          "indexed": false,
          "internalType": "int96",
          "name": "interestRate",
          "type": "int96"
        },
        {
          "indexed": false,
          "internalType": "uint256",
          "name": "timestamp",
          "type": "uint256"
        }
      ],
      "name": "AssetStatus",
      "type": "event"
    },
    {
      "anonymous": false,
      "inputs": [
        {
          "indexed": true,
          "internalType": "address",
          "name": "underlying",
          "type": "address"
        },
        {
          "indexed": true,
          "internalType": "address",
          "name": "account",
          "type": "address"
        },
        {
          "indexed": false,
          "internalType": "uint256",
          "name": "amount",
          "type": "uint256"
        }
      ],
      "name": "Borrow",
      "type": "event"
    },
    {
      "anonymous": false,
      "inputs": [
        {
          "indexed": true,
          "internalType": "address",
          "name": "account",
          "type": "address"
        },
        {
          "indexed": true,
          "internalType": "address",
          "name": "delegate",
          "type": "address"
        }
      ],
      "name": "DelegateAverageLiquidity",
      "type": "event"
    },
    {
      "anonymous": false,
      "inputs": [
        {
          "indexed": true,
          "internalType": "address",
          "name": "underlying",
          "type": "address"
        },
        {
          "indexed": true,
          "internalType": "address",
          "name": "account",
          "type": "address"
        },
        {
          "indexed": false,
          "internalType": "uint256",
          "name": "amount",
          "type": "uint256"
        }
      ],
      "name": "Deposit",
      "type": "event"
    },
    {
      "anonymous": false,
      "inputs": [
        {
          "indexed": true,
          "internalType": "address",
          "name": "underlying",
          "type": "address"
        },
        {
          "indexed": true,
          "internalType": "address",
          "name": "account",
          "type": "address"
        }
      ],
      "name": "EnterMarket",
      "type": "event"
    },
    {
      "anonymous": false,
      "inputs": [
        {
          "indexed": true,
          "internalType": "address",
          "name": "underlying",
          "type": "address"
        },
        {
          "indexed": true,
          "internalType": "address",
          "name": "account",
          "type": "address"
        }
      ],
      "name": "ExitMarket",
      "type": "event"
    },
    {
      "anonymous": false,
      "inputs": [],
      "name": "Genesis",
      "type": "event"
    },
    {
      "anonymous": false,
      "inputs": [
        {
          "indexed": true,
          "internalType": "address",
          "name": "underlying",
          "type": "address"
        },
        {
          "indexed": true,
          "internalType": "address",
          "name": "recipient",
          "type": "address"
        },
        {
          "indexed": false,
          "internalType": "uint256",
          "name": "amount",
          "type": "uint256"
        }
      ],
      "name": "GovConvertReserves",
      "type": "event"
    },
    {
      "anonymous": false,
      "inputs": [
        {
          "indexed": true,
          "internalType": "address",
          "name": "underlying",
          "type": "address"
        },
        {
          "components": [
            {
              "internalType": "address",
              "name": "eTokenAddress",
              "type": "address"
            },
            {
              "internalType": "bool",
              "name": "borrowIsolated",
              "type": "bool"
            },
            {
              "internalType": "uint32",
              "name": "collateralFactor",
              "type": "uint32"
            },
            {
              "internalType": "uint32",
              "name": "borrowFactor",
              "type": "uint32"
            },
            {
              "internalType": "uint24",
              "name": "twapWindow",
              "type": "uint24"
            }
          ],
          "indexed": false,
          "internalType": "struct Storage.AssetConfig",
          "name": "newConfig",
          "type": "tuple"
        }
      ],
      "name": "GovSetAssetConfig",
      "type": "event"
    },
    {
      "anonymous": false,
      "inputs": [
        {
          "indexed": true,
          "internalType": "address",
          "name": "underlying",
          "type": "address"
        },
        {
          "indexed": false,
          "internalType": "address",
          "name": "chainlinkAggregator",
          "type": "address"
        }
      ],
      "name": "GovSetChainlinkPriceFeed",
      "type": "event"
    },
    {
      "anonymous": false,
      "inputs": [
        {
          "indexed": true,
          "internalType": "address",
          "name": "underlying",
          "type": "address"
        },
        {
          "indexed": false,
          "internalType": "uint256",
          "name": "interestRateModel",
          "type": "uint256"
        },
        {
          "indexed": false,
          "internalType": "bytes",
          "name": "resetParams",
          "type": "bytes"
        }
      ],
      "name": "GovSetIRM",
      "type": "event"
    },
    {
      "anonymous": false,
      "inputs": [
        {
          "indexed": true,
          "internalType": "address",
          "name": "underlying",
          "type": "address"
        },
        {
          "indexed": false,
          "internalType": "uint16",
          "name": "newPricingType",
          "type": "uint16"
        },
        {
          "indexed": false,
          "internalType": "uint32",
          "name": "newPricingParameter",
          "type": "uint32"
        }
      ],
      "name": "GovSetPricingConfig",
      "type": "event"
    },
    {
      "anonymous": false,
      "inputs": [
        {
          "indexed": true,
          "internalType": "address",
          "name": "underlying",
          "type": "address"
        },
        {
          "indexed": false,
          "internalType": "uint32",
          "name": "newReserveFee",
          "type": "uint32"
        }
      ],
      "name": "GovSetReserveFee",
      "type": "event"
    },
    {
      "anonymous": false,
      "inputs": [
        {
          "indexed": true,
          "internalType": "uint256",
          "name": "moduleId",
          "type": "uint256"
        },
        {
          "indexed": true,
          "internalType": "address",
          "name": "moduleImpl",
          "type": "address"
        },
        {
          "indexed": false,
          "internalType": "bytes32",
          "name": "moduleGitCommit",
          "type": "bytes32"
        }
      ],
      "name": "InstallerInstallModule",
      "type": "event"
    },
    {
      "anonymous": false,
      "inputs": [
        {
          "indexed": true,
          "internalType": "address",
          "name": "newGovernorAdmin",
          "type": "address"
        }
      ],
      "name": "InstallerSetGovernorAdmin",
      "type": "event"
    },
    {
      "anonymous": false,
      "inputs": [
        {
          "indexed": true,
          "internalType": "address",
          "name": "newUpgradeAdmin",
          "type": "address"
        }
      ],
      "name": "InstallerSetUpgradeAdmin",
      "type": "event"
    },
    {
      "anonymous": false,
      "inputs": [
        {
          "indexed": true,
          "internalType": "address",
          "name": "liquidator",
          "type": "address"
        },
        {
          "indexed": true,
          "internalType": "address",
          "name": "violator",
          "type": "address"
        },
        {
          "indexed": true,
          "internalType": "address",
          "name": "underlying",
          "type": "address"
        },
        {
          "indexed": false,
          "internalType": "address",
          "name": "collateral",
          "type": "address"
        },
        {
          "indexed": false,
          "internalType": "uint256",
          "name": "repay",
          "type": "uint256"
        },
        {
          "indexed": false,
          "internalType": "uint256",
          "name": "yield",
          "type": "uint256"
        },
        {
          "indexed": false,
          "internalType": "uint256",
          "name": "healthScore",
          "type": "uint256"
        },
        {
          "indexed": false,
          "internalType": "uint256",
          "name": "baseDiscount",
          "type": "uint256"
        },
        {
          "indexed": false,
          "internalType": "uint256",
          "name": "discount",
          "type": "uint256"
        }
      ],
      "name": "Liquidation",
      "type": "event"
    },
    {
      "anonymous": false,
      "inputs": [
        {
          "indexed": true,
          "internalType": "address",
          "name": "underlying",
          "type": "address"
        },
        {
          "indexed": true,
          "internalType": "address",
          "name": "eToken",
          "type": "address"
        },
        {
          "indexed": true,
          "internalType": "address",
          "name": "dToken",
          "type": "address"
        }
      ],
      "name": "MarketActivated",
      "type": "event"
    },
    {
      "anonymous": false,
      "inputs": [
        {
          "indexed": true,
          "internalType": "address",
          "name": "underlying",
          "type": "address"
        },
        {
          "indexed": true,
          "internalType": "address",
          "name": "pToken",
          "type": "address"
        }
      ],
      "name": "PTokenActivated",
      "type": "event"
    },
    {
      "anonymous": false,
      "inputs": [
        {
          "indexed": true,
          "internalType": "address",
          "name": "underlying",
          "type": "address"
        },
        {
          "indexed": true,
          "internalType": "address",
          "name": "account",
          "type": "address"
        },
        {
          "indexed": false,
          "internalType": "uint256",
          "name": "amount",
          "type": "uint256"
        }
      ],
      "name": "PTokenUnWrap",
      "type": "event"
    },
    {
      "anonymous": false,
      "inputs": [
        {
          "indexed": true,
          "internalType": "address",
          "name": "underlying",
          "type": "address"
        },
        {
          "indexed": true,
          "internalType": "address",
          "name": "account",
          "type": "address"
        },
        {
          "indexed": false,
          "internalType": "uint256",
          "name": "amount",
          "type": "uint256"
        }
      ],
      "name": "PTokenWrap",
      "type": "event"
    },
    {
      "anonymous": false,
      "inputs": [
        {
          "indexed": true,
          "internalType": "address",
          "name": "proxy",
          "type": "address"
        },
        {
          "indexed": false,
          "internalType": "uint256",
          "name": "moduleId",
          "type": "uint256"
        }
      ],
      "name": "ProxyCreated",
      "type": "event"
    },
    {
      "anonymous": false,
      "inputs": [
        {
          "indexed": true,
          "internalType": "address",
          "name": "underlying",
          "type": "address"
        },
        {
          "indexed": true,
          "internalType": "address",
          "name": "account",
          "type": "address"
        },
        {
          "indexed": false,
          "internalType": "uint256",
          "name": "amount",
          "type": "uint256"
        }
      ],
      "name": "Repay",
      "type": "event"
    },
    {
      "anonymous": false,
      "inputs": [
        {
          "indexed": true,
          "internalType": "address",
          "name": "account",
          "type": "address"
        },
        {
          "indexed": false,
          "internalType": "uint256",
          "name": "amount",
          "type": "uint256"
        }
      ],
      "name": "RequestBorrow",
      "type": "event"
    },
    {
      "anonymous": false,
      "inputs": [
        {
          "indexed": true,
          "internalType": "address",
          "name": "account",
          "type": "address"
        },
        {
          "indexed": false,
          "internalType": "uint256",
          "name": "amount",
          "type": "uint256"
        }
      ],
      "name": "RequestBurn",
      "type": "event"
    },
    {
      "anonymous": false,
      "inputs": [
        {
          "indexed": true,
          "internalType": "address",
          "name": "account",
          "type": "address"
        },
        {
          "indexed": false,
          "internalType": "uint256",
          "name": "amount",
          "type": "uint256"
        }
      ],
      "name": "RequestDeposit",
      "type": "event"
    },
    {
      "anonymous": false,
      "inputs": [
        {
          "indexed": true,
          "internalType": "address",
          "name": "account",
          "type": "address"
        },
        {
          "indexed": false,
          "internalType": "uint256",
          "name": "amount",
          "type": "uint256"
        }
      ],
      "name": "RequestDonate",
      "type": "event"
    },
    {
      "anonymous": false,
      "inputs": [
        {
          "indexed": true,
          "internalType": "address",
          "name": "liquidator",
          "type": "address"
        },
        {
          "indexed": true,
          "internalType": "address",
          "name": "violator",
          "type": "address"
        },
        {
          "indexed": true,
          "internalType": "address",
          "name": "underlying",
          "type": "address"
        },
        {
          "indexed": false,
          "internalType": "address",
          "name": "collateral",
          "type": "address"
        },
        {
          "indexed": false,
          "internalType": "uint256",
          "name": "repay",
          "type": "uint256"
        },
        {
          "indexed": false,
          "internalType": "uint256",
          "name": "minYield",
          "type": "uint256"
        }
      ],
      "name": "RequestLiquidate",
      "type": "event"
    },
    {
      "anonymous": false,
      "inputs": [
        {
          "indexed": true,
          "internalType": "address",
          "name": "account",
          "type": "address"
        },
        {
          "indexed": false,
          "internalType": "uint256",
          "name": "amount",
          "type": "uint256"
        }
      ],
      "name": "RequestMint",
      "type": "event"
    },
    {
      "anonymous": false,
      "inputs": [
        {
          "indexed": true,
          "internalType": "address",
          "name": "account",
          "type": "address"
        },
        {
          "indexed": false,
          "internalType": "uint256",
          "name": "amount",
          "type": "uint256"
        }
      ],
      "name": "RequestRepay",
      "type": "event"
    },
    {
      "anonymous": false,
      "inputs": [
        {
          "indexed": true,
          "internalType": "address",
          "name": "accountIn",
          "type": "address"
        },
        {
          "indexed": true,
          "internalType": "address",
          "name": "accountOut",
          "type": "address"
        },
        {
          "indexed": true,
          "internalType": "address",
          "name": "underlyingIn",
          "type": "address"
        },
        {
          "indexed": false,
          "internalType": "address",
          "name": "underlyingOut",
          "type": "address"
        },
        {
          "indexed": false,
          "internalType": "uint256",
          "name": "amount",
          "type": "uint256"
        },
        {
          "indexed": false,
          "internalType": "uint256",
          "name": "swapType",
          "type": "uint256"
        }
      ],
      "name": "RequestSwap",
      "type": "event"
    },
    {
      "anonymous": false,
      "inputs": [
        {
          "indexed": true,
          "internalType": "address",
          "name": "from",
          "type": "address"
        },
        {
          "indexed": true,
          "internalType": "address",
          "name": "to",
          "type": "address"
        },
        {
          "indexed": false,
          "internalType": "uint256",
          "name": "amount",
          "type": "uint256"
        }
      ],
      "name": "RequestTransferDToken",
      "type": "event"
    },
    {
      "anonymous": false,
      "inputs": [
        {
          "indexed": true,
          "internalType": "address",
          "name": "from",
          "type": "address"
        },
        {
          "indexed": true,
          "internalType": "address",
          "name": "to",
          "type": "address"
        },
        {
          "indexed": false,
          "internalType": "uint256",
          "name": "amount",
          "type": "uint256"
        }
      ],
      "name": "RequestTransferEToken",
      "type": "event"
    },
    {
      "anonymous": false,
      "inputs": [
        {
          "indexed": true,
          "internalType": "address",
          "name": "account",
          "type": "address"
        },
        {
          "indexed": false,
          "internalType": "uint256",
          "name": "amount",
          "type": "uint256"
        }
      ],
      "name": "RequestWithdraw",
      "type": "event"
    },
    {
      "anonymous": false,
      "inputs": [
        {
          "indexed": true,
          "internalType": "address",
          "name": "account",
          "type": "address"
        }
      ],
      "name": "TrackAverageLiquidity",
      "type": "event"
    },
    {
      "anonymous": false,
      "inputs": [
        {
          "indexed": true,
          "internalType": "address",
          "name": "account",
          "type": "address"
        }
      ],
      "name": "UnTrackAverageLiquidity",
      "type": "event"
    },
    {
      "anonymous": false,
      "inputs": [
        {
          "indexed": true,
          "internalType": "address",
          "name": "underlying",
          "type": "address"
        },
        {
          "indexed": true,
          "internalType": "address",
          "name": "account",
          "type": "address"
        },
        {
          "indexed": false,
          "internalType": "uint256",
          "name": "amount",
          "type": "uint256"
        }
      ],
      "name": "Withdraw",
      "type": "event"
    },
    {
      "inputs": [],
      "name": "moduleGitCommit",
      "outputs": [
        {
          "internalType": "bytes32",
          "name": "",
          "type": "bytes32"
        }
      ],
      "stateMutability": "view",
      "type": "function"
    },
    {
      "inputs": [],
      "name": "moduleId",
      "outputs": [
        {
          "internalType": "uint256",
          "name": "",
          "type": "uint256"
        }
      ],
      "stateMutability": "view",
      "type": "function"
    },
    {
      "inputs": [],
      "name": "oneInch",
      "outputs": [
        {
          "internalType": "address",
          "name": "",
          "type": "address"
        }
      ],
      "stateMutability": "view",
      "type": "function"
    },
    {
      "inputs": [
        {
          "components": [
            {
              "internalType": "uint256",
              "name": "subAccountIdIn",
              "type": "uint256"
            },
            {
              "internalType": "uint256",
              "name": "subAccountIdOut",
              "type": "uint256"
            },
            {
              "internalType": "address",
              "name": "underlyingIn",
              "type": "address"
            },
            {
              "internalType": "address",
              "name": "underlyingOut",
              "type": "address"
            },
            {
              "internalType": "uint256",
              "name": "amount",
              "type": "uint256"
            },
            {
              "internalType": "uint256",
              "name": "amountOutMinimum",
              "type": "uint256"
            },
            {
              "internalType": "bytes",
              "name": "payload",
              "type": "bytes"
            }
          ],
          "internalType": "struct Swap.Swap1InchParams",
          "name": "params",
          "type": "tuple"
        }
      ],
      "name": "swap1Inch",
      "outputs": [],
      "stateMutability": "nonpayable",
      "type": "function"
    },
    {
      "inputs": [
        {
          "components": [
            {
              "internalType": "uint256",
              "name": "subAccountIdIn",
              "type": "uint256"
            },
            {
              "internalType": "uint256",
              "name": "subAccountIdOut",
              "type": "uint256"
            },
            {
              "internalType": "uint256",
              "name": "amountOut",
              "type": "uint256"
            },
            {
              "internalType": "uint256",
              "name": "amountInMaximum",
              "type": "uint256"
            },
            {
              "internalType": "uint256",
              "name": "deadline",
              "type": "uint256"
            },
            {
              "internalType": "bytes",
              "name": "path",
              "type": "bytes"
            }
          ],
          "internalType": "struct Swap.SwapUniExactOutputParams",
          "name": "params",
          "type": "tuple"
        },
        {
          "internalType": "uint256",
          "name": "targetDebt",
          "type": "uint256"
        }
      ],
      "name": "swapAndRepayUni",
      "outputs": [],
      "stateMutability": "nonpayable",
      "type": "function"
    },
    {
      "inputs": [
        {
          "components": [
            {
              "internalType": "uint256",
              "name": "subAccountIdIn",
              "type": "uint256"
            },
            {
              "internalType": "uint256",
              "name": "subAccountIdOut",
              "type": "uint256"
            },
            {
              "internalType": "address",
              "name": "underlyingIn",
              "type": "address"
            },
            {
              "internalType": "address",
              "name": "underlyingOut",
              "type": "address"
            },
            {
              "internalType": "uint256",
              "name": "amountOut",
              "type": "uint256"
            },
            {
              "internalType": "uint256",
              "name": "amountInMaximum",
              "type": "uint256"
            },
            {
              "internalType": "uint256",
              "name": "deadline",
              "type": "uint256"
            },
            {
              "internalType": "uint24",
              "name": "fee",
              "type": "uint24"
            },
            {
              "internalType": "uint160",
              "name": "sqrtPriceLimitX96",
              "type": "uint160"
            }
          ],
          "internalType": "struct Swap.SwapUniExactOutputSingleParams",
          "name": "params",
          "type": "tuple"
        },
        {
          "internalType": "uint256",
          "name": "targetDebt",
          "type": "uint256"
        }
      ],
      "name": "swapAndRepayUniSingle",
      "outputs": [],
      "stateMutability": "nonpayable",
      "type": "function"
    },
    {
      "inputs": [
        {
          "components": [
            {
              "internalType": "uint256",
              "name": "subAccountIdIn",
              "type": "uint256"
            },
            {
              "internalType": "uint256",
              "name": "subAccountIdOut",
              "type": "uint256"
            },
            {
              "internalType": "uint256",
              "name": "amountIn",
              "type": "uint256"
            },
            {
              "internalType": "uint256",
              "name": "amountOutMinimum",
              "type": "uint256"
            },
            {
              "internalType": "uint256",
              "name": "deadline",
              "type": "uint256"
            },
            {
              "internalType": "bytes",
              "name": "path",
              "type": "bytes"
            }
          ],
          "internalType": "struct Swap.SwapUniExactInputParams",
          "name": "params",
          "type": "tuple"
        }
      ],
      "name": "swapUniExactInput",
      "outputs": [],
      "stateMutability": "nonpayable",
      "type": "function"
    },
    {
      "inputs": [
        {
          "components": [
            {
              "internalType": "uint256",
              "name": "subAccountIdIn",
              "type": "uint256"
            },
            {
              "internalType": "uint256",
              "name": "subAccountIdOut",
              "type": "uint256"
            },
            {
              "internalType": "address",
              "name": "underlyingIn",
              "type": "address"
            },
            {
              "internalType": "address",
              "name": "underlyingOut",
              "type": "address"
            },
            {
              "internalType": "uint256",
              "name": "amountIn",
              "type": "uint256"
            },
            {
              "internalType": "uint256",
              "name": "amountOutMinimum",
              "type": "uint256"
            },
            {
              "internalType": "uint256",
              "name": "deadline",
              "type": "uint256"
            },
            {
              "internalType": "uint24",
              "name": "fee",
              "type": "uint24"
            },
            {
              "internalType": "uint160",
              "name": "sqrtPriceLimitX96",
              "type": "uint160"
            }
          ],
          "internalType": "struct Swap.SwapUniExactInputSingleParams",
          "name": "params",
          "type": "tuple"
        }
      ],
      "name": "swapUniExactInputSingle",
      "outputs": [],
      "stateMutability": "nonpayable",
      "type": "function"
    },
    {
      "inputs": [
        {
          "components": [
            {
              "internalType": "uint256",
              "name": "subAccountIdIn",
              "type": "uint256"
            },
            {
              "internalType": "uint256",
              "name": "subAccountIdOut",
              "type": "uint256"
            },
            {
              "internalType": "uint256",
              "name": "amountOut",
              "type": "uint256"
            },
            {
              "internalType": "uint256",
              "name": "amountInMaximum",
              "type": "uint256"
            },
            {
              "internalType": "uint256",
              "name": "deadline",
              "type": "uint256"
            },
            {
              "internalType": "bytes",
              "name": "path",
              "type": "bytes"
            }
          ],
          "internalType": "struct Swap.SwapUniExactOutputParams",
          "name": "params",
          "type": "tuple"
        }
      ],
      "name": "swapUniExactOutput",
      "outputs": [],
      "stateMutability": "nonpayable",
      "type": "function"
    },
    {
      "inputs": [
        {
          "components": [
            {
              "internalType": "uint256",
              "name": "subAccountIdIn",
              "type": "uint256"
            },
            {
              "internalType": "uint256",
              "name": "subAccountIdOut",
              "type": "uint256"
            },
            {
              "internalType": "address",
              "name": "underlyingIn",
              "type": "address"
            },
            {
              "internalType": "address",
              "name": "underlyingOut",
              "type": "address"
            },
            {
              "internalType": "uint256",
              "name": "amountOut",
              "type": "uint256"
            },
            {
              "internalType": "uint256",
              "name": "amountInMaximum",
              "type": "uint256"
            },
            {
              "internalType": "uint256",
              "name": "deadline",
              "type": "uint256"
            },
            {
              "internalType": "uint24",
              "name": "fee",
              "type": "uint24"
            },
            {
              "internalType": "uint160",
              "name": "sqrtPriceLimitX96",
              "type": "uint160"
            }
          ],
          "internalType": "struct Swap.SwapUniExactOutputSingleParams",
          "name": "params",
          "type": "tuple"
        }
      ],
      "name": "swapUniExactOutputSingle",
      "outputs": [],
      "stateMutability": "nonpayable",
      "type": "function"
    },
    {
      "inputs": [],
      "name": "uniswapRouter",
      "outputs": [
        {
          "internalType": "address",
          "name": "",
          "type": "address"
        }
      ],
      "stateMutability": "view",
      "type": "function"
    }
  ],
  "bytecode": "0x6101006040523480156200001257600080fd5b506040516200436d3803806200436d833981016040819052620000359162000075565b600660805260a0929092526001600160a01b0390811660c0521660e052620000b6565b80516001600160a01b03811681146200007057600080fd5b919050565b6000806000606084860312156200008b57600080fd5b835192506200009d6020850162000058565b9150620000ad6040850162000058565b90509250925092565b60805160a05160c05160e05161422a620001436000396000818160d30152818161054b015261057a0152600081816101810152818161081f0152818161084b01528181610a7801528181610aa401528181611297015281816112c40152818161146b015281816115600152818161158d015261179f0152600061014c015260006101e1015261422a6000f3fe608060405234801561001057600080fd5b50600436106100c95760003560e01c80637ee3d88911610081578063a1308f271161005b578063a1308f27146101dc578063f205beb014610203578063fa258bf91461021657600080fd5b80637ee3d889146101a357806382d7af8f146101b65780638dfb1f36146101c957600080fd5b8063465734c8116100b2578063465734c81461013457806369a92ea314610147578063735de9f71461017c57600080fd5b8063045c08d5146100ce578063228487951461011f575b600080fd5b6100f57f000000000000000000000000000000000000000000000000000000000000000081565b60405173ffffffffffffffffffffffffffffffffffffffff90911681526020015b60405180910390f35b61013261012d366004613bbf565b610229565b005b610132610142366004613cd4565b610303565b61016e7f000000000000000000000000000000000000000000000000000000000000000081565b604051908152602001610116565b6100f57f000000000000000000000000000000000000000000000000000000000000000081565b6101326101b1366004613cf1565b6103c5565b6101326101c4366004613d26565b610498565b6101326101d7366004613ddd565b6106a8565b61016e7f000000000000000000000000000000000000000000000000000000000000000081565b610132610211366004613cd4565b61076c565b610132610224366004613cf1565b6109bb565b60016000541461029a576040517f08c379a000000000000000000000000000000000000000000000000000000000815260206004820152600c60248201527f652f7265656e7472616e6379000000000000000000000000000000000000000060448201526064015b60405180910390fd5b60026000819055506000806102b48460a001516001610bad565b9150915060006102d1838386886000015189602001516007610d01565b90506102dd81856111a6565b6101208201526102ee818685611291565b6102f781611497565b50506001600055505050565b60016000541461036f576040517f08c379a000000000000000000000000000000000000000000000000000000000815260206004820152600c60248201527f652f7265656e7472616e637900000000000000000000000000000000000000006044820152606401610291565b6002600081905550600061039c826040015183606001518460800151856000015186602001516003610d01565b608083015161012082015290506103b38183611556565b6103bc816117ca565b50506001600055565b600160005414610431576040517f08c379a000000000000000000000000000000000000000000000000000000000815260206004820152600c60248201527f652f7265656e7472616e637900000000000000000000000000000000000000006044820152606401610291565b600260008190555060008061044b8360a001516001610bad565b91509150600061046c83838660400151876000015188602001516004610d01565b60408501516101208201529050610484818585611291565b61048d816117ca565b505060016000555050565b600160005414610504576040517f08c379a000000000000000000000000000000000000000000000000000000000815260206004820152600c60248201527f652f7265656e7472616e637900000000000000000000000000000000000000006044820152606401610291565b60026000819055506000610531826040015183606001518460800151856000015186602001516005610d01565b905061054181836080015161187f565b61057582604001517f0000000000000000000000000000000000000000000000000000000000000000836101000151611956565b6000807f000000000000000000000000000000000000000000000000000000000000000073ffffffffffffffffffffffffffffffffffffffff168460c001516040516105c19190613e36565b6000604051808303816000865af19150503d80600081146105fe576040519150601f19603f3d011682016040523d82523d6000602084013e610603565b606091505b5091509150816106165761061681611a9a565b8080602001905181019061062a9190613e52565b610120840181905260a0850151111561069f576040517f08c379a000000000000000000000000000000000000000000000000000000000815260206004820152601560248201527f652f737761702f6d696e2d616d6f756e742d6f757400000000000000000000006044820152606401610291565b61048d836117ca565b600160005414610714576040517f08c379a000000000000000000000000000000000000000000000000000000000815260206004820152600c60248201527f652f7265656e7472616e637900000000000000000000000000000000000000006044820152606401610291565b6002600081905550600061073d8360400151846060015184866000015187602001516006610d01565b905061074981836111a6565b6101208201526107598184611556565b61076281611497565b5050600160005550565b6001600054146107d8576040517f08c379a000000000000000000000000000000000000000000000000000000000815260206004820152600c60248201527f652f7265656e7472616e637900000000000000000000000000000000000000006044820152606401610291565b60026000819055506000610805826040015183606001518460800151856000015186602001516001610d01565b905061081581836080015161187f565b61084982604001517f0000000000000000000000000000000000000000000000000000000000000000836101000151611956565b7f000000000000000000000000000000000000000000000000000000000000000073ffffffffffffffffffffffffffffffffffffffff1663414bf389604051806101000160405280856040015173ffffffffffffffffffffffffffffffffffffffff168152602001856060015173ffffffffffffffffffffffffffffffffffffffff1681526020018560e0015162ffffff1681526020013073ffffffffffffffffffffffffffffffffffffffff16815260200160008660c001511161090e5742610914565b8560c001515b815260200184610100015181526020018560a00151815260200185610100015173ffffffffffffffffffffffffffffffffffffffff168152506040518263ffffffff1660e01b81526004016109699190613e6b565b6020604051808303816000875af1158015610988573d6000803e3d6000fd5b505050506040513d601f19601f820116820180604052508101906109ac9190613e52565b6101208201526103bc816117ca565b600160005414610a27576040517f08c379a000000000000000000000000000000000000000000000000000000000815260206004820152600c60248201527f652f7265656e7472616e637900000000000000000000000000000000000000006044820152606401610291565b6002600081905550600080610a418360a001516000610bad565b915091506000610a6283838660400151876000015188602001516002610d01565b9050610a7281856040015161187f565b610aa2837f0000000000000000000000000000000000000000000000000000000000000000836101000151611956565b7f000000000000000000000000000000000000000000000000000000000000000073ffffffffffffffffffffffffffffffffffffffff1663c04b8d596040518060a001604052808760a0015181526020013073ffffffffffffffffffffffffffffffffffffffff1681526020016000886080015111610b215742610b27565b87608001515b8152602001846101000151815260200187606001518152506040518263ffffffff1660e01b8152600401610b5b9190613f8f565b6020604051808303816000875af1158015610b7a573d6000803e3d6000fd5b505050506040513d601f19601f82011682018060405250810190610b9e9190613e52565b61012082015261048d816117ca565b600080602b84511015610c1c576040517f08c379a000000000000000000000000000000000000000000000000000000000815260206004820152601660248201527f652f737761702f756e692d706174682d6c656e677468000000000000000000006044820152606401610291565b601760148551610c2c9190613fd1565b610c369190614017565b15610c9d576040517f08c379a000000000000000000000000000000000000000000000000000000000815260206004820152601660248201527f652f737761702f756e692d706174682d666f726d6174000000000000000000006044820152606401610291565b60208401516000906c01000000000000000000000000900490506000610ce38660148851610ccb9190613fd1565b01602001516c01000000000000000000000000900490565b905084610cf1578181610cf4565b80825b9350935050509250929050565b610e4560408051610160808201835260008083526020808401829052838501829052606080850183905285516101e081018752838152918201839052948101829052938401819052608084810182905260a0850182905260c0850182905260e0850182905261010085018290526101208501829052610140850182905291840181905261018084018190526101a084018190526101c08401529091908201908152604080516101e08101825260008082526020828101829052928201819052606082018190526080820181905260a0820181905260c0820181905260e08201819052610100820181905261012082018190526101408201819052610160820181905261018082018190526101a082018190526101c0820152910190815260200160008152602001600081526020016000815260200160008152602001600081525090565b8573ffffffffffffffffffffffffffffffffffffffff168773ffffffffffffffffffffffffffffffffffffffff161415610edb576040517f08c379a000000000000000000000000000000000000000000000000000000000815260206004820152600b60248201527f652f737761702f73616d650000000000000000000000000000000000000000006044820152606401610291565b7fffffffffffffffffffffffffffffffffffffffffffffffffffffffffffffffd836013560601c610f0c8186611b0b565b73ffffffffffffffffffffffffffffffffffffffff168252610f2e8185611b0b565b73ffffffffffffffffffffffffffffffffffffffff1660208301528151610f5490611b7d565b816020015173ffffffffffffffffffffffffffffffffffffffff16826000015173ffffffffffffffffffffffffffffffffffffffff1614610f9c57610f9c8260200151611b7d565b60208281015183516040805173ffffffffffffffffffffffffffffffffffffffff8c811682529481018b90529081018790528b84169392831692909116907e67954c8a2fb8cdfeea6b19b552f81a3f98fb552a868f29df939556a2c57fff9060600160405180910390a473ffffffffffffffffffffffffffffffffffffffff80891660009081526008602081815260408084205485168782019081528c86168552928252808420548516606088019081528351861685526009909252808420915185168452909220905191929091166110d1576040517f08c379a000000000000000000000000000000000000000000000000000000000815260206004820152601e60248201527f652f737761702f696e2d6d61726b65742d6e6f742d61637469766174656400006044820152606401610291565b606084015173ffffffffffffffffffffffffffffffffffffffff16611152576040517f08c379a000000000000000000000000000000000000000000000000000000000815260206004820152601f60248201527f652f737761702f6f75742d6d61726b65742d6e6f742d616374697661746564006044820152606401610291565b61115c8a83611c63565b608085015261116b8982611c63565b60a0850152608084015161117f9030611dc4565b60c085015260a08401516111939030611dc4565b60e0850152509198975050505050505050565b6000808360a001516101a0015161120860096000876060015173ffffffffffffffffffffffffffffffffffffffff1673ffffffffffffffffffffffffffffffffffffffff1681526020019081526020016000208660a001518760200151611ee2565b611212919061402b565b905082811161127d576040517f08c379a000000000000000000000000000000000000000000000000000000000815260206004820152601260248201527f652f737761702f7461726765742d6465627400000000000000000000000000006044820152606401610291565b6112878382613fd1565b9150505b92915050565b6112c0817f00000000000000000000000000000000000000000000000000000000000000008460600151611956565b60007f000000000000000000000000000000000000000000000000000000000000000073ffffffffffffffffffffffffffffffffffffffff1663f28c04986040518060a001604052808660a0015181526020013073ffffffffffffffffffffffffffffffffffffffff16815260200160008760800151116113415742611347565b86608001515b8152602001876101200151815260200186606001518152506040518263ffffffff1660e01b815260040161137b9190613f8f565b6020604051808303816000875af115801561139a573d6000803e3d6000fd5b505050506040513d601f19601f820116820180604052508101906113be9190613e52565b90507fffffffffffffffffffffffffffffffffffffffffffffffffffffffffffffffff81141561144a576040517f08c379a000000000000000000000000000000000000000000000000000000000815260206004820152601a60248201527f652f737761702f65786163742d6f75742d616d6f756e742d696e0000000000006044820152606401610291565b611454848261187f565b8260600151846101000151101561149157611491827f00000000000000000000000000000000000000000000000000000000000000006000611956565b50505050565b60006114a282611f62565b6040808401805173ffffffffffffffffffffffffffffffffffffffff1660009081526009602052919091206080850151915185516101408701519495506114ec949293928661207c565b61154760096000846060015173ffffffffffffffffffffffffffffffffffffffff1673ffffffffffffffffffffffffffffffffffffffff1681526020019081526020016000208360a0015184602001518561012001516120a2565b8151611552906120de565b5050565b61158981604001517f00000000000000000000000000000000000000000000000000000000000000008360a00151611956565b60007f000000000000000000000000000000000000000000000000000000000000000073ffffffffffffffffffffffffffffffffffffffff1663db3e2198604051806101000160405280856040015173ffffffffffffffffffffffffffffffffffffffff168152602001856060015173ffffffffffffffffffffffffffffffffffffffff1681526020018560e0015162ffffff1681526020013073ffffffffffffffffffffffffffffffffffffffff16815260200160008660c00151116116505742611656565b8560c001515b815260200186610120015181526020018560a00151815260200185610100015173ffffffffffffffffffffffffffffffffffffffff168152506040518263ffffffff1660e01b81526004016116ab9190613e6b565b6020604051808303816000875af11580156116ca573d6000803e3d6000fd5b505050506040513d601f19601f820116820180604052508101906116ee9190613e52565b90507fffffffffffffffffffffffffffffffffffffffffffffffffffffffffffffffff81141561177a576040517f08c379a000000000000000000000000000000000000000000000000000000000815260206004820152601a60248201527f652f737761702f65786163742d6f75742d616d6f756e742d696e0000000000006044820152606401610291565b611784838261187f565b8160a0015183610100015110156117c5576117c582604001517f00000000000000000000000000000000000000000000000000000000000000006000611956565b505050565b60006117d582611f62565b6040808401805173ffffffffffffffffffffffffffffffffffffffff16600090815260096020529190912060808501519151855161014087015194955061181f949293928661207c565b61154760096000846060015173ffffffffffffffffffffffffffffffffffffffff1673ffffffffffffffffffffffffffffffffffffffff1681526020019081526020016000208360a001518460600151856020015186610120015161223a565b60408083015173ffffffffffffffffffffffffffffffffffffffff166000908152600960205220608083015183516118b9929190846122e7565b61014084015260808301516101800151909150811115611935576040517f08c379a000000000000000000000000000000000000000000000000000000000815260206004820152601d60248201527f652f737761702f696e73756666696369656e742d706f6f6c2d73697a650000006044820152606401610291565b60808201516101a00151611949908261402b565b6101009092019190915250565b6040805173ffffffffffffffffffffffffffffffffffffffff8481166024830152604480830185905283518084039091018152606490920183526020820180517bffffffffffffffffffffffffffffffffffffffffffffffffffffffff167f095ea7b30000000000000000000000000000000000000000000000000000000017905291516000928392908716916119ed9190613e36565b6000604051808303816000865af19150503d8060008114611a2a576040519150601f19603f3d011682016040523d82523d6000602084013e611a2f565b606091505b5091509150818015611a59575080511580611a59575080806020019051810190611a59919061404f565b8190611a92576040517f08c379a0000000000000000000000000000000000000000000000000000000008152600401610291919061406a565b505050505050565b805115611aa957805181602001fd5b6040517f08c379a000000000000000000000000000000000000000000000000000000000815260206004820152600d60248201527f652f656d7074792d6572726f72000000000000000000000000000000000000006044820152606401610291565b60006101008210611b78576040517f08c379a000000000000000000000000000000000000000000000000000000000815260206004820152601860248201527f652f7375622d6163636f756e742d69642d746f6f2d62696700000000000000006044820152606401610291565b501890565b73ffffffffffffffffffffffffffffffffffffffff8116600090815260066020526040902054610100900464ffffffffff1680611bb8575050565b6000611bc48242613fd1565b905080611bd057505050565b73ffffffffffffffffffffffffffffffffffffffff8316600090815260066020526040902080547fffffffffffffffffffffffffffffffffffffffffffffffffffff0000000000ff166101004264ffffffffff1602179055611c328382612384565b73ffffffffffffffffffffffffffffffffffffffff9093166000908152600660205260409020600101929092555050565b604080516101e081018252600080825260208201819052918101829052606081018290526080810182905260a0810182905260c0810182905260e08101829052610100810182905261012081018290526101408101829052610160810182905261018081018290526101a081018290526101c0810191909152611ce783838361244f565b1561128b5760a0810151825464ffffffffff9091167fffffffffffffffffffffffffffffffffffffffffffffffffffffff0000000000909116178255805160608201516bffffffffffffffffffffffff16740100000000000000000000000000000000000000000273ffffffffffffffffffffffffffffffffffffffff9091161760018301556020810151604082015171ffffffffffffffffffffffffffffffffffff166e010000000000000000000000000000026dffffffffffffffffffffffffffff9091161760038301556080810151600483015592915050565b60408051835173ffffffffffffffffffffffffffffffffffffffff848116602480850191909152845180850390910181526044840185526020810180517bffffffffffffffffffffffffffffffffffffffffffffffffffffffff167f70a0823100000000000000000000000000000000000000000000000000000000179052935160009485938493169162030d4091611e5c91613e36565b6000604051808303818686fa925050503d8060008114611e98576040519150601f19603f3d011682016040523d82523d6000602084013e611e9d565b606091505b5091509150811580611eb0575060208151105b15611ec057600093505050611ed9565b80806020019051810190611ed49190613e52565b935050505b60405292915050565b73ffffffffffffffffffffffffffffffffffffffff81166000908152600584016020526040812054633b9aca0090611f50908590611f4b908890839088906e010000000000000000000000000000900471ffffffffffffffffffffffffffffffffffff166128c2565b61291e565b611f5a919061402b565b949350505050565b600080611f73836080015130611dc4565b90508261010001518360c00151611f8a9190613fd1565b8114611ff2576040517f08c379a000000000000000000000000000000000000000000000000000000000815260206004820152601160248201527f652f737761702f62616c616e63652d696e0000000000000000000000000000006044820152606401610291565b8261012001518360e00151612007919061407d565b6120158460a0015130611dc4565b1461128b576040517f08c379a000000000000000000000000000000000000000000000000000000000815260206004820152601260248201527f652f737761702f62616c616e63652d6f757400000000000000000000000000006044820152606401610291565b6120868582612977565b61018086015261209986868686866129f4565b611a9285612bc9565b60028401546120d5908590859073ffffffffffffffffffffffffffffffffffffffff16856120d08387612977565b612ca8565b61149183612bc9565b73ffffffffffffffffffffffffffffffffffffffff811660009081526006602052604090205460ff16806121dc5760405173ffffffffffffffffffffffffffffffffffffffff831660248201526117c590620f4240907fc39b543a00000000000000000000000000000000000000000000000000000000906044015b604080517fffffffffffffffffffffffffffffffffffffffffffffffffffffffffffffffe08184030181529190526020810180517bffffffffffffffffffffffffffffffffffffffffffffffffffffffff167fffffffff0000000000000000000000000000000000000000000000000000000090931692909217909152612e83565b60ff8116600114156115525773ffffffffffffffffffffffffffffffffffffffff8216600090815260066020526040902080547fffffffffffffffffffffffffffffffffffffffffffffffffffffffffffffff001660021790555050565b60006122468583612977565b905060006122548683612f12565b9050818661018001818151612269919061407d565b9052506122798787878785612f3d565b73ffffffffffffffffffffffffffffffffffffffff841660009081526005880160205260409020546e010000000000000000000000000000900471ffffffffffffffffffffffffffffffffffff16156122d5576122d5846120de565b6122de86612bc9565b50505050505050565b60008060007fffffffffffffffffffffffffffffffffffffffffffffffffffffffffffffffff84141561235e575073ffffffffffffffffffffffffffffffffffffffff841660009081526005870160205260409020546dffffffffffffffffffffffffffff1661235786826130ac565b9350612377565b6123688685612977565b935061237486856130cd565b90505b9296929550919350505050565b60008062015180831015612398578261239d565b620151805b905060006123ae8262015180613fd1565b905060008060006123be88613103565b915091508082116123d05760006123da565b6123da8183613fd1565b925050506201518083826123ee9190614095565b6123f8919061402b565b73ffffffffffffffffffffffffffffffffffffffff87166000908152600660205260409020600101546201518090612431908590614095565b61243b919061402b565b612445919061407d565b9695505050505050565b73ffffffffffffffffffffffffffffffffffffffff83168152815464ffffffffff811660a083015265010000000000810460ff90811660c084018190526601000000000000830463ffffffff90811660e08601526a01000000000000000000008404600b0b610100860152760100000000000000000000000000000000000000000000840481166101208601527a010000000000000000000000000000000000000000000000000000840461ffff166101408601527c010000000000000000000000000000000000000000000000000000000090930490921661016084015260018401547401000000000000000000000000000000000000000090046bffffffffffffffffffffffff16606084015260038401546dffffffffffffffffffffffffffff80821660208601526e01000000000000000000000000000090910471ffffffffffffffffffffffffffffffffffff166040850152600485015460808501526012839003909116600a0a6101a0840181905260009291816125d4576125d4613fe8565b046101c084015260006125e78430611dc4565b9050836101c001518111612608576101a08401518102610180850152612611565b60006101808501525b8360a0015164ffffffffff1642146128b9576001925060008460a0015164ffffffffff16426126409190613fd1565b905060006b033b2e3c9fd0803ce8000000866080015161268c886101000151600b0b6b033b2e3c9fd0803ce800000061267991906140d2565b856b033b2e3c9fd0803ce8000000613188565b6126969190614095565b6126a0919061402b565b90506000866080015182886040015171ffffffffffffffffffffffffffffffffffff166126cd9190614095565b6126d7919061402b565b606088015160208901519192506bffffffffffffffffffffffff16906dffffffffffffffffffffffffffff166000612717633b9aca0063ee6b2800614095565b6101208b015163ffffffff90811614612735578a610120015161273b565b6336d616005b63ffffffff168b6040015171ffffffffffffffffffffffffffffffffffff16866127659190613fd1565b61276f9190614095565b612779919061402b565b905080156127f1576000612791633b9aca008661402b565b8b61018001516127a1919061407d565b90506127ad8282613fd1565b6127b78483614095565b6127c1919061402b565b92508a602001516dffffffffffffffffffffffffffff16836127e39190613fd1565b6127ed908561407d565b9350505b6dffffffffffffffffffffffffffff8211801590612821575071ffffffffffffffffffffffffffffffffffff8411155b156128b25761282f84613245565b71ffffffffffffffffffffffffffffffffffff1660408b015260808a0185905264ffffffffff421660a08b015260208a01516dffffffffffffffffffffffffffff1682146128b257612880836132ed565b6bffffffffffffffffffffffff1660608b015261289c8261338b565b6dffffffffffffffffffffffffffff1660208b01525b5050505050505b50509392505050565b6000816128d157506000611f5a565b73ffffffffffffffffffffffffffffffffffffffff83166000908152600586016020526040902060010154608085015161290b9084614095565b612915919061402b565b95945050505050565b60008161292d5750600061128b565b6101a0830151633b9aca000280807fffffffffffffffffffffffffffffffffffffffffffffffffffffffffffffffff858201018161296d5761296d613fe8565b0402949350505050565b6000826101c001518211156129e8576040517f08c379a000000000000000000000000000000000000000000000000000000000815260206004820152601260248201527f652f616d6f756e742d746f6f2d6c6172676500000000000000000000000000006044820152606401610291565b506101a0909101510290565b73ffffffffffffffffffffffffffffffffffffffff821660009081526005860160205260409020546dffffffffffffffffffffffffffff1681811015612a96576040517f08c379a000000000000000000000000000000000000000000000000000000000815260206004820152601660248201527f652f696e73756666696369656e742d62616c616e6365000000000000000000006044820152606401610291565b612aa8612aa38383613fd1565b61338b565b73ffffffffffffffffffffffffffffffffffffffff84166000908152600588016020908152604090912080547fffffffffffffffffffffffffffffffffffff0000000000000000000000000000166dffffffffffffffffffffffffffff938416179055860151612b1e91612aa391859116613fd1565b6dffffffffffffffffffffffffffff16602086018190526003870180547fffffffffffffffffffffffffffffffffffff0000000000000000000000000000169091179055612b6c8686613405565b845160405183815273ffffffffffffffffffffffffffffffffffffffff8086169216907f9b1bfa7fa9ee420a16e124f794c35ac9f90472acc99140eb2f6447c714cad8eb9060200160405180910390a3611a92848460008561356e565b806000015173ffffffffffffffffffffffffffffffffffffffff167f2f2d732e1a7a15fe7a2e51d3482efe83ff791579cebc5e3cd12cd2064374bc7f8260200151633b9aca00846040015171ffffffffffffffffffffffffffffffffffff16612c32919061402b565b6060808601516101808701516080808901516101008a0151604080516dffffffffffffffffffffffffffff909916895260208901979097526bffffffffffffffffffffffff909416958701959095529285015290830191909152600b0b60a08201524260c082015260e00160405180910390a250565b6000612cb8633b9aca0083614095565b9050600080612cc8888887613705565b915091506000612cd8888461291e565b905080841115612d44576040517f08c379a000000000000000000000000000000000000000000000000000000000815260206004820152601060248201527f652f72657061792d746f6f2d6d756368000000000000000000000000000000006044820152606401610291565b60408801518482039071ffffffffffffffffffffffffffffffffffff16841115612d8457886040015171ffffffffffffffffffffffffffffffffffff1693505b612d8d81613245565b73ffffffffffffffffffffffffffffffffffffffff8816600090815260058c0160205260409081902080546dffffffffffffffffffffffffffff166e01000000000000000000000000000071ffffffffffffffffffffffffffffffffffff948516021790558a0151612e16918391612e0791889116613fd1565b612e11919061407d565b613245565b71ffffffffffffffffffffffffffffffffffff1660408a0181905260038b0180546dffffffffffffffffffffffffffff166e010000000000000000000000000000909202919091179055612e6a8a8a613405565b612e7789898986856137e5565b50505050505050505050565b60008281526003602052604080822054905160609291829173ffffffffffffffffffffffffffffffffffffffff90911690612ebf908690613e36565b600060405180830381855af49150503d8060008114612efa576040519150601f19603f3d011682016040523d82523d6000602084013e612eff565b606091505b5091509150816112875761128781611a9a565b600080612f1e84613958565b905080612f3384670de0b6b3a7640000614095565b611287919061402b565b73ffffffffffffffffffffffffffffffffffffffff82166000908152600586016020526040902054612f8490612aa39083906dffffffffffffffffffffffffffff1661407d565b73ffffffffffffffffffffffffffffffffffffffff83166000908152600587016020908152604090912080547fffffffffffffffffffffffffffffffffffff0000000000000000000000000000166dffffffffffffffffffffffffffff938416179055850151612ffa91612aa39184911661407d565b6dffffffffffffffffffffffffffff16602085018190526003860180547fffffffffffffffffffffffffffffffffffff00000000000000000000000000001690911790556130488585613405565b835160405182815273ffffffffffffffffffffffffffffffffffffffff8085169216907f5548c837ab068cf56a2c2479df0882a4922fd203edb7517321831d95078c5f629060200160405180910390a36130a5836000848461356e565b5050505050565b6000806130b884613958565b9050670de0b6b3a7640000612f338285614095565b6000806130d984613958565b9050806130e7600182613fd1565b6130f985670de0b6b3a7640000614095565b612f33919061407d565b60405173ffffffffffffffffffffffffffffffffffffffff821660248201526000908190819061315c90620f4240907f37fe974a000000000000000000000000000000000000000000000000000000009060440161215a565b90506000818060200190518101906131749190614146565b805160209091015190969095509350505050565b6000838015613228576001841680156131a3578592506131a7565b8392505b50600283046002850494505b84156132225785860286878204146131ca57600080fd5b818101818110156131da57600080fd5b859004965050600185161561321757858302838782041415871515161561320057600080fd5b8181018181101561321057600080fd5b8590049350505b6002850494506131b3565b5061323d565b83801561323857600092506128b9565b839250505b509392505050565b600071ffffffffffffffffffffffffffffffffffff8211156132e9576040517f08c379a000000000000000000000000000000000000000000000000000000000815260206004820152602160248201527f652f646562742d616d6f756e742d746f6f2d6c617267652d746f2d656e636f6460448201527f65000000000000000000000000000000000000000000000000000000000000006064820152608401610291565b5090565b60006bffffffffffffffffffffffff8211156132e9576040517f08c379a000000000000000000000000000000000000000000000000000000000815260206004820152602260248201527f652f736d616c6c2d616d6f756e742d746f6f2d6c617267652d746f2d656e636f60448201527f64650000000000000000000000000000000000000000000000000000000000006064820152608401610291565b60006dffffffffffffffffffffffffffff8211156132e9576040517f08c379a000000000000000000000000000000000000000000000000000000000815260206004820152601c60248201527f652f616d6f756e742d746f6f2d6c617267652d746f2d656e636f6465000000006044820152606401610291565b600080633b9aca00836040015171ffffffffffffffffffffffffffffffffffff16613430919061402b565b9050600081846101800151613445919061407d565b905080613455576000925061348e565b670de0b6b3a76400008161346d63ffffffff83614095565b6134779085614095565b613481919061402b565b61348b919061402b565b92505b505060e0820151825160405173ffffffffffffffffffffffffffffffffffffffff909116602482015263ffffffff83811660448301526000926134f8929116907fd50c08f8000000000000000000000000000000000000000000000000000000009060640161215a565b905060008180602001905181019061351091906141b0565b600b81900b61010090950194909452505082546bffffffffffffffffffffffff9092166a0100000000000000000000027fffffffffffffffffffff000000000000000000000000ffffffffffffffffffff9092169190911790915550565b6000604051905060008573ffffffffffffffffffffffffffffffffffffffff1660036040518060600160405280602181526020016141d460219139805160209182012060405160f89390931b7fff000000000000000000000000000000000000000000000000000000000000001691830191909152602182015273ffffffffffffffffffffffffffffffffffffffff8781166041830152861660618201526081810185905260a101604080517fffffffffffffffffffffffffffffffffffffffffffffffffffffffffffffffe08184030181529082905261364e91613e36565b6000604051808303816000865af19150503d806000811461368b576040519150601f19603f3d011682016040523d82523d6000602084013e613690565b606091505b50509050806136fb576040517f08c379a000000000000000000000000000000000000000000000000000000000815260206004820152601060248201527f652f6c6f672d70726f78792d6661696c000000000000000000000000000000006044820152606401610291565b5060405250505050565b73ffffffffffffffffffffffffffffffffffffffff811660009081526005840160205260408120546e010000000000000000000000000000900471ffffffffffffffffffffffffffffffffffff1661375f858585846128c2565b915061376a82613245565b73ffffffffffffffffffffffffffffffffffffffff909316600090815260059095016020526040909420805471ffffffffffffffffffffffffffffffffffff939093166e010000000000000000000000000000026dffffffffffffffffffffffffffff90931692909217825560809092015160019091015591565b633b9aca006137f4868461291e565b6137fe919061402b565b9150633b9aca0061380f868361291e565b613819919061402b565b9050818111156138bf57600061382f8383613fd1565b90508373ffffffffffffffffffffffffffffffffffffffff16866000015173ffffffffffffffffffffffffffffffffffffffff167f312a5e5e1079f5dda4e95dbbd0b908b291fd5b992ef22073643ab691572c5b528360405161389491815260200190565b60405180910390a36138b985600086896101a00151856138b4919061402b565b61356e565b506130a5565b808211156130a55760006138d38284613fd1565b90508373ffffffffffffffffffffffffffffffffffffffff16866000015173ffffffffffffffffffffffffffffffffffffffff167f05f2eeda0e08e4b437f487c8d7d29b14537d15e3488170dc3de5dbdf8dac46848360405161393891815260200190565b60405180910390a3611a9285856000896101a00151856138b4919061402b565b600080633b9aca00836040015171ffffffffffffffffffffffffffffffffffff16613983919061402b565b836101800151613993919061407d565b90508015806139b4575060208301516dffffffffffffffffffffffffffff16155b156139c95750670de0b6b3a764000092915050565b60208301516dffffffffffffffffffffffffffff166139f082670de0b6b3a7640000614095565b6139fa919061402b565b9392505050565b7f4e487b7100000000000000000000000000000000000000000000000000000000600052604160045260246000fd5b604051610120810167ffffffffffffffff81118282101715613a5457613a54613a01565b60405290565b60405160e0810167ffffffffffffffff81118282101715613a5457613a54613a01565b600082601f830112613a8e57600080fd5b813567ffffffffffffffff80821115613aa957613aa9613a01565b604051601f83017fffffffffffffffffffffffffffffffffffffffffffffffffffffffffffffffe0908116603f01168101908282118183101715613aef57613aef613a01565b81604052838152866020858801011115613b0857600080fd5b836020870160208301376000602085830101528094505050505092915050565b600060c08284031215613b3a57600080fd5b60405160c0810167ffffffffffffffff8282108183111715613b5e57613b5e613a01565b81604052829350843583526020850135602084015260408501356040840152606085013560608401526080850135608084015260a0850135915080821115613ba557600080fd5b50613bb285828601613a7d565b60a0830152505092915050565b60008060408385031215613bd257600080fd5b823567ffffffffffffffff811115613be957600080fd5b613bf585828601613b28565b95602094909401359450505050565b803573ffffffffffffffffffffffffffffffffffffffff81168114613c2857600080fd5b919050565b803562ffffff81168114613c2857600080fd5b60006101208284031215613c5357600080fd5b613c5b613a30565b90508135815260208201356020820152613c7760408301613c04565b6040820152613c8860608301613c04565b60608201526080820135608082015260a082013560a082015260c082013560c0820152613cb760e08301613c2d565b60e0820152610100613cca818401613c04565b9082015292915050565b60006101208284031215613ce757600080fd5b6139fa8383613c40565b600060208284031215613d0357600080fd5b813567ffffffffffffffff811115613d1a57600080fd5b61128784828501613b28565b600060208284031215613d3857600080fd5b813567ffffffffffffffff80821115613d5057600080fd5b9083019060e08286031215613d6457600080fd5b613d6c613a5a565b8235815260208301356020820152613d8660408401613c04565b6040820152613d9760608401613c04565b60608201526080830135608082015260a083013560a082015260c083013582811115613dc257600080fd5b613dce87828601613a7d565b60c08301525095945050505050565b6000806101408385031215613df157600080fd5b613dfb8484613c40565b94610120939093013593505050565b60005b83811015613e25578181015183820152602001613e0d565b838111156114915750506000910152565b60008251613e48818460208701613e0a565b9190910192915050565b600060208284031215613e6457600080fd5b5051919050565b610100810161128b828473ffffffffffffffffffffffffffffffffffffffff80825116835280602083015116602084015262ffffff60408301511660408401528060608301511660608401526080820151608084015260a082015160a084015260c082015160c08401528060e08301511660e0840152505050565b60008151808452613efe816020860160208601613e0a565b601f017fffffffffffffffffffffffffffffffffffffffffffffffffffffffffffffffe0169290920160200192915050565b6000815160a08452613f4560a0850182613ee6565b905073ffffffffffffffffffffffffffffffffffffffff60208401511660208501526040830151604085015260608301516060850152608083015160808501528091505092915050565b6020815260006139fa6020830184613f30565b7f4e487b7100000000000000000000000000000000000000000000000000000000600052601160045260246000fd5b600082821015613fe357613fe3613fa2565b500390565b7f4e487b7100000000000000000000000000000000000000000000000000000000600052601260045260246000fd5b60008261402657614026613fe8565b500690565b60008261403a5761403a613fe8565b500490565b80518015158114613c2857600080fd5b60006020828403121561406157600080fd5b6139fa8261403f565b6020815260006139fa6020830184613ee6565b6000821982111561409057614090613fa2565b500190565b6000817fffffffffffffffffffffffffffffffffffffffffffffffffffffffffffffffff04831182151516156140cd576140cd613fa2565b500290565b6000808212827f7fffffffffffffffffffffffffffffffffffffffffffffffffffffffffffffff0384138115161561410c5761410c613fa2565b827f800000000000000000000000000000000000000000000000000000000000000003841281161561414057614140613fa2565b50500190565b60006080828403121561415857600080fd5b6040516080810181811067ffffffffffffffff8211171561417b5761417b613a01565b80604052508251815260208301516020820152604083015160408201526141a46060840161403f565b60608201529392505050565b6000602082840312156141c257600080fd5b815180600b0b81146139fa57600080fdfe5472616e7366657228616464726573732c616464726573732c75696e7432353629a2646970667358221220d56ce01ea0e4aa5ce2d2e192f9d0017735d439fb0c95d2a8e9099be2af7233bc64736f6c634300080a0033",
  "linkReferences": {},
  "deployedLinkReferences": {}
}