{
  "_format": "hh-sol-artifact-1",
  "contractName": "EulDistributor",
  "sourceName": "contracts/mining/EulDistributor.sol",
  "abi": [
    {
      "inputs": [
        {
          "internalType": "address",
          "name": "eul_",
          "type": "address"
        },
        {
          "internalType": "address",
          "name": "eulStakes_",
          "type": "address"
        }
      ],
      "stateMutability": "nonpayable",
      "type": "constructor"
    },
    {
      "anonymous": false,
      "inputs": [
        {
          "indexed": true,
          "internalType": "address",
          "name": "newOwner",
          "type": "address"
        }
      ],
      "name": "OwnerChanged",
      "type": "event"
    },
    {
      "inputs": [
        {
          "internalType": "address",
          "name": "account",
          "type": "address"
        },
        {
          "internalType": "address",
          "name": "token",
          "type": "address"
        },
        {
          "internalType": "uint256",
          "name": "claimable",
          "type": "uint256"
        },
        {
          "internalType": "bytes32[]",
          "name": "proof",
          "type": "bytes32[]"
        },
        {
          "internalType": "address",
          "name": "stake",
          "type": "address"
        }
      ],
      "name": "claim",
      "outputs": [],
      "stateMutability": "nonpayable",
      "type": "function"
    },
    {
      "inputs": [
        {
          "internalType": "address",
          "name": "",
          "type": "address"
        },
        {
          "internalType": "address",
          "name": "",
          "type": "address"
        }
      ],
      "name": "claimed",
      "outputs": [
        {
          "internalType": "uint256",
          "name": "",
          "type": "uint256"
        }
      ],
      "stateMutability": "view",
      "type": "function"
    },
    {
      "inputs": [],
      "name": "currRoot",
      "outputs": [
        {
          "internalType": "bytes32",
          "name": "",
          "type": "bytes32"
        }
      ],
      "stateMutability": "view",
      "type": "function"
    },
    {
      "inputs": [],
      "name": "eul",
      "outputs": [
        {
          "internalType": "address",
          "name": "",
          "type": "address"
        }
      ],
      "stateMutability": "view",
      "type": "function"
    },
    {
      "inputs": [],
      "name": "eulStakes",
      "outputs": [
        {
          "internalType": "address",
          "name": "",
          "type": "address"
        }
      ],
      "stateMutability": "view",
      "type": "function"
    },
    {
      "inputs": [],
      "name": "name",
      "outputs": [
        {
          "internalType": "string",
          "name": "",
          "type": "string"
        }
      ],
      "stateMutability": "view",
      "type": "function"
    },
    {
      "inputs": [],
      "name": "owner",
      "outputs": [
        {
          "internalType": "address",
          "name": "",
          "type": "address"
        }
      ],
      "stateMutability": "view",
      "type": "function"
    },
    {
      "inputs": [],
      "name": "prevRoot",
      "outputs": [
        {
          "internalType": "bytes32",
          "name": "",
          "type": "bytes32"
        }
      ],
      "stateMutability": "view",
      "type": "function"
    },
    {
      "inputs": [
        {
          "internalType": "address",
          "name": "newOwner",
          "type": "address"
        }
      ],
      "name": "transferOwnership",
      "outputs": [],
      "stateMutability": "nonpayable",
      "type": "function"
    },
    {
      "inputs": [
        {
          "internalType": "bytes32",
          "name": "newRoot",
          "type": "bytes32"
        }
      ],
      "name": "updateRoot",
      "outputs": [],
      "stateMutability": "nonpayable",
      "type": "function"
    }
  ],
  "bytecode": "0x60c06040523480156200001157600080fd5b5060405162000f7c38038062000f7c83398101604081905262000034916200019e565b6001600160a01b03828116608052811660a05260008054336001600160a01b03199091161790556200007682826000196200007e602090811b6200079e17901c565b505062000287565b604080516001600160a01b038481166024830152604480830185905283518084039091018152606490920183526020820180516001600160e01b031663095ea7b360e01b1790529151600092839290871691620000dc919062000209565b6000604051808303816000865af19150503d80600081146200011b576040519150601f19603f3d011682016040523d82523d6000602084013e62000120565b606091505b50915091508180156200014e5750805115806200014e5750808060200190518101906200014e919062000227565b8190620001795760405162461bcd60e51b815260040162000170919062000252565b60405180910390fd5b505050505050565b80516001600160a01b03811681146200019957600080fd5b919050565b60008060408385031215620001b257600080fd5b620001bd8362000181565b9150620001cd6020840162000181565b90509250929050565b60005b83811015620001f3578181015183820152602001620001d9565b8381111562000203576000848401525b50505050565b600082516200021d818460208701620001d6565b9190910192915050565b6000602082840312156200023a57600080fd5b815180151581146200024b57600080fd5b9392505050565b602081526000825180602084015262000273816040850160208701620001d6565b601f01601f19169190910160400192915050565b60805160a051610cc1620002bb6000396000818161016801526106480152600081816101e701526105410152610cc16000f3fe608060405234801561001057600080fd5b50600436106100be5760003560e01c80639011021811610076578063e3f5b1951161005b578063e3f5b19514610209578063f2fde38b14610212578063fdb4beda1461022557600080fd5b806390110218146101cf578063d0bd9067146101e257600080fd5b806321ff9970116100a757806321ff99701461014e57806367342d59146101635780638da5cb5b146101af57600080fd5b806306fdde03146100c35780630c9cbf0e14610115575b600080fd5b6100ff6040518060400160405280600f81526020017f45554c204469737472696275746f72000000000000000000000000000000000081525081565b60405161010c9190610a26565b60405180910390f35b610140610123366004610aa0565b600360209081526000928352604080842090915290825290205481565b60405190815260200161010c565b61016161015c366004610ad3565b61022e565b005b61018a7f000000000000000000000000000000000000000000000000000000000000000081565b60405173ffffffffffffffffffffffffffffffffffffffff909116815260200161010c565b60005461018a9073ffffffffffffffffffffffffffffffffffffffff1681565b6101616101dd366004610aec565b6102be565b61018a7f000000000000000000000000000000000000000000000000000000000000000081565b61014060015481565b610161610220366004610b9c565b6106b0565b61014060025481565b60005473ffffffffffffffffffffffffffffffffffffffff1633146102b4576040517f08c379a000000000000000000000000000000000000000000000000000000000815260206004820152600c60248201527f756e617574686f72697a6564000000000000000000000000000000000000000060448201526064015b60405180910390fd5b6001805460025555565b600061035b848480806020026020016040519081016040528093929190818152602001838360200280828437600092019190915250506040517fffffffffffffffffffffffffffffffffffffffff00000000000000000000000060608d811b821660208401528c901b166034820152604881018a905260680191506103409050565b60405160208183030381529060405280519060200120610929565b905060015481148061036e575060025481145b6103d4576040517f08c379a000000000000000000000000000000000000000000000000000000000815260206004820152601560248201527f70726f6f6620696e76616c69642f65787069726564000000000000000000000060448201526064016102ab565b73ffffffffffffffffffffffffffffffffffffffff8088166000908152600360209081526040808320938a1683529290522054808611610470576040517f08c379a000000000000000000000000000000000000000000000000000000000815260206004820152600f60248201527f616c726561647920636c61696d6564000000000000000000000000000000000060448201526064016102ab565b73ffffffffffffffffffffffffffffffffffffffff80891660009081526003602090815260408083208b8516845290915290208790558187039084166104c0576104bb888a8361099d565b6106a5565b3373ffffffffffffffffffffffffffffffffffffffff8a161461053f576040517f08c379a000000000000000000000000000000000000000000000000000000000815260206004820181905260248201527f63616e206f6e6c79206175746f2d7374616b6520666f7220796f757273656c6660448201526064016102ab565b7f000000000000000000000000000000000000000000000000000000000000000073ffffffffffffffffffffffffffffffffffffffff168873ffffffffffffffffffffffffffffffffffffffff16146105f4576040517f08c379a000000000000000000000000000000000000000000000000000000000815260206004820152601760248201527f63616e206f6e6c79206175746f2d7374616b652045554c00000000000000000060448201526064016102ab565b6040517f47a3644500000000000000000000000000000000000000000000000000000000815273ffffffffffffffffffffffffffffffffffffffff8a811660048301528581166024830152604482018390527f000000000000000000000000000000000000000000000000000000000000000016906347a3644590606401600060405180830381600087803b15801561068c57600080fd5b505af11580156106a0573d6000803e3d6000fd5b505050505b505050505050505050565b60005473ffffffffffffffffffffffffffffffffffffffff163314610731576040517f08c379a000000000000000000000000000000000000000000000000000000000815260206004820152600c60248201527f756e617574686f72697a6564000000000000000000000000000000000000000060448201526064016102ab565b600080547fffffffffffffffffffffffff00000000000000000000000000000000000000001673ffffffffffffffffffffffffffffffffffffffff8316908117825560405190917fa2ea9883a321a3e97b8266c2b078bfeec6d50c711ed71f874a90d500ae2eaf3691a250565b60405173ffffffffffffffffffffffffffffffffffffffff83811660248301526044820183905260009182918616907f095ea7b300000000000000000000000000000000000000000000000000000000906064015b604080517fffffffffffffffffffffffffffffffffffffffffffffffffffffffffffffffe08184030181529181526020820180517bffffffffffffffffffffffffffffffffffffffffffffffffffffffff167fffffffff0000000000000000000000000000000000000000000000000000000090941693909317909252905161087c9190610bbe565b6000604051808303816000865af19150503d80600081146108b9576040519150601f19603f3d011682016040523d82523d6000602084013e6108be565b606091505b50915091508180156108e85750805115806108e85750808060200190518101906108e89190610bda565b8190610921576040517f08c379a00000000000000000000000000000000000000000000000000000000081526004016102ab9190610a26565b505050505050565b600081815b845181101561099557600085828151811061094b5761094b610bfc565b602002602001015190508083116109715760008381526020829052604090209250610982565b600081815260208490526040902092505b508061098d81610c2b565b91505061092e565b509392505050565b60405173ffffffffffffffffffffffffffffffffffffffff83811660248301526044820183905260009182918616907fa9059cbb00000000000000000000000000000000000000000000000000000000906064016107f3565b60005b83811015610a115781810151838201526020016109f9565b83811115610a20576000848401525b50505050565b6020815260008251806020840152610a458160408501602087016109f6565b601f017fffffffffffffffffffffffffffffffffffffffffffffffffffffffffffffffe0169190910160400192915050565b803573ffffffffffffffffffffffffffffffffffffffff81168114610a9b57600080fd5b919050565b60008060408385031215610ab357600080fd5b610abc83610a77565b9150610aca60208401610a77565b90509250929050565b600060208284031215610ae557600080fd5b5035919050565b60008060008060008060a08789031215610b0557600080fd5b610b0e87610a77565b9550610b1c60208801610a77565b945060408701359350606087013567ffffffffffffffff80821115610b4057600080fd5b818901915089601f830112610b5457600080fd5b813581811115610b6357600080fd5b8a60208260051b8501011115610b7857600080fd5b602083019550809450505050610b9060808801610a77565b90509295509295509295565b600060208284031215610bae57600080fd5b610bb782610a77565b9392505050565b60008251610bd08184602087016109f6565b9190910192915050565b600060208284031215610bec57600080fd5b81518015158114610bb757600080fd5b7f4e487b7100000000000000000000000000000000000000000000000000000000600052603260045260246000fd5b60007fffffffffffffffffffffffffffffffffffffffffffffffffffffffffffffffff821415610c84577f4e487b7100000000000000000000000000000000000000000000000000000000600052601160045260246000fd5b506001019056fea264697066735822122088b7de08e4b8a393bbcc55fe661d180f26ccc590015d990a6e6b6aab4ec7665d64736f6c634300080a0033",
  "linkReferences": {},
  "deployedLinkReferences": {}
}