{
  "_format": "hh-sol-artifact-1",
  "contractName": "EulStakes",
  "sourceName": "contracts/mining/EulStakes.sol",
  "abi": [
    {
      "inputs": [
        {
          "internalType": "address",
          "name": "eul_",
          "type": "address"
        }
      ],
      "stateMutability": "nonpayable",
      "type": "constructor"
    },
    {
      "anonymous": false,
      "inputs": [
        {
          "indexed": true,
          "internalType": "address",
          "name": "who",
          "type": "address"
        },
        {
          "indexed": true,
          "internalType": "address",
          "name": "underlying",
          "type": "address"
        },
        {
          "indexed": false,
          "internalType": "address",
          "name": "sender",
          "type": "address"
        },
        {
          "indexed": false,
          "internalType": "uint256",
          "name": "newAmount",
          "type": "uint256"
        }
      ],
      "name": "Stake",
      "type": "event"
    },
    {
      "inputs": [],
      "name": "eul",
      "outputs": [
        {
          "internalType": "address",
          "name": "",
          "type": "address"
        }
      ],
      "stateMutability": "view",
      "type": "function"
    },
    {
      "inputs": [],
      "name": "name",
      "outputs": [
        {
          "internalType": "string",
          "name": "",
          "type": "string"
        }
      ],
      "stateMutability": "view",
      "type": "function"
    },
    {
      "inputs": [
        {
          "components": [
            {
              "internalType": "address",
              "name": "underlying",
              "type": "address"
            },
            {
              "internalType": "int256",
              "name": "amount",
              "type": "int256"
            }
          ],
          "internalType": "struct EulStakes.StakeOp[]",
          "name": "ops",
          "type": "tuple[]"
        }
      ],
      "name": "stake",
      "outputs": [],
      "stateMutability": "nonpayable",
      "type": "function"
    },
    {
      "inputs": [
        {
          "internalType": "address",
          "name": "beneficiary",
          "type": "address"
        },
        {
          "internalType": "address",
          "name": "underlying",
          "type": "address"
        },
        {
          "internalType": "uint256",
          "name": "amount",
          "type": "uint256"
        }
      ],
      "name": "stakeGift",
      "outputs": [],
      "stateMutability": "nonpayable",
      "type": "function"
    },
    {
      "inputs": [
        {
          "components": [
            {
              "internalType": "address",
              "name": "underlying",
              "type": "address"
            },
            {
              "internalType": "int256",
              "name": "amount",
              "type": "int256"
            }
          ],
          "internalType": "struct EulStakes.StakeOp[]",
          "name": "ops",
          "type": "tuple[]"
        },
        {
          "internalType": "uint256",
          "name": "value",
          "type": "uint256"
        },
        {
          "internalType": "uint256",
          "name": "deadline",
          "type": "uint256"
        },
        {
          "internalType": "uint8",
          "name": "v",
          "type": "uint8"
        },
        {
          "internalType": "bytes32",
          "name": "r",
          "type": "bytes32"
        },
        {
          "internalType": "bytes32",
          "name": "s",
          "type": "bytes32"
        }
      ],
      "name": "stakePermit",
      "outputs": [],
      "stateMutability": "nonpayable",
      "type": "function"
    },
    {
      "inputs": [
        {
          "internalType": "address",
          "name": "account",
          "type": "address"
        },
        {
          "internalType": "address",
          "name": "underlying",
          "type": "address"
        }
      ],
      "name": "staked",
      "outputs": [
        {
          "internalType": "uint256",
          "name": "",
          "type": "uint256"
        }
      ],
      "stateMutability": "view",
      "type": "function"
    }
  ],
  "bytecode": "0x60a060405234801561001057600080fd5b50604051610eb4380380610eb483398101604081905261002f91610040565b6001600160a01b0316608052610070565b60006020828403121561005257600080fd5b81516001600160a01b038116811461006957600080fd5b9392505050565b608051610e0d6100a76000396000818161015b015281816101fb015281816104c1015281816104fa01526106610152610e0d6000f3fe608060405234801561001057600080fd5b50600436106100725760003560e01c806347a364451161005057806347a36445146100f1578063c6d3afc914610104578063d0bd90671461015657600080fd5b806306fdde031461007757806327808a86146100c95780633bb6a829146100de575b600080fd5b6100b36040518060400160405280600a81526020017f45554c205374616b65730000000000000000000000000000000000000000000081525081565b6040516100c09190610943565b60405180910390f35b6100dc6100d7366004610b0f565b6101a2565b005b6100dc6100ec366004610b8a565b61027d565b6100dc6100ff366004610bc7565b610528565b610148610112366004610c03565b73ffffffffffffffffffffffffffffffffffffffff91821660009081526020818152604080832093909416825291909152205490565b6040519081526020016100c0565b61017d7f000000000000000000000000000000000000000000000000000000000000000081565b60405173ffffffffffffffffffffffffffffffffffffffff90911681526020016100c0565b6040517fd505accf000000000000000000000000000000000000000000000000000000008152336004820152306024820152604481018690526064810185905260ff8416608482015260a4810183905260c481018290527f000000000000000000000000000000000000000000000000000000000000000073ffffffffffffffffffffffffffffffffffffffff169063d505accf9060e401600060405180830381600087803b15801561025457600080fd5b505af1158015610268573d6000803e3d6000fd5b505050506102758661027d565b505050505050565b6000805b82518110156104b257600083828151811061029e5761029e610c36565b602002602001015190508060200151600014156102bb57506104a2565b7fffffffffffffffffffffffffffffffffff3f68318436f8ea4cb460f000000000816020015113801561030057506ec097ce7bc90715b34b9f10000000008160200151125b61036b576040517f08c379a000000000000000000000000000000000000000000000000000000000815260206004820152601360248201527f616d6f756e74206f7574206f662072616e67650000000000000000000000000060448201526064015b60405180910390fd5b6020808201513360009081528083526040808220855173ffffffffffffffffffffffffffffffffffffffff1683529093529182205482916103ab91610c94565b90506000811215610418576040517f08c379a000000000000000000000000000000000000000000000000000000000815260206004820152601360248201527f696e73756666696369656e74207374616b6564000000000000000000000000006044820152606401610362565b33600081815260208181526040808320875173ffffffffffffffffffffffffffffffffffffffff9081168552908352928190208590558651815185815292830186905294955093909116927fc5017594d2723c038bb216e5bcef3ac65910ade839c0e63253bf5b59efbf0fd7910160405180910390a3602082015161049d9085610c94565b935050505b6104ab81610d08565b9050610281565b5060008113156104ec576104e87f000000000000000000000000000000000000000000000000000000000000000033308461068e565b5050565b60008112156104e8576104e87f00000000000000000000000000000000000000000000000000000000000000003361052384610d41565b6107db565b6ec097ce7bc90715b34b9f100000000081106105a0576040517f08c379a000000000000000000000000000000000000000000000000000000000815260206004820152601360248201527f616d6f756e74206f7574206f662072616e6765000000000000000000000000006044820152606401610362565b806105aa57505050565b73ffffffffffffffffffffffffffffffffffffffff8084166000908152602081815260408083209386168352929052908120546105e8908390610d7a565b73ffffffffffffffffffffffffffffffffffffffff858116600081815260208181526040808320948916808452948252918290208590558151338152908101859052939450919290917fc5017594d2723c038bb216e5bcef3ac65910ade839c0e63253bf5b59efbf0fd7910160405180910390a36106887f000000000000000000000000000000000000000000000000000000000000000033308561068e565b50505050565b6040805173ffffffffffffffffffffffffffffffffffffffff85811660248301528481166044830152606480830185905283518084039091018152608490920183526020820180517bffffffffffffffffffffffffffffffffffffffffffffffffffffffff167f23b872dd00000000000000000000000000000000000000000000000000000000179052915160009283929088169161072d9190610d92565b6000604051808303816000865af19150503d806000811461076a576040519150601f19603f3d011682016040523d82523d6000602084013e61076f565b606091505b50915091508180156107995750805115806107995750808060200190518101906107999190610dae565b81906107d2576040517f08c379a00000000000000000000000000000000000000000000000000000000081526004016103629190610943565b50505050505050565b6040805173ffffffffffffffffffffffffffffffffffffffff8481166024830152604480830185905283518084039091018152606490920183526020820180517bffffffffffffffffffffffffffffffffffffffffffffffffffffffff167fa9059cbb0000000000000000000000000000000000000000000000000000000017905291516000928392908716916108729190610d92565b6000604051808303816000865af19150503d80600081146108af576040519150601f19603f3d011682016040523d82523d6000602084013e6108b4565b606091505b50915091508180156108de5750805115806108de5750808060200190518101906108de9190610dae565b8190610275576040517f08c379a00000000000000000000000000000000000000000000000000000000081526004016103629190610943565b60005b8381101561093257818101518382015260200161091a565b838111156106885750506000910152565b6020815260008251806020840152610962816040850160208701610917565b601f017fffffffffffffffffffffffffffffffffffffffffffffffffffffffffffffffe0169190910160400192915050565b7f4e487b7100000000000000000000000000000000000000000000000000000000600052604160045260246000fd5b6040805190810167ffffffffffffffff811182821017156109e6576109e6610994565b60405290565b604051601f82017fffffffffffffffffffffffffffffffffffffffffffffffffffffffffffffffe016810167ffffffffffffffff81118282101715610a3357610a33610994565b604052919050565b803573ffffffffffffffffffffffffffffffffffffffff81168114610a5f57600080fd5b919050565b600082601f830112610a7557600080fd5b8135602067ffffffffffffffff821115610a9157610a91610994565b610a9f818360051b016109ec565b82815260069290921b84018101918181019086841115610abe57600080fd5b8286015b84811015610b045760408189031215610adb5760008081fd5b610ae36109c3565b610aec82610a3b565b81528185013585820152835291830191604001610ac2565b509695505050505050565b60008060008060008060c08789031215610b2857600080fd5b863567ffffffffffffffff811115610b3f57600080fd5b610b4b89828a01610a64565b9650506020870135945060408701359350606087013560ff81168114610b7057600080fd5b9598949750929560808101359460a0909101359350915050565b600060208284031215610b9c57600080fd5b813567ffffffffffffffff811115610bb357600080fd5b610bbf84828501610a64565b949350505050565b600080600060608486031215610bdc57600080fd5b610be584610a3b565b9250610bf360208501610a3b565b9150604084013590509250925092565b60008060408385031215610c1657600080fd5b610c1f83610a3b565b9150610c2d60208401610a3b565b90509250929050565b7f4e487b7100000000000000000000000000000000000000000000000000000000600052603260045260246000fd5b7f4e487b7100000000000000000000000000000000000000000000000000000000600052601160045260246000fd5b6000808212827f7fffffffffffffffffffffffffffffffffffffffffffffffffffffffffffffff03841381151615610cce57610cce610c65565b827f8000000000000000000000000000000000000000000000000000000000000000038412811615610d0257610d02610c65565b50500190565b60007fffffffffffffffffffffffffffffffffffffffffffffffffffffffffffffffff821415610d3a57610d3a610c65565b5060010190565b60007f8000000000000000000000000000000000000000000000000000000000000000821415610d7357610d73610c65565b5060000390565b60008219821115610d8d57610d8d610c65565b500190565b60008251610da4818460208701610917565b9190910192915050565b600060208284031215610dc057600080fd5b81518015158114610dd057600080fd5b939250505056fea2646970667358221220803fdf06c35d367eb1f3a6740fabbc4eff1a22ddf04d26b8fdb74f026faa5f3164736f6c634300080a0033",
  "linkReferences": {},
  "deployedLinkReferences": {}
}