{
  "_format": "hh-sol-artifact-1",
  "contractName": "EulDistributorOwner",
  "sourceName": "contracts/mining/EulDistributorOwner.sol",
  "abi": [
    {
      "inputs": [
        {
          "internalType": "address",
          "name": "eulDistributor_",
          "type": "address"
        },
        {
          "internalType": "address",
          "name": "owner_",
          "type": "address"
        },
        {
          "internalType": "address",
          "name": "updater_",
          "type": "address"
        }
      ],
      "stateMutability": "nonpayable",
      "type": "constructor"
    },
    {
      "inputs": [
        {
          "internalType": "address",
          "name": "newOwner",
          "type": "address"
        }
      ],
      "name": "changeOwner",
      "outputs": [],
      "stateMutability": "nonpayable",
      "type": "function"
    },
    {
      "inputs": [
        {
          "internalType": "address",
          "name": "newUpdater",
          "type": "address"
        }
      ],
      "name": "changeUpdater",
      "outputs": [],
      "stateMutability": "nonpayable",
      "type": "function"
    },
    {
      "inputs": [],
      "name": "eulDistributor",
      "outputs": [
        {
          "internalType": "address",
          "name": "",
          "type": "address"
        }
      ],
      "stateMutability": "view",
      "type": "function"
    },
    {
      "inputs": [
        {
          "internalType": "address",
          "name": "destination",
          "type": "address"
        },
        {
          "internalType": "uint256",
          "name": "value",
          "type": "uint256"
        },
        {
          "internalType": "bytes",
          "name": "payload",
          "type": "bytes"
        }
      ],
      "name": "execute",
      "outputs": [],
      "stateMutability": "nonpayable",
      "type": "function"
    },
    {
      "inputs": [],
      "name": "name",
      "outputs": [
        {
          "internalType": "string",
          "name": "",
          "type": "string"
        }
      ],
      "stateMutability": "view",
      "type": "function"
    },
    {
      "inputs": [],
      "name": "owner",
      "outputs": [
        {
          "internalType": "address",
          "name": "",
          "type": "address"
        }
      ],
      "stateMutability": "view",
      "type": "function"
    },
    {
      "inputs": [
        {
          "internalType": "bytes32",
          "name": "newRoot",
          "type": "bytes32"
        }
      ],
      "name": "updateRoot",
      "outputs": [],
      "stateMutability": "nonpayable",
      "type": "function"
    },
    {
      "inputs": [],
      "name": "updater",
      "outputs": [
        {
          "internalType": "address",
          "name": "",
          "type": "address"
        }
      ],
      "stateMutability": "view",
      "type": "function"
    }
  ],
  "bytecode": "0x60a060405234801561001057600080fd5b5060405161085438038061085483398101604081905261002f91610081565b6001600160a01b03928316608052600080549284166001600160a01b0319938416179055600180549190931691161790556100c4565b80516001600160a01b038116811461007c57600080fd5b919050565b60008060006060848603121561009657600080fd5b61009f84610065565b92506100ad60208501610065565b91506100bb60408501610065565b90509250925092565b60805161076e6100e66000396000818161010c015261026e015261076e6000f3fe608060405234801561001057600080fd5b50600436106100885760003560e01c80638da5cb5b1161005b5780638da5cb5b14610153578063a6f9dae114610173578063b61d27f614610186578063df034cd01461019957600080fd5b806306fdde031461008d57806321ff9970146100df578063326220bf146100f457806380fd432014610107575b600080fd5b6100c96040518060400160405280601581526020017f45554c204469737472696275746f72204f776e6572000000000000000000000081525081565b6040516100d691906105ca565b60405180910390f35b6100f26100ed36600461063d565b6101b9565b005b6100f261010236600461067f565b6102e2565b61012e7f000000000000000000000000000000000000000000000000000000000000000081565b60405173ffffffffffffffffffffffffffffffffffffffff90911681526020016100d6565b60005461012e9073ffffffffffffffffffffffffffffffffffffffff1681565b6100f261018136600461067f565b6103aa565b6100f26101943660046106a1565b610472565b60015461012e9073ffffffffffffffffffffffffffffffffffffffff1681565b60015473ffffffffffffffffffffffffffffffffffffffff16331461023f576040517f08c379a000000000000000000000000000000000000000000000000000000000815260206004820152600c60248201527f756e617574686f72697a6564000000000000000000000000000000000000000060448201526064015b60405180910390fd5b6040517f21ff9970000000000000000000000000000000000000000000000000000000008152600481018290527f000000000000000000000000000000000000000000000000000000000000000073ffffffffffffffffffffffffffffffffffffffff16906321ff997090602401600060405180830381600087803b1580156102c757600080fd5b505af11580156102db573d6000803e3d6000fd5b5050505050565b60005473ffffffffffffffffffffffffffffffffffffffff163314610363576040517f08c379a000000000000000000000000000000000000000000000000000000000815260206004820152600c60248201527f756e617574686f72697a656400000000000000000000000000000000000000006044820152606401610236565b600180547fffffffffffffffffffffffff00000000000000000000000000000000000000001673ffffffffffffffffffffffffffffffffffffffff92909216919091179055565b60005473ffffffffffffffffffffffffffffffffffffffff16331461042b576040517f08c379a000000000000000000000000000000000000000000000000000000000815260206004820152600c60248201527f756e617574686f72697a656400000000000000000000000000000000000000006044820152606401610236565b600080547fffffffffffffffffffffffff00000000000000000000000000000000000000001673ffffffffffffffffffffffffffffffffffffffff92909216919091179055565b60005473ffffffffffffffffffffffffffffffffffffffff1633146104f3576040517f08c379a000000000000000000000000000000000000000000000000000000000815260206004820152600c60248201527f756e617574686f72697a656400000000000000000000000000000000000000006044820152606401610236565b60008473ffffffffffffffffffffffffffffffffffffffff1684848460405161051d929190610728565b60006040518083038185875af1925050503d806000811461055a576040519150601f19603f3d011682016040523d82523d6000602084013e61055f565b606091505b50509050806102db576040517f08c379a000000000000000000000000000000000000000000000000000000000815260206004820152600f60248201527f65786563757465206661696c75726500000000000000000000000000000000006044820152606401610236565b600060208083528351808285015260005b818110156105f7578581018301518582016040015282016105db565b81811115610609576000604083870101525b50601f017fffffffffffffffffffffffffffffffffffffffffffffffffffffffffffffffe016929092016040019392505050565b60006020828403121561064f57600080fd5b5035919050565b803573ffffffffffffffffffffffffffffffffffffffff8116811461067a57600080fd5b919050565b60006020828403121561069157600080fd5b61069a82610656565b9392505050565b600080600080606085870312156106b757600080fd5b6106c085610656565b935060208501359250604085013567ffffffffffffffff808211156106e457600080fd5b818701915087601f8301126106f857600080fd5b81358181111561070757600080fd5b88602082850101111561071957600080fd5b95989497505060200194505050565b818382376000910190815291905056fea2646970667358221220ad1ae047605ce881965c76c9499560baf8024c6e03483048ae5a973f6680133f64736f6c634300080a0033",
  "linkReferences": {},
  "deployedLinkReferences": {}
}